{
  "_format": "hh-sol-artifact-1",
  "contractName": "BetHouse",
  "sourceName": "contracts/BetHouse.sol",
  "abi": [
    {
      "inputs": [
        {
          "internalType": "address",
          "name": "_collateral",
          "type": "address"
        },
        {
          "internalType": "address",
          "name": "_owner",
          "type": "address"
        }
      ],
      "stateMutability": "nonpayable",
      "type": "constructor"
    },
    {
      "inputs": [],
      "name": "ErrActiveRound",
      "type": "error"
    },
    {
      "inputs": [],
      "name": "ErrAlreadyClaimed",
      "type": "error"
    },
    {
      "inputs": [],
      "name": "ErrBadMarket",
      "type": "error"
    },
    {
      "inputs": [],
      "name": "ErrBadRound",
      "type": "error"
    },
    {
      "inputs": [],
      "name": "ErrNoActive",
      "type": "error"
    },
    {
      "inputs": [],
      "name": "ErrNoWin",
      "type": "error"
    },
    {
      "inputs": [],
      "name": "ErrNotResolved",
      "type": "error"
    },
    {
      "inputs": [],
      "name": "ErrTooEarly",
      "type": "error"
    },
    {
      "inputs": [],
      "name": "ErrTooLate",
      "type": "error"
    },
    {
      "inputs": [],
      "name": "ErrZero",
      "type": "error"
    },
    {
      "inputs": [
        {
          "internalType": "address",
          "name": "owner",
          "type": "address"
        }
      ],
      "name": "OwnableInvalidOwner",
      "type": "error"
    },
    {
      "inputs": [
        {
          "internalType": "address",
          "name": "account",
          "type": "address"
        }
      ],
      "name": "OwnableUnauthorizedAccount",
      "type": "error"
    },
    {
      "inputs": [],
      "name": "ReentrancyGuardReentrantCall",
      "type": "error"
    },
    {
      "inputs": [
        {
          "internalType": "address",
          "name": "token",
          "type": "address"
        }
      ],
      "name": "SafeERC20FailedOperation",
      "type": "error"
    },
    {
      "anonymous": false,
      "inputs": [
        {
          "indexed": true,
          "internalType": "address",
          "name": "user",
          "type": "address"
        },
        {
          "indexed": true,
          "internalType": "uint256",
          "name": "id",
          "type": "uint256"
        },
        {
          "indexed": false,
          "internalType": "bool",
          "name": "isYes",
          "type": "bool"
        },
        {
          "indexed": false,
          "internalType": "uint256",
          "name": "gross",
          "type": "uint256"
        },
        {
          "indexed": false,
          "internalType": "uint256",
          "name": "net",
          "type": "uint256"
        },
        {
          "indexed": false,
          "internalType": "uint256",
          "name": "fee",
          "type": "uint256"
        }
      ],
      "name": "BetPlaced",
      "type": "event"
    },
    {
      "anonymous": false,
      "inputs": [
        {
          "indexed": true,
          "internalType": "address",
          "name": "user",
          "type": "address"
        },
        {
          "indexed": true,
          "internalType": "uint256",
          "name": "id",
          "type": "uint256"
        },
        {
          "indexed": false,
          "internalType": "uint256",
          "name": "payout",
          "type": "uint256"
        }
      ],
      "name": "Claimed",
      "type": "event"
    },
    {
      "anonymous": false,
      "inputs": [
        {
          "indexed": true,
          "internalType": "address",
          "name": "to",
          "type": "address"
        },
        {
          "indexed": false,
          "internalType": "uint256",
          "name": "amount",
          "type": "uint256"
        }
      ],
      "name": "FeesWithdrawn",
      "type": "event"
    },
    {
      "anonymous": false,
      "inputs": [
        {
          "indexed": true,
          "internalType": "bytes32",
          "name": "id",
          "type": "bytes32"
        },
        {
          "indexed": false,
          "internalType": "address",
          "name": "feed",
          "type": "address"
        }
      ],
      "name": "MarketAdded",
      "type": "event"
    },
    {
      "anonymous": false,
      "inputs": [
        {
          "indexed": true,
          "internalType": "bytes32",
          "name": "id",
          "type": "bytes32"
        },
        {
          "indexed": false,
          "internalType": "bool",
          "name": "enabled",
          "type": "bool"
        }
      ],
      "name": "MarketStatusChanged",
      "type": "event"
    },
    {
      "anonymous": false,
      "inputs": [
        {
          "indexed": true,
          "internalType": "address",
          "name": "previousOwner",
          "type": "address"
        },
        {
          "indexed": true,
          "internalType": "address",
          "name": "newOwner",
          "type": "address"
        }
      ],
      "name": "OwnershipTransferred",
      "type": "event"
    },
    {
      "anonymous": false,
      "inputs": [
        {
          "indexed": true,
          "internalType": "address",
          "name": "user",
          "type": "address"
        },
        {
          "indexed": true,
          "internalType": "uint256",
          "name": "id",
          "type": "uint256"
        },
        {
          "indexed": false,
          "internalType": "uint256",
          "name": "amount",
          "type": "uint256"
        }
      ],
      "name": "Refunded",
      "type": "event"
    },
    {
      "anonymous": false,
      "inputs": [
        {
          "indexed": true,
          "internalType": "uint256",
          "name": "id",
          "type": "uint256"
        },
        {
          "indexed": false,
          "internalType": "bool",
          "name": "refundMode",
          "type": "bool"
        },
        {
          "indexed": false,
          "internalType": "bool",
          "name": "outcomeYes",
          "type": "bool"
        },
        {
          "indexed": false,
          "internalType": "int256",
          "name": "priceStart",
          "type": "int256"
        },
        {
          "indexed": false,
          "internalType": "int256",
          "name": "priceEnd",
          "type": "int256"
        }
      ],
      "name": "RoundResolved",
      "type": "event"
    },
    {
      "anonymous": false,
      "inputs": [
        {
          "indexed": true,
          "internalType": "uint256",
          "name": "id",
          "type": "uint256"
        },
        {
          "indexed": true,
          "internalType": "bytes32",
          "name": "marketId",
          "type": "bytes32"
        },
        {
          "indexed": false,
          "internalType": "uint64",
          "name": "startTime",
          "type": "uint64"
        },
        {
          "indexed": false,
          "internalType": "uint64",
          "name": "endTime",
          "type": "uint64"
        },
        {
          "indexed": false,
          "internalType": "int256",
          "name": "priceStart",
          "type": "int256"
        }
      ],
      "name": "RoundStarted",
      "type": "event"
    },
    {
      "inputs": [],
      "name": "BET_WINDOW_SECONDS",
      "outputs": [
        {
          "internalType": "uint64",
          "name": "",
          "type": "uint64"
        }
      ],
      "stateMutability": "view",
      "type": "function"
    },
    {
      "inputs": [],
      "name": "FEE_BET_BPS",
      "outputs": [
        {
          "internalType": "uint16",
          "name": "",
          "type": "uint16"
        }
      ],
      "stateMutability": "view",
      "type": "function"
    },
    {
      "inputs": [],
      "name": "ROUND_SECONDS",
      "outputs": [
        {
          "internalType": "uint64",
          "name": "",
          "type": "uint64"
        }
      ],
      "stateMutability": "view",
      "type": "function"
    },
    {
      "inputs": [
        {
          "internalType": "bytes32",
          "name": "id",
          "type": "bytes32"
        },
        {
          "internalType": "address",
          "name": "feed",
          "type": "address"
        }
      ],
      "name": "addMarket",
      "outputs": [],
      "stateMutability": "nonpayable",
      "type": "function"
    },
    {
      "inputs": [
        {
          "internalType": "uint256",
          "name": "id",
          "type": "uint256"
        },
        {
          "internalType": "uint256",
          "name": "amount",
          "type": "uint256"
        }
      ],
      "name": "betNo",
      "outputs": [],
      "stateMutability": "nonpayable",
      "type": "function"
    },
    {
      "inputs": [
        {
          "internalType": "uint256",
          "name": "id",
          "type": "uint256"
        },
        {
          "internalType": "uint256",
          "name": "amount",
          "type": "uint256"
        }
      ],
      "name": "betYes",
      "outputs": [],
      "stateMutability": "nonpayable",
      "type": "function"
    },
    {
      "inputs": [
        {
          "internalType": "uint256",
          "name": "",
          "type": "uint256"
        },
        {
          "internalType": "address",
          "name": "",
          "type": "address"
        }
      ],
      "name": "betsNo",
      "outputs": [
        {
          "internalType": "uint256",
          "name": "gross",
          "type": "uint256"
        },
        {
          "internalType": "uint256",
          "name": "net",
          "type": "uint256"
        }
      ],
      "stateMutability": "view",
      "type": "function"
    },
    {
      "inputs": [
        {
          "internalType": "uint256",
          "name": "",
          "type": "uint256"
        },
        {
          "internalType": "address",
          "name": "",
          "type": "address"
        }
      ],
      "name": "betsYes",
      "outputs": [
        {
          "internalType": "uint256",
          "name": "gross",
          "type": "uint256"
        },
        {
          "internalType": "uint256",
          "name": "net",
          "type": "uint256"
        }
      ],
      "stateMutability": "view",
      "type": "function"
    },
    {
      "inputs": [
        {
          "internalType": "bytes",
          "name": "",
          "type": "bytes"
        }
      ],
      "name": "checkUpkeep",
      "outputs": [
        {
          "internalType": "bool",
          "name": "upkeepNeeded",
          "type": "bool"
        },
        {
          "internalType": "bytes",
          "name": "performData",
          "type": "bytes"
        }
      ],
      "stateMutability": "nonpayable",
      "type": "function"
    },
    {
      "inputs": [
        {
          "internalType": "uint256",
          "name": "id",
          "type": "uint256"
        }
      ],
      "name": "claim",
      "outputs": [],
      "stateMutability": "nonpayable",
      "type": "function"
    },
    {
      "inputs": [
        {
          "internalType": "uint256",
          "name": "",
          "type": "uint256"
        },
        {
          "internalType": "address",
          "name": "",
          "type": "address"
        }
      ],
      "name": "claimed",
      "outputs": [
        {
          "internalType": "bool",
          "name": "",
          "type": "bool"
        }
      ],
      "stateMutability": "view",
      "type": "function"
    },
    {
      "inputs": [],
      "name": "collateral",
      "outputs": [
        {
          "internalType": "contract IERC20",
          "name": "",
          "type": "address"
        }
      ],
      "stateMutability": "view",
      "type": "function"
    },
    {
      "inputs": [],
      "name": "currentRoundId",
      "outputs": [
        {
          "internalType": "uint256",
          "name": "",
          "type": "uint256"
        }
      ],
      "stateMutability": "view",
      "type": "function"
    },
    {
      "inputs": [
        {
          "internalType": "uint256",
          "name": "id",
          "type": "uint256"
        }
      ],
      "name": "endRound",
      "outputs": [],
      "stateMutability": "nonpayable",
      "type": "function"
    },
    {
      "inputs": [],
      "name": "feeVault",
      "outputs": [
        {
          "internalType": "uint256",
          "name": "",
          "type": "uint256"
        }
      ],
      "stateMutability": "view",
      "type": "function"
    },
    {
      "inputs": [
        {
          "internalType": "bytes32",
          "name": "id",
          "type": "bytes32"
        }
      ],
      "name": "getMarket",
      "outputs": [
        {
          "internalType": "address",
          "name": "feed",
          "type": "address"
        },
        {
          "internalType": "bool",
          "name": "enabled",
          "type": "bool"
        }
      ],
      "stateMutability": "view",
      "type": "function"
    },
    {
      "inputs": [
        {
          "internalType": "bytes32",
          "name": "",
          "type": "bytes32"
        }
      ],
      "name": "markets",
      "outputs": [
        {
          "internalType": "contract AggregatorV3Interface",
          "name": "feed",
          "type": "address"
        },
        {
          "internalType": "bool",
          "name": "enabled",
          "type": "bool"
        }
      ],
      "stateMutability": "view",
      "type": "function"
    },
    {
      "inputs": [],
      "name": "owner",
      "outputs": [
        {
          "internalType": "address",
          "name": "",
          "type": "address"
        }
      ],
      "stateMutability": "view",
      "type": "function"
    },
    {
      "inputs": [
        {
          "internalType": "bytes",
          "name": "performData",
          "type": "bytes"
        }
      ],
      "name": "performUpkeep",
      "outputs": [],
      "stateMutability": "nonpayable",
      "type": "function"
    },
    {
      "inputs": [
        {
          "internalType": "uint256",
          "name": "id",
          "type": "uint256"
        }
      ],
      "name": "refund",
      "outputs": [],
      "stateMutability": "nonpayable",
      "type": "function"
    },
    {
      "inputs": [],
      "name": "renounceOwnership",
      "outputs": [],
      "stateMutability": "nonpayable",
      "type": "function"
    },
    {
      "inputs": [
        {
          "internalType": "uint256",
          "name": "",
          "type": "uint256"
        }
      ],
      "name": "rounds",
      "outputs": [
        {
          "internalType": "uint64",
          "name": "startTime",
          "type": "uint64"
        },
        {
          "internalType": "uint64",
          "name": "endTime",
          "type": "uint64"
        },
        {
          "internalType": "bool",
          "name": "active",
          "type": "bool"
        },
        {
          "internalType": "bool",
          "name": "resolved",
          "type": "bool"
        },
        {
          "internalType": "bool",
          "name": "outcomeYes",
          "type": "bool"
        },
        {
          "internalType": "bool",
          "name": "refundMode",
          "type": "bool"
        },
        {
          "internalType": "uint256",
          "name": "totalYesNet",
          "type": "uint256"
        },
        {
          "internalType": "uint256",
          "name": "totalNoNet",
          "type": "uint256"
        },
        {
          "internalType": "uint256",
          "name": "feeAccrued",
          "type": "uint256"
        },
        {
          "internalType": "bytes32",
          "name": "marketId",
          "type": "bytes32"
        },
        {
          "internalType": "int256",
          "name": "priceStart",
          "type": "int256"
        },
        {
          "internalType": "int256",
          "name": "priceEnd",
          "type": "int256"
        }
      ],
      "stateMutability": "view",
      "type": "function"
    },
    {
      "inputs": [
        {
          "internalType": "bytes32",
          "name": "id",
          "type": "bytes32"
        },
        {
          "internalType": "bool",
          "name": "enabled",
          "type": "bool"
        }
      ],
      "name": "setMarketEnabled",
      "outputs": [],
      "stateMutability": "nonpayable",
      "type": "function"
    },
    {
      "inputs": [
        {
          "internalType": "bytes32",
          "name": "marketId",
          "type": "bytes32"
        }
      ],
      "name": "startRound",
      "outputs": [],
      "stateMutability": "nonpayable",
      "type": "function"
    },
    {
      "inputs": [
        {
          "internalType": "address",
          "name": "newOwner",
          "type": "address"
        }
      ],
      "name": "transferOwnership",
      "outputs": [],
      "stateMutability": "nonpayable",
      "type": "function"
    },
    {
      "inputs": [
        {
          "internalType": "address",
          "name": "to",
          "type": "address"
        },
        {
          "internalType": "uint256",
          "name": "amount",
          "type": "uint256"
        }
      ],
      "name": "withdrawFees",
      "outputs": [],
      "stateMutability": "nonpayable",
      "type": "function"
    }
  ],
  "bytecode": "0x60a06040523480156200001157600080fd5b5060405162003631380380620036318339818101604052810190620000379190620002a2565b80600073ffffffffffffffffffffffffffffffffffffffff168173ffffffffffffffffffffffffffffffffffffffff1603620000ad5760006040517f1e4fbdf7000000000000000000000000000000000000000000000000000000008152600401620000a49190620002fa565b60405180910390fd5b620000be816200017460201b60201c565b5060018081905550600073ffffffffffffffffffffffffffffffffffffffff168273ffffffffffffffffffffffffffffffffffffffff160362000138576040517f08c379a00000000000000000000000000000000000000000000000000000000081526004016200012f9062000378565b60405180910390fd5b8173ffffffffffffffffffffffffffffffffffffffff1660808173ffffffffffffffffffffffffffffffffffffffff168152505050506200039a565b60008060009054906101000a900473ffffffffffffffffffffffffffffffffffffffff169050816000806101000a81548173ffffffffffffffffffffffffffffffffffffffff021916908373ffffffffffffffffffffffffffffffffffffffff1602179055508173ffffffffffffffffffffffffffffffffffffffff168173ffffffffffffffffffffffffffffffffffffffff167f8be0079c531659141344cd1fd0a4f28419497f9722a3daafe3b4186f6b6457e060405160405180910390a35050565b600080fd5b600073ffffffffffffffffffffffffffffffffffffffff82169050919050565b60006200026a826200023d565b9050919050565b6200027c816200025d565b81146200028857600080fd5b50565b6000815190506200029c8162000271565b92915050565b60008060408385031215620002bc57620002bb62000238565b5b6000620002cc858286016200028b565b9250506020620002df858286016200028b565b9150509250929050565b620002f4816200025d565b82525050565b6000602082019050620003116000830184620002e9565b92915050565b600082825260208201905092915050565b7f7a65726f20636f6c6c61746572616c0000000000000000000000000000000000600082015250565b600062000360600f8362000317565b91506200036d8262000328565b602082019050919050565b60006020820190508181036000830152620003938162000351565b9050919050565b60805161325f620003d26000396000818161087a01528181611022015281816119e201528181611be40152611e36015261325f6000f3fe608060405234801561001057600080fd5b506004361061018e5760003560e01c8063715018a6116100de5780639cbe5efd11610097578063c2ccddec11610071578063c2ccddec1461047a578063c3c95c7b14610498578063d8dfeb45146104c9578063f2fde38b146104e75761018e565b80639cbe5efd14610424578063ad3b1b4714610442578063b9fb99221461045e5761018e565b8063715018a6146103545780637564912b1461035e5780638b3e04761461038f5780638c65c81f146103ad5780638da5cb5b146103e857806390cc9a11146104065761018e565b8063379607f51161014b578063478222c211610125578063478222c2146102cd5780635a1e6ca1146102eb57806365c0084c146103075780636e04ff0d146103235761018e565b8063379607f514610264578063442cd555146102805780634585e33b146102b15761018e565b80630939fc8314610193578063120aa877146101c4578063174a5d32146101f457806322a18d4214610210578063278ecde11461022c5780633740488514610248575b600080fd5b6101ad60048036038101906101a891906125d5565b610503565b6040516101bb929190612624565b60405180910390f35b6101de60048036038101906101d991906125d5565b610534565b6040516101eb9190612668565b60405180910390f35b61020e60048036038101906102099190612683565b610563565b005b61022a60048036038101906102259190612683565b610583565b005b610246600480360381019061024191906126c3565b6105a3565b005b610262600480360381019061025d9190612726565b61091c565b005b61027e600480360381019061027991906126c3565b610cf9565b005b61029a600480360381019061029591906125d5565b6110c6565b6040516102a8929190612624565b60405180910390f35b6102cb60048036038101906102c691906127b8565b6110f7565b005b6102d5611118565b6040516102e29190612805565b60405180910390f35b610305600480360381019061030091906126c3565b61111e565b005b610321600480360381019061031c9190612820565b6114e0565b005b61033d600480360381019061033891906127b8565b61163e565b60405161034b9291906128f0565b60405180910390f35b61035c6117a4565b005b61037860048036038101906103739190612726565b6117b8565b60405161038692919061297f565b60405180910390f35b610397611809565b6040516103a491906129cb565b60405180910390f35b6103c760048036038101906103c291906126c3565b61180e565b6040516103df9c9b9a99989796959493929190612a0e565b60405180910390f35b6103f06118ca565b6040516103fd9190612ad7565b60405180910390f35b61040e6118f3565b60405161041b9190612b0f565b60405180910390f35b61042c6118f8565b6040516104399190612805565b60405180910390f35b61045c60048036038101906104579190612b2a565b6118fe565b005b61047860048036038101906104739190612b96565b611a80565b005b610482611b82565b60405161048f91906129cb565b60405180910390f35b6104b260048036038101906104ad9190612726565b611b87565b6040516104c0929190612bd6565b60405180910390f35b6104d1611be2565b6040516104de9190612c20565b60405180910390f35b61050160048036038101906104fc9190612c3b565b611c06565b005b6005602052816000526040600020602052806000526040600020600091509150508060000154908060010154905082565b60076020528160005260406000206020528060005260406000206000915091509054906101000a900460ff1681565b61056b611c8c565b61057782826001611cd2565b61057f61204d565b5050565b61058b611c8c565b61059782826000611cd2565b61059f61204d565b5050565b6105ab611c8c565b60006004600083815260200190815260200160002090508060000160119054906101000a900460ff1661060a576040517f1599198500000000000000000000000000000000000000000000000000000000815260040160405180910390fd5b8060000160139054906101000a900460ff16610652576040517f5f1aa4c900000000000000000000000000000000000000000000000000000000815260040160405180910390fd5b6007600083815260200190815260200160002060003373ffffffffffffffffffffffffffffffffffffffff1673ffffffffffffffffffffffffffffffffffffffff16815260200190815260200160002060009054906101000a900460ff16156106e7576040517fe4f5bd5900000000000000000000000000000000000000000000000000000000815260040160405180910390fd5b60006005600084815260200190815260200160002060003373ffffffffffffffffffffffffffffffffffffffff1673ffffffffffffffffffffffffffffffffffffffff168152602001908152602001600020905060006006600085815260200190815260200160002060003373ffffffffffffffffffffffffffffffffffffffff1673ffffffffffffffffffffffffffffffffffffffff1681526020019081526020016000209050600082600001549050600081036107a857816000015490505b600081036107e2576040517f95e3a2c300000000000000000000000000000000000000000000000000000000815260040160405180910390fd5b6000836000018190555060008360010181905550600082600001819055506000826001018190555060016007600087815260200190815260200160002060003373ffffffffffffffffffffffffffffffffffffffff1673ffffffffffffffffffffffffffffffffffffffff16815260200190815260200160002060006101000a81548160ff0219169083151502179055506108be33827f000000000000000000000000000000000000000000000000000000000000000073ffffffffffffffffffffffffffffffffffffffff166120569092919063ffffffff16565b843373ffffffffffffffffffffffffffffffffffffffff167f2dc8e290002f06fc0085bbca9dfb8b415cf4d1178950c72ff9ee8f4d8878ee66836040516109059190612805565b60405180910390a35050505061091961204d565b50565b6109246120d5565b60006002600083815260200190815260200160002090508060000160149054906101000a900460ff1615806109a95750600073ffffffffffffffffffffffffffffffffffffffff168160000160009054906101000a900473ffffffffffffffffffffffffffffffffffffffff1673ffffffffffffffffffffffffffffffffffffffff16145b156109e0576040517f6b7cd6e900000000000000000000000000000000000000000000000000000000815260040160405180910390fd5b600060035414610a7b57600060046000600354815260200190815260200160002090508060000160109054906101000a900460ff168015610a4257508060000160089054906101000a900467ffffffffffffffff1667ffffffffffffffff1642105b15610a79576040517fe45e13fe00000000000000000000000000000000000000000000000000000000815260040160405180910390fd5b505b6000610a868361215c565b905060006001600354610a999190612c97565b9050806003819055506040518061018001604052804267ffffffffffffffff168152602001606467ffffffffffffffff1642610ad59190612c97565b67ffffffffffffffff16815260200160011515815260200160001515815260200160001515815260200160001515815260200160008152602001600081526020016000815260200185815260200183815260200160008152506004600083815260200190815260200160002060008201518160000160006101000a81548167ffffffffffffffff021916908367ffffffffffffffff16021790555060208201518160000160086101000a81548167ffffffffffffffff021916908367ffffffffffffffff16021790555060408201518160000160106101000a81548160ff02191690831515021790555060608201518160000160116101000a81548160ff02191690831515021790555060808201518160000160126101000a81548160ff02191690831515021790555060a08201518160000160136101000a81548160ff02191690831515021790555060c0820151816001015560e08201518160020155610100820151816003015561012082015181600401556101408201518160050155610160820151816006015590505083817f08842ea7ddcd5a123dc6980f1aa29a46b976f8c389e0aafcde65e57fea46ee9b6004600085815260200190815260200160002060000160009054906101000a900467ffffffffffffffff166004600086815260200190815260200160002060000160089054906101000a900467ffffffffffffffff1686604051610ceb93929190612ccb565b60405180910390a350505050565b610d01611c8c565b60006004600083815260200190815260200160002090508060000160119054906101000a900460ff16610d60576040517f1599198500000000000000000000000000000000000000000000000000000000815260040160405180910390fd5b8060000160139054906101000a900460ff1615610da9576040517f5f1aa4c900000000000000000000000000000000000000000000000000000000815260040160405180910390fd5b6007600083815260200190815260200160002060003373ffffffffffffffffffffffffffffffffffffffff1673ffffffffffffffffffffffffffffffffffffffff16815260200190815260200160002060009054906101000a900460ff1615610e3e576040517fe4f5bd5900000000000000000000000000000000000000000000000000000000815260040160405180910390fd5b60008160000160129054906101000a900460ff16610eab576006600084815260200190815260200160002060003373ffffffffffffffffffffffffffffffffffffffff1673ffffffffffffffffffffffffffffffffffffffff168152602001908152602001600020610efc565b6005600084815260200190815260200160002060003373ffffffffffffffffffffffffffffffffffffffff1673ffffffffffffffffffffffffffffffffffffffff1681526020019081526020016000205b905060008160010154905060008103610f41576040517f95e3a2c300000000000000000000000000000000000000000000000000000000815260040160405180910390fd5b60008360000160129054906101000a900460ff16610f63578360020154610f69565b83600101545b9050600084600201548560010154610f819190612c97565b9050600084600101819055506000846000018190555060016007600088815260200190815260200160002060003373ffffffffffffffffffffffffffffffffffffffff1673ffffffffffffffffffffffffffffffffffffffff16815260200190815260200160002060006101000a81548160ff021916908315150217905550600082848361100f9190612d02565b6110199190612d73565b905061106633827f000000000000000000000000000000000000000000000000000000000000000073ffffffffffffffffffffffffffffffffffffffff166120569092919063ffffffff16565b863373ffffffffffffffffffffffffffffffffffffffff167f987d620f307ff6b94d58743cb7a7509f24071586a77759b77c2d4e29f75a2f9a836040516110ad9190612805565b60405180910390a35050505050506110c361204d565b50565b6006602052816000526040600020602052806000526040600020600091509150508060000154908060010154905082565b6000828281019061110891906126c3565b90506111138161111e565b505050565b60085481565b600081148061112e575060035481115b15611165576040517f5f1aa4c900000000000000000000000000000000000000000000000000000000815260040160405180910390fd5b60006004600083815260200190815260200160002090508060000160109054906101000a900460ff166111c4576040517f4a33385d00000000000000000000000000000000000000000000000000000000815260040160405180910390fd5b8060000160119054906101000a900460ff161561120d576040517f5f1aa4c900000000000000000000000000000000000000000000000000000000815260040160405180910390fd5b600080826001015411905060008083600201541190506000603c8460000160009054906101000a900467ffffffffffffffff1661124a9190612da4565b90508280156112565750815b156113b8578360000160089054906101000a900467ffffffffffffffff1667ffffffffffffffff164210156112b7576040517ff6b24b3c00000000000000000000000000000000000000000000000000000000815260040160405180910390fd5b60006112c6856004015461215c565b905080856006018190555060008560000160106101000a81548160ff02191690831515021790555060018560000160116101000a81548160ff021916908315150217905550846005015481036113555760018560000160136101000a81548160ff02191690831515021790555060008560000160126101000a81548160ff0219169083151502179055506113b2565b60008560000160136101000a81548160ff021916908315150217905550846005015481138560000160126101000a81548160ff0219169083151502179055508460030154600860008282546113aa9190612c97565b925050819055505b50611471565b8067ffffffffffffffff164210156113fc576040517ff6b24b3c00000000000000000000000000000000000000000000000000000000815260040160405180910390fd5b60008460000160106101000a81548160ff02191690831515021790555060018460000160116101000a81548160ff02191690831515021790555060018460000160136101000a81548160ff02191690831515021790555060008460000160126101000a81548160ff0219169083151502179055505b847f69331d80f7b8f74feffba6031b46632ada6cd5297fa1ffd2afbfd350394510ff8560000160139054906101000a900460ff168660000160129054906101000a900460ff16876005015488600601546040516114d19493929190612de0565b60405180910390a25050505050565b6114e86120d5565b600073ffffffffffffffffffffffffffffffffffffffff168173ffffffffffffffffffffffffffffffffffffffff1603611557576040517f08c379a000000000000000000000000000000000000000000000000000000000815260040161154e90612e82565b60405180910390fd5b60405180604001604052808273ffffffffffffffffffffffffffffffffffffffff168152602001600115158152506002600084815260200190815260200160002060008201518160000160006101000a81548173ffffffffffffffffffffffffffffffffffffffff021916908373ffffffffffffffffffffffffffffffffffffffff16021790555060208201518160000160146101000a81548160ff021916908315150217905550905050817f3ca3906a1acc14aee692a58b74ea4d433d5b33625fc29e6f1cfbac4df9ee7f1e826040516116329190612ad7565b60405180910390a25050565b60006060600060035490506000810361166d57600060405180602001604052806000815250925092505061179d565b60006004600083815260200190815260200160002090508060000160109054906101000a900460ff1615806116b057508060000160119054906101000a900460ff165b156116d25760006040518060200160405280600081525093509350505061179d565b600080826001015411905060008083600201541190506000603c8460000160009054906101000a900467ffffffffffffffff1661170f9190612da4565b9050600083801561171d5750825b6117275781611741565b8460000160089054906101000a900467ffffffffffffffff165b90508067ffffffffffffffff16421061177f5760019750856040516020016117699190612805565b6040516020818303038152906040529650611796565b600097506040518060200160405280600081525096505b5050505050505b9250929050565b6117ac6120d5565b6117b66000612347565b565b60026020528060005260406000206000915090508060000160009054906101000a900473ffffffffffffffffffffffffffffffffffffffff16908060000160149054906101000a900460ff16905082565b606481565b60046020528060005260406000206000915090508060000160009054906101000a900467ffffffffffffffff16908060000160089054906101000a900467ffffffffffffffff16908060000160109054906101000a900460ff16908060000160119054906101000a900460ff16908060000160129054906101000a900460ff16908060000160139054906101000a900460ff1690806001015490806002015490806003015490806004015490806005015490806006015490508c565b60008060009054906101000a900473ffffffffffffffffffffffffffffffffffffffff16905090565b60c881565b60035481565b6119066120d5565b61190e611c8c565b600073ffffffffffffffffffffffffffffffffffffffff168273ffffffffffffffffffffffffffffffffffffffff160361197d576040517f08c379a000000000000000000000000000000000000000000000000000000000815260040161197490612eee565b60405180910390fd5b6008548111156119c2576040517f08c379a00000000000000000000000000000000000000000000000000000000081526004016119b990612f5a565b60405180910390fd5b80600860008282546119d49190612f7a565b92505081905550611a2682827f000000000000000000000000000000000000000000000000000000000000000073ffffffffffffffffffffffffffffffffffffffff166120569092919063ffffffff16565b8173ffffffffffffffffffffffffffffffffffffffff167fc0819c13be868895eb93e40eaceb96de976442fa1d404e5c55f14bb65a8c489a82604051611a6c9190612805565b60405180910390a2611a7c61204d565b5050565b611a886120d5565b6000600260008481526020019081526020016000209050600073ffffffffffffffffffffffffffffffffffffffff168160000160009054906101000a900473ffffffffffffffffffffffffffffffffffffffff1673ffffffffffffffffffffffffffffffffffffffff1603611b29576040517f6b7cd6e900000000000000000000000000000000000000000000000000000000815260040160405180910390fd5b818160000160146101000a81548160ff021916908315150217905550827ff74802a5f03ef3b60653fc5ef30996c42340c6f63ad2a625f0f7d4f996b28f3583604051611b759190612668565b60405180910390a2505050565b603c81565b60008060006002600085815260200190815260200160002090508060000160009054906101000a900473ffffffffffffffffffffffffffffffffffffffff168160000160149054906101000a900460ff169250925050915091565b7f000000000000000000000000000000000000000000000000000000000000000081565b611c0e6120d5565b600073ffffffffffffffffffffffffffffffffffffffff168173ffffffffffffffffffffffffffffffffffffffff1603611c805760006040517f1e4fbdf7000000000000000000000000000000000000000000000000000000008152600401611c779190612ad7565b60405180910390fd5b611c8981612347565b50565b600260015403611cc8576040517f3ee5aeb500000000000000000000000000000000000000000000000000000000815260040160405180910390fd5b6002600181905550565b60008203611d0c576040517fc5a7fa0600000000000000000000000000000000000000000000000000000000815260040160405180910390fd5b60006004600085815260200190815260200160002090508060000160109054906101000a900460ff16611d6b576040517f4a33385d00000000000000000000000000000000000000000000000000000000815260040160405180910390fd5b8060000160089054906101000a900467ffffffffffffffff1667ffffffffffffffff164210611dc6576040517f32d93bde00000000000000000000000000000000000000000000000000000000815260040160405180910390fd5b603c8160000160009054906101000a900467ffffffffffffffff16611deb9190612da4565b67ffffffffffffffff16421115611e2e576040517f32d93bde00000000000000000000000000000000000000000000000000000000815260040160405180910390fd5b611e7b3330857f000000000000000000000000000000000000000000000000000000000000000073ffffffffffffffffffffffffffffffffffffffff1661240b909392919063ffffffff16565b600061271060c861ffff1685611e919190612d02565b611e9b9190612d73565b905060008185611eab9190612f7a565b905081836003016000828254611ec19190612c97565b92505081905550600084611f24576006600088815260200190815260200160002060003373ffffffffffffffffffffffffffffffffffffffff1673ffffffffffffffffffffffffffffffffffffffff168152602001908152602001600020611f75565b6005600088815260200190815260200160002060003373ffffffffffffffffffffffffffffffffffffffff1673ffffffffffffffffffffffffffffffffffffffff1681526020019081526020016000205b905085816000016000828254611f8b9190612c97565b9250508190555081816001016000828254611fa69190612c97565b925050819055508415611fd35781846001016000828254611fc79190612c97565b92505081905550611fef565b81846002016000828254611fe79190612c97565b925050819055505b863373ffffffffffffffffffffffffffffffffffffffff167f7c142620a415bccf516d2845693ba87d21ac09a7fd5b596fc96e46c917d034ac8789868860405161203c9493929190612fae565b60405180910390a350505050505050565b60018081905550565b6120d0838473ffffffffffffffffffffffffffffffffffffffff1663a9059cbb8585604051602401612089929190612ff3565b604051602081830303815290604052915060e01b6020820180517bffffffffffffffffffffffffffffffffffffffffffffffffffffffff838183161783525050505061248d565b505050565b6120dd61252f565b73ffffffffffffffffffffffffffffffffffffffff166120fb6118ca565b73ffffffffffffffffffffffffffffffffffffffff161461215a5761211e61252f565b6040517f118cdaa70000000000000000000000000000000000000000000000000000000081526004016121519190612ad7565b60405180910390fd5b565b6000806002600084815260200190815260200160002090508060000160149054906101000a900460ff1615806121e25750600073ffffffffffffffffffffffffffffffffffffffff168160000160009054906101000a900473ffffffffffffffffffffffffffffffffffffffff1673ffffffffffffffffffffffffffffffffffffffff16145b15612219576040517f6b7cd6e900000000000000000000000000000000000000000000000000000000815260040160405180910390fd5b6000808260000160009054906101000a900473ffffffffffffffffffffffffffffffffffffffff1673ffffffffffffffffffffffffffffffffffffffff1663feaf968c6040518163ffffffff1660e01b815260040160a060405180830381865afa15801561228b573d6000803e3d6000fd5b505050506040513d601f19601f820116820180604052508101906122af919061309f565b50935050925050600082136122f9576040517f08c379a00000000000000000000000000000000000000000000000000000000081526004016122f090613166565b60405180910390fd5b6000810361233c576040517f08c379a0000000000000000000000000000000000000000000000000000000008152600401612333906131d2565b60405180910390fd5b819350505050919050565b60008060009054906101000a900473ffffffffffffffffffffffffffffffffffffffff169050816000806101000a81548173ffffffffffffffffffffffffffffffffffffffff021916908373ffffffffffffffffffffffffffffffffffffffff1602179055508173ffffffffffffffffffffffffffffffffffffffff168173ffffffffffffffffffffffffffffffffffffffff167f8be0079c531659141344cd1fd0a4f28419497f9722a3daafe3b4186f6b6457e060405160405180910390a35050565b612487848573ffffffffffffffffffffffffffffffffffffffff166323b872dd868686604051602401612440939291906131f2565b604051602081830303815290604052915060e01b6020820180517bffffffffffffffffffffffffffffffffffffffffffffffffffffffff838183161783525050505061248d565b50505050565b600080602060008451602086016000885af1806124b0576040513d6000823e3d81fd5b3d9250600051915050600082146124cb5760018114156124e7565b60008473ffffffffffffffffffffffffffffffffffffffff163b145b1561252957836040517f5274afe70000000000000000000000000000000000000000000000000000000081526004016125209190612ad7565b60405180910390fd5b50505050565b600033905090565b600080fd5b600080fd5b6000819050919050565b61255481612541565b811461255f57600080fd5b50565b6000813590506125718161254b565b92915050565b600073ffffffffffffffffffffffffffffffffffffffff82169050919050565b60006125a282612577565b9050919050565b6125b281612597565b81146125bd57600080fd5b50565b6000813590506125cf816125a9565b92915050565b600080604083850312156125ec576125eb612537565b5b60006125fa85828601612562565b925050602061260b858286016125c0565b9150509250929050565b61261e81612541565b82525050565b60006040820190506126396000830185612615565b6126466020830184612615565b9392505050565b60008115159050919050565b6126628161264d565b82525050565b600060208201905061267d6000830184612659565b92915050565b6000806040838503121561269a57612699612537565b5b60006126a885828601612562565b92505060206126b985828601612562565b9150509250929050565b6000602082840312156126d9576126d8612537565b5b60006126e784828501612562565b91505092915050565b6000819050919050565b612703816126f0565b811461270e57600080fd5b50565b600081359050612720816126fa565b92915050565b60006020828403121561273c5761273b612537565b5b600061274a84828501612711565b91505092915050565b600080fd5b600080fd5b600080fd5b60008083601f84011261277857612777612753565b5b8235905067ffffffffffffffff81111561279557612794612758565b5b6020830191508360018202830111156127b1576127b061275d565b5b9250929050565b600080602083850312156127cf576127ce612537565b5b600083013567ffffffffffffffff8111156127ed576127ec61253c565b5b6127f985828601612762565b92509250509250929050565b600060208201905061281a6000830184612615565b92915050565b6000806040838503121561283757612836612537565b5b600061284585828601612711565b9250506020612856858286016125c0565b9150509250929050565b600081519050919050565b600082825260208201905092915050565b60005b8381101561289a57808201518184015260208101905061287f565b60008484015250505050565b6000601f19601f8301169050919050565b60006128c282612860565b6128cc818561286b565b93506128dc81856020860161287c565b6128e5816128a6565b840191505092915050565b60006040820190506129056000830185612659565b818103602083015261291781846128b7565b90509392505050565b6000819050919050565b600061294561294061293b84612577565b612920565b612577565b9050919050565b60006129578261292a565b9050919050565b60006129698261294c565b9050919050565b6129798161295e565b82525050565b60006040820190506129946000830185612970565b6129a16020830184612659565b9392505050565b600067ffffffffffffffff82169050919050565b6129c5816129a8565b82525050565b60006020820190506129e060008301846129bc565b92915050565b6129ef816126f0565b82525050565b6000819050919050565b612a08816129f5565b82525050565b600061018082019050612a24600083018f6129bc565b612a31602083018e6129bc565b612a3e604083018d612659565b612a4b606083018c612659565b612a58608083018b612659565b612a6560a083018a612659565b612a7260c0830189612615565b612a7f60e0830188612615565b612a8d610100830187612615565b612a9b6101208301866129e6565b612aa96101408301856129ff565b612ab76101608301846129ff565b9d9c50505050505050505050505050565b612ad181612597565b82525050565b6000602082019050612aec6000830184612ac8565b92915050565b600061ffff82169050919050565b612b0981612af2565b82525050565b6000602082019050612b246000830184612b00565b92915050565b60008060408385031215612b4157612b40612537565b5b6000612b4f858286016125c0565b9250506020612b6085828601612562565b9150509250929050565b612b738161264d565b8114612b7e57600080fd5b50565b600081359050612b9081612b6a565b92915050565b60008060408385031215612bad57612bac612537565b5b6000612bbb85828601612711565b9250506020612bcc85828601612b81565b9150509250929050565b6000604082019050612beb6000830185612ac8565b612bf86020830184612659565b9392505050565b6000612c0a8261294c565b9050919050565b612c1a81612bff565b82525050565b6000602082019050612c356000830184612c11565b92915050565b600060208284031215612c5157612c50612537565b5b6000612c5f848285016125c0565b91505092915050565b7f4e487b7100000000000000000000000000000000000000000000000000000000600052601160045260246000fd5b6000612ca282612541565b9150612cad83612541565b9250828201905080821115612cc557612cc4612c68565b5b92915050565b6000606082019050612ce060008301866129bc565b612ced60208301856129bc565b612cfa60408301846129ff565b949350505050565b6000612d0d82612541565b9150612d1883612541565b9250828202612d2681612541565b91508282048414831517612d3d57612d3c612c68565b5b5092915050565b7f4e487b7100000000000000000000000000000000000000000000000000000000600052601260045260246000fd5b6000612d7e82612541565b9150612d8983612541565b925082612d9957612d98612d44565b5b828204905092915050565b6000612daf826129a8565b9150612dba836129a8565b9250828201905067ffffffffffffffff811115612dda57612dd9612c68565b5b92915050565b6000608082019050612df56000830187612659565b612e026020830186612659565b612e0f60408301856129ff565b612e1c60608301846129ff565b95945050505050565b600082825260208201905092915050565b7f7a65726f20666565640000000000000000000000000000000000000000000000600082015250565b6000612e6c600983612e25565b9150612e7782612e36565b602082019050919050565b60006020820190508181036000830152612e9b81612e5f565b9050919050565b7f62616420746f0000000000000000000000000000000000000000000000000000600082015250565b6000612ed8600683612e25565b9150612ee382612ea2565b602082019050919050565b60006020820190508181036000830152612f0781612ecb565b9050919050565b7f65786365656473207661756c7400000000000000000000000000000000000000600082015250565b6000612f44600d83612e25565b9150612f4f82612f0e565b602082019050919050565b60006020820190508181036000830152612f7381612f37565b9050919050565b6000612f8582612541565b9150612f9083612541565b9250828203905081811115612fa857612fa7612c68565b5b92915050565b6000608082019050612fc36000830187612659565b612fd06020830186612615565b612fdd6040830185612615565b612fea6060830184612615565b95945050505050565b60006040820190506130086000830185612ac8565b6130156020830184612615565b9392505050565b600069ffffffffffffffffffff82169050919050565b61303b8161301c565b811461304657600080fd5b50565b60008151905061305881613032565b92915050565b613067816129f5565b811461307257600080fd5b50565b6000815190506130848161305e565b92915050565b6000815190506130998161254b565b92915050565b600080600080600060a086880312156130bb576130ba612537565b5b60006130c988828901613049565b95505060206130da88828901613075565b94505060406130eb8882890161308a565b93505060606130fc8882890161308a565b925050608061310d88828901613049565b9150509295509295909350565b7f696e76616c696420707269636500000000000000000000000000000000000000600082015250565b6000613150600d83612e25565b915061315b8261311a565b602082019050919050565b6000602082019050818103600083015261317f81613143565b9050919050565b7f7374616c65207072696365000000000000000000000000000000000000000000600082015250565b60006131bc600b83612e25565b91506131c782613186565b602082019050919050565b600060208201905081810360008301526131eb816131af565b9050919050565b60006060820190506132076000830186612ac8565b6132146020830185612ac8565b6132216040830184612615565b94935050505056fea26469706673582212201e8209121458a8727f7aa3e55cca56cc32aae2cc3360632ee206aa3eeebc426764736f6c63430008180033",
  "linkReferences": {},
  "deployedLinkReferences": {}
}