{
  "_format": "hh-sol-artifact-1",
  "contractName": "IpfsRoundStorage",
  "sourceName": "contracts/IpfsRoundStorage.sol",
  "abi": [
    {
      "inputs": [
        {
          "internalType": "address",
          "name": "initialOwner",
          "type": "address"
        }
      ],
      "stateMutability": "nonpayable",
      "type": "constructor"
    },
    {
      "inputs": [
        {
          "internalType": "address",
          "name": "owner",
          "type": "address"
        }
      ],
      "name": "OwnableInvalidOwner",
      "type": "error"
    },
    {
      "inputs": [
        {
          "internalType": "address",
          "name": "account",
          "type": "address"
        }
      ],
      "name": "OwnableUnauthorizedAccount",
      "type": "error"
    },
    {
      "anonymous": false,
      "inputs": [
        {
          "indexed": true,
          "internalType": "address",
          "name": "previousOwner",
          "type": "address"
        },
        {
          "indexed": true,
          "internalType": "address",
          "name": "newOwner",
          "type": "address"
        }
      ],
      "name": "OwnershipTransferred",
      "type": "event"
    },
    {
      "anonymous": false,
      "inputs": [
        {
          "indexed": true,
          "internalType": "uint256",
          "name": "roundId",
          "type": "uint256"
        },
        {
          "indexed": false,
          "internalType": "string",
          "name": "cid",
          "type": "string"
        }
      ],
      "name": "RoundChartSet",
      "type": "event"
    },
    {
      "anonymous": false,
      "inputs": [
        {
          "indexed": true,
          "internalType": "uint256",
          "name": "roundId",
          "type": "uint256"
        },
        {
          "indexed": false,
          "internalType": "string",
          "name": "cid",
          "type": "string"
        }
      ],
      "name": "RoundReceiptSet",
      "type": "event"
    },
    {
      "anonymous": false,
      "inputs": [
        {
          "indexed": true,
          "internalType": "uint256",
          "name": "roundId",
          "type": "uint256"
        },
        {
          "indexed": false,
          "internalType": "string",
          "name": "cid",
          "type": "string"
        }
      ],
      "name": "RoundReportSet",
      "type": "event"
    },
    {
      "inputs": [
        {
          "internalType": "uint256",
          "name": "roundId",
          "type": "uint256"
        }
      ],
      "name": "getRoundReport",
      "outputs": [
        {
          "internalType": "string",
          "name": "",
          "type": "string"
        }
      ],
      "stateMutability": "view",
      "type": "function"
    },
    {
      "inputs": [],
      "name": "owner",
      "outputs": [
        {
          "internalType": "address",
          "name": "",
          "type": "address"
        }
      ],
      "stateMutability": "view",
      "type": "function"
    },
    {
      "inputs": [],
      "name": "renounceOwnership",
      "outputs": [],
      "stateMutability": "nonpayable",
      "type": "function"
    },
    {
      "inputs": [
        {
          "internalType": "uint256",
          "name": "",
          "type": "uint256"
        }
      ],
      "name": "roundChartCid",
      "outputs": [
        {
          "internalType": "string",
          "name": "",
          "type": "string"
        }
      ],
      "stateMutability": "view",
      "type": "function"
    },
    {
      "inputs": [
        {
          "internalType": "uint256",
          "name": "",
          "type": "uint256"
        }
      ],
      "name": "roundReceiptCid",
      "outputs": [
        {
          "internalType": "string",
          "name": "",
          "type": "string"
        }
      ],
      "stateMutability": "view",
      "type": "function"
    },
    {
      "inputs": [
        {
          "internalType": "uint256",
          "name": "",
          "type": "uint256"
        }
      ],
      "name": "roundReports",
      "outputs": [
        {
          "internalType": "string",
          "name": "",
          "type": "string"
        }
      ],
      "stateMutability": "view",
      "type": "function"
    },
    {
      "inputs": [
        {
          "internalType": "uint256",
          "name": "roundId",
          "type": "uint256"
        },
        {
          "internalType": "string",
          "name": "cid",
          "type": "string"
        }
      ],
      "name": "setRoundChart",
      "outputs": [],
      "stateMutability": "nonpayable",
      "type": "function"
    },
    {
      "inputs": [
        {
          "internalType": "uint256",
          "name": "roundId",
          "type": "uint256"
        },
        {
          "internalType": "string",
          "name": "cid",
          "type": "string"
        }
      ],
      "name": "setRoundReceipt",
      "outputs": [],
      "stateMutability": "nonpayable",
      "type": "function"
    },
    {
      "inputs": [
        {
          "internalType": "uint256",
          "name": "roundId",
          "type": "uint256"
        },
        {
          "internalType": "string",
          "name": "cid",
          "type": "string"
        }
      ],
      "name": "setRoundReport",
      "outputs": [],
      "stateMutability": "nonpayable",
      "type": "function"
    },
    {
      "inputs": [
        {
          "internalType": "address",
          "name": "newOwner",
          "type": "address"
        }
      ],
      "name": "transferOwnership",
      "outputs": [],
      "stateMutability": "nonpayable",
      "type": "function"
    }
  ],
  "bytecode": "0x60806040523480156200001157600080fd5b50604051620011bb380380620011bb8339818101604052810190620000379190620001f4565b80600073ffffffffffffffffffffffffffffffffffffffff168173ffffffffffffffffffffffffffffffffffffffff1603620000ad5760006040517f1e4fbdf7000000000000000000000000000000000000000000000000000000008152600401620000a4919062000237565b60405180910390fd5b620000be81620000c660201b60201c565b505062000254565b60008060009054906101000a900473ffffffffffffffffffffffffffffffffffffffff169050816000806101000a81548173ffffffffffffffffffffffffffffffffffffffff021916908373ffffffffffffffffffffffffffffffffffffffff1602179055508173ffffffffffffffffffffffffffffffffffffffff168173ffffffffffffffffffffffffffffffffffffffff167f8be0079c531659141344cd1fd0a4f28419497f9722a3daafe3b4186f6b6457e060405160405180910390a35050565b600080fd5b600073ffffffffffffffffffffffffffffffffffffffff82169050919050565b6000620001bc826200018f565b9050919050565b620001ce81620001af565b8114620001da57600080fd5b50565b600081519050620001ee81620001c3565b92915050565b6000602082840312156200020d576200020c6200018a565b5b60006200021d84828501620001dd565b91505092915050565b6200023181620001af565b82525050565b60006020820190506200024e600083018462000226565b92915050565b610f5780620002646000396000f3fe608060405234801561001057600080fd5b506004361061009e5760003560e01c80638da5cb5b116100665780638da5cb5b14610145578063bffcab3414610163578063c09b1f0214610193578063df4be782146101c3578063f2fde38b146101df5761009e565b80630f288fe5146100a35780631029031c146100bf57806366aedf1b146100ef578063715018a61461010b5780637b421b4c14610115575b600080fd5b6100bd60048036038101906100b8919061094b565b6101fb565b005b6100d960048036038101906100d491906109ab565b6102ab565b6040516100e69190610a68565b60405180910390f35b6101096004803603810190610104919061094b565b61034b565b005b6101136103fb565b005b61012f600480360381019061012a91906109ab565b61040f565b60405161013c9190610a68565b60405180910390f35b61014d6104b4565b60405161015a9190610acb565b60405180910390f35b61017d600480360381019061017891906109ab565b6104dd565b60405161018a9190610a68565b60405180910390f35b6101ad60048036038101906101a891906109ab565b61057d565b6040516101ba9190610a68565b60405180910390f35b6101dd60048036038101906101d8919061094b565b61061d565b005b6101f960048036038101906101f49190610b12565b6106cd565b005b610203610753565b60008282905011610249576040517f08c379a000000000000000000000000000000000000000000000000000000000815260040161024090610b8b565b60405180910390fd5b818160036000868152602001908152602001600020918261026b929190610df1565b50827fb27d31df1e19933e50a2ec8156e28b769e368da366222e0f6d7a901f2f881cde838360405161029e929190610efd565b60405180910390a2505050565b600360205280600052604060002060009150905080546102ca90610c14565b80601f01602080910402602001604051908101604052809291908181526020018280546102f690610c14565b80156103435780601f1061031857610100808354040283529160200191610343565b820191906000526020600020905b81548152906001019060200180831161032657829003601f168201915b505050505081565b610353610753565b60008282905011610399576040517f08c379a000000000000000000000000000000000000000000000000000000000815260040161039090610b8b565b60405180910390fd5b81816002600086815260200190815260200160002091826103bb929190610df1565b50827fc9b3d354ffef65fc7ebb256855193d04a4e87451a27208fa3484fe763d31fc8783836040516103ee929190610efd565b60405180910390a2505050565b610403610753565b61040d60006107da565b565b606060016000838152602001908152602001600020805461042f90610c14565b80601f016020809104026020016040519081016040528092919081815260200182805461045b90610c14565b80156104a85780601f1061047d576101008083540402835291602001916104a8565b820191906000526020600020905b81548152906001019060200180831161048b57829003601f168201915b50505050509050919050565b60008060009054906101000a900473ffffffffffffffffffffffffffffffffffffffff16905090565b600160205280600052604060002060009150905080546104fc90610c14565b80601f016020809104026020016040519081016040528092919081815260200182805461052890610c14565b80156105755780601f1061054a57610100808354040283529160200191610575565b820191906000526020600020905b81548152906001019060200180831161055857829003601f168201915b505050505081565b6002602052806000526040600020600091509050805461059c90610c14565b80601f01602080910402602001604051908101604052809291908181526020018280546105c890610c14565b80156106155780601f106105ea57610100808354040283529160200191610615565b820191906000526020600020905b8154815290600101906020018083116105f857829003601f168201915b505050505081565b610625610753565b6000828290501161066b576040517f08c379a000000000000000000000000000000000000000000000000000000000815260040161066290610b8b565b60405180910390fd5b818160016000868152602001908152602001600020918261068d929190610df1565b50827fca69fda881bdea6313452b86037e49e260ab62533aaedb40ba31bc1a847fc87983836040516106c0929190610efd565b60405180910390a2505050565b6106d5610753565b600073ffffffffffffffffffffffffffffffffffffffff168173ffffffffffffffffffffffffffffffffffffffff16036107475760006040517f1e4fbdf700000000000000000000000000000000000000000000000000000000815260040161073e9190610acb565b60405180910390fd5b610750816107da565b50565b61075b61089e565b73ffffffffffffffffffffffffffffffffffffffff166107796104b4565b73ffffffffffffffffffffffffffffffffffffffff16146107d85761079c61089e565b6040517f118cdaa70000000000000000000000000000000000000000000000000000000081526004016107cf9190610acb565b60405180910390fd5b565b60008060009054906101000a900473ffffffffffffffffffffffffffffffffffffffff169050816000806101000a81548173ffffffffffffffffffffffffffffffffffffffff021916908373ffffffffffffffffffffffffffffffffffffffff1602179055508173ffffffffffffffffffffffffffffffffffffffff168173ffffffffffffffffffffffffffffffffffffffff167f8be0079c531659141344cd1fd0a4f28419497f9722a3daafe3b4186f6b6457e060405160405180910390a35050565b600033905090565b600080fd5b600080fd5b6000819050919050565b6108c3816108b0565b81146108ce57600080fd5b50565b6000813590506108e0816108ba565b92915050565b600080fd5b600080fd5b600080fd5b60008083601f84011261090b5761090a6108e6565b5b8235905067ffffffffffffffff811115610928576109276108eb565b5b602083019150836001820283011115610944576109436108f0565b5b9250929050565b600080600060408486031215610964576109636108a6565b5b6000610972868287016108d1565b935050602084013567ffffffffffffffff811115610993576109926108ab565b5b61099f868287016108f5565b92509250509250925092565b6000602082840312156109c1576109c06108a6565b5b60006109cf848285016108d1565b91505092915050565b600081519050919050565b600082825260208201905092915050565b60005b83811015610a125780820151818401526020810190506109f7565b60008484015250505050565b6000601f19601f8301169050919050565b6000610a3a826109d8565b610a4481856109e3565b9350610a548185602086016109f4565b610a5d81610a1e565b840191505092915050565b60006020820190508181036000830152610a828184610a2f565b905092915050565b600073ffffffffffffffffffffffffffffffffffffffff82169050919050565b6000610ab582610a8a565b9050919050565b610ac581610aaa565b82525050565b6000602082019050610ae06000830184610abc565b92915050565b610aef81610aaa565b8114610afa57600080fd5b50565b600081359050610b0c81610ae6565b92915050565b600060208284031215610b2857610b276108a6565b5b6000610b3684828501610afd565b91505092915050565b7f656d707479206369640000000000000000000000000000000000000000000000600082015250565b6000610b756009836109e3565b9150610b8082610b3f565b602082019050919050565b60006020820190508181036000830152610ba481610b68565b9050919050565b600082905092915050565b7f4e487b7100000000000000000000000000000000000000000000000000000000600052604160045260246000fd5b7f4e487b7100000000000000000000000000000000000000000000000000000000600052602260045260246000fd5b60006002820490506001821680610c2c57607f821691505b602082108103610c3f57610c3e610be5565b5b50919050565b60008190508160005260206000209050919050565b60006020601f8301049050919050565b600082821b905092915050565b600060088302610ca77fffffffffffffffffffffffffffffffffffffffffffffffffffffffffffffffff82610c6a565b610cb18683610c6a565b95508019841693508086168417925050509392505050565b6000819050919050565b6000610cee610ce9610ce4846108b0565b610cc9565b6108b0565b9050919050565b6000819050919050565b610d0883610cd3565b610d1c610d1482610cf5565b848454610c77565b825550505050565b600090565b610d31610d24565b610d3c818484610cff565b505050565b5b81811015610d6057610d55600082610d29565b600181019050610d42565b5050565b601f821115610da557610d7681610c45565b610d7f84610c5a565b81016020851015610d8e578190505b610da2610d9a85610c5a565b830182610d41565b50505b505050565b600082821c905092915050565b6000610dc860001984600802610daa565b1980831691505092915050565b6000610de18383610db7565b9150826002028217905092915050565b610dfb8383610bab565b67ffffffffffffffff811115610e1457610e13610bb6565b5b610e1e8254610c14565b610e29828285610d64565b6000601f831160018114610e585760008415610e46578287013590505b610e508582610dd5565b865550610eb8565b601f198416610e6686610c45565b60005b82811015610e8e57848901358255600182019150602085019450602081019050610e69565b86831015610eab5784890135610ea7601f891682610db7565b8355505b6001600288020188555050505b50505050505050565b82818337600083830152505050565b6000610edc83856109e3565b9350610ee9838584610ec1565b610ef283610a1e565b840190509392505050565b60006020820190508181036000830152610f18818486610ed0565b9050939250505056fea2646970667358221220613c198d29d8771d441dd4851712989a63cfcba828be60802cc7eefabfa5116964736f6c63430008180033",
  "linkReferences": {},
  "deployedLinkReferences": {}
}