{"contracts/BetHouse.sol":{"BetHouse":{"abi":[{"inputs":[{"internalType":"address","name":"_collateral","type":"address"},{"internalType":"address","name":"_owner","type":"address"}],"stateMutability":"nonpayable","type":"constructor"},{"inputs":[],"name":"ErrActiveRound","type":"error"},{"inputs":[],"name":"ErrAlreadyClaimed","type":"error"},{"inputs":[],"name":"ErrBadMarket","type":"error"},{"inputs":[],"name":"ErrBadRound","type":"error"},{"inputs":[],"name":"ErrNoActive","type":"error"},{"inputs":[],"name":"ErrNoWin","type":"error"},{"inputs":[],"name":"ErrNotResolved","type":"error"},{"inputs":[],"name":"ErrTooEarly","type":"error"},{"inputs":[],"name":"ErrTooLate","type":"error"},{"inputs":[],"name":"ErrZero","type":"error"},{"inputs":[{"internalType":"address","name":"owner","type":"address"}],"name":"OwnableInvalidOwner","type":"error"},{"inputs":[{"internalType":"address","name":"account","type":"address"}],"name":"OwnableUnauthorizedAccount","type":"error"},{"inputs":[],"name":"ReentrancyGuardReentrantCall","type":"error"},{"inputs":[{"internalType":"address","name":"token","type":"address"}],"name":"SafeERC20FailedOperation","type":"error"},{"anonymous":false,"inputs":[{"indexed":true,"internalType":"address","name":"user","type":"address"},{"indexed":true,"internalType":"uint256","name":"id","type":"uint256"},{"indexed":false,"internalType":"bool","name":"isYes","type":"bool"},{"indexed":false,"internalType":"uint256","name":"gross","type":"uint256"},{"indexed":false,"internalType":"uint256","name":"net","type":"uint256"},{"indexed":false,"internalType":"uint256","name":"fee","type":"uint256"}],"name":"BetPlaced","type":"event"},{"anonymous":false,"inputs":[{"indexed":true,"internalType":"address","name":"user","type":"address"},{"indexed":true,"internalType":"uint256","name":"id","type":"uint256"},{"indexed":false,"internalType":"uint256","name":"payout","type":"uint256"}],"name":"Claimed","type":"event"},{"anonymous":false,"inputs":[{"indexed":true,"internalType":"address","name":"to","type":"address"},{"indexed":false,"internalType":"uint256","name":"amount","type":"uint256"}],"name":"FeesWithdrawn","type":"event"},{"anonymous":false,"inputs":[{"indexed":true,"internalType":"bytes32","name":"id","type":"bytes32"},{"indexed":false,"internalType":"address","name":"feed","type":"address"}],"name":"MarketAdded","type":"event"},{"anonymous":false,"inputs":[{"indexed":true,"internalType":"bytes32","name":"id","type":"bytes32"},{"indexed":false,"internalType":"bool","name":"enabled","type":"bool"}],"name":"MarketStatusChanged","type":"event"},{"anonymous":false,"inputs":[{"indexed":true,"internalType":"address","name":"previousOwner","type":"address"},{"indexed":true,"internalType":"address","name":"newOwner","type":"address"}],"name":"OwnershipTransferred","type":"event"},{"anonymous":false,"inputs":[{"indexed":true,"internalType":"address","name":"user","type":"address"},{"indexed":true,"internalType":"uint256","name":"id","type":"uint256"},{"indexed":false,"internalType":"uint256","name":"amount","type":"uint256"}],"name":"Refunded","type":"event"},{"anonymous":false,"inputs":[{"indexed":true,"internalType":"uint256","name":"id","type":"uint256"},{"indexed":false,"internalType":"bool","name":"refundMode","type":"bool"},{"indexed":false,"internalType":"bool","name":"outcomeYes","type":"bool"},{"indexed":false,"internalType":"int256","name":"priceStart","type":"int256"},{"indexed":false,"internalType":"int256","name":"priceEnd","type":"int256"}],"name":"RoundResolved","type":"event"},{"anonymous":false,"inputs":[{"indexed":true,"internalType":"uint256","name":"id","type":"uint256"},{"indexed":true,"internalType":"bytes32","name":"marketId","type":"bytes32"},{"indexed":false,"internalType":"uint64","name":"startTime","type":"uint64"},{"indexed":false,"internalType":"uint64","name":"endTime","type":"uint64"},{"indexed":false,"internalType":"int256","name":"priceStart","type":"int256"}],"name":"RoundStarted","type":"event"},{"inputs":[],"name":"BET_WINDOW_SECONDS","outputs":[{"internalType":"uint64","name":"","type":"uint64"}],"stateMutability":"view","type":"function"},{"inputs":[],"name":"FEE_BET_BPS","outputs":[{"internalType":"uint16","name":"","type":"uint16"}],"stateMutability":"view","type":"function"},{"inputs":[],"name":"ROUND_SECONDS","outputs":[{"internalType":"uint64","name":"","type":"uint64"}],"stateMutability":"view","type":"function"},{"inputs":[{"internalType":"bytes32","name":"id","type":"bytes32"},{"internalType":"address","name":"feed","type":"address"}],"name":"addMarket","outputs":[],"stateMutability":"nonpayable","type":"function"},{"inputs":[{"internalType":"uint256","name":"id","type":"uint256"},{"internalType":"uint256","name":"amount","type":"uint256"}],"name":"betNo","outputs":[],"stateMutability":"nonpayable","type":"function"},{"inputs":[{"internalType":"uint256","name":"id","type":"uint256"},{"internalType":"uint256","name":"amount","type":"uint256"}],"name":"betYes","outputs":[],"stateMutability":"nonpayable","type":"function"},{"inputs":[{"internalType":"uint256","name":"","type":"uint256"},{"internalType":"address","name":"","type":"address"}],"name":"betsNo","outputs":[{"internalType":"uint256","name":"gross","type":"uint256"},{"internalType":"uint256","name":"net","type":"uint256"}],"stateMutability":"view","type":"function"},{"inputs":[{"internalType":"uint256","name":"","type":"uint256"},{"internalType":"address","name":"","type":"address"}],"name":"betsYes","outputs":[{"internalType":"uint256","name":"gross","type":"uint256"},{"internalType":"uint256","name":"net","type":"uint256"}],"stateMutability":"view","type":"function"},{"inputs":[{"internalType":"bytes","name":"","type":"bytes"}],"name":"checkUpkeep","outputs":[{"internalType":"bool","name":"upkeepNeeded","type":"bool"},{"internalType":"bytes","name":"performData","type":"bytes"}],"stateMutability":"nonpayable","type":"function"},{"inputs":[{"internalType":"uint256","name":"id","type":"uint256"}],"name":"claim","outputs":[],"stateMutability":"nonpayable","type":"function"},{"inputs":[{"internalType":"uint256","name":"","type":"uint256"},{"internalType":"address","name":"","type":"address"}],"name":"claimed","outputs":[{"internalType":"bool","name":"","type":"bool"}],"stateMutability":"view","type":"function"},{"inputs":[],"name":"collateral","outputs":[{"internalType":"contract IERC20","name":"","type":"address"}],"stateMutability":"view","type":"function"},{"inputs":[],"name":"currentRoundId","outputs":[{"internalType":"uint256","name":"","type":"uint256"}],"stateMutability":"view","type":"function"},{"inputs":[{"internalType":"uint256","name":"id","type":"uint256"}],"name":"endRound","outputs":[],"stateMutability":"nonpayable","type":"function"},{"inputs":[],"name":"feeVault","outputs":[{"internalType":"uint256","name":"","type":"uint256"}],"stateMutability":"view","type":"function"},{"inputs":[{"internalType":"bytes32","name":"id","type":"bytes32"}],"name":"getMarket","outputs":[{"internalType":"address","name":"feed","type":"address"},{"internalType":"bool","name":"enabled","type":"bool"}],"stateMutability":"view","type":"function"},{"inputs":[{"internalType":"bytes32","name":"","type":"bytes32"}],"name":"markets","outputs":[{"internalType":"contract AggregatorV3Interface","name":"feed","type":"address"},{"internalType":"bool","name":"enabled","type":"bool"}],"stateMutability":"view","type":"function"},{"inputs":[],"name":"owner","outputs":[{"internalType":"address","name":"","type":"address"}],"stateMutability":"view","type":"function"},{"inputs":[{"internalType":"bytes","name":"performData","type":"bytes"}],"name":"performUpkeep","outputs":[],"stateMutability":"nonpayable","type":"function"},{"inputs":[{"internalType":"uint256","name":"id","type":"uint256"}],"name":"refund","outputs":[],"stateMutability":"nonpayable","type":"function"},{"inputs":[],"name":"renounceOwnership","outputs":[],"stateMutability":"nonpayable","type":"function"},{"inputs":[{"internalType":"uint256","name":"","type":"uint256"}],"name":"rounds","outputs":[{"internalType":"uint64","name":"startTime","type":"uint64"},{"internalType":"uint64","name":"endTime","type":"uint64"},{"internalType":"bool","name":"active","type":"bool"},{"internalType":"bool","name":"resolved","type":"bool"},{"internalType":"bool","name":"outcomeYes","type":"bool"},{"internalType":"bool","name":"refundMode","type":"bool"},{"internalType":"uint256","name":"totalYesNet","type":"uint256"},{"internalType":"uint256","name":"totalNoNet","type":"uint256"},{"internalType":"uint256","name":"feeAccrued","type":"uint256"},{"internalType":"bytes32","name":"marketId","type":"bytes32"},{"internalType":"int256","name":"priceStart","type":"int256"},{"internalType":"int256","name":"priceEnd","type":"int256"}],"stateMutability":"view","type":"function"},{"inputs":[{"internalType":"bytes32","name":"id","type":"bytes32"},{"internalType":"bool","name":"enabled","type":"bool"}],"name":"setMarketEnabled","outputs":[],"stateMutability":"nonpayable","type":"function"},{"inputs":[{"internalType":"bytes32","name":"marketId","type":"bytes32"}],"name":"startRound","outputs":[],"stateMutability":"nonpayable","type":"function"},{"inputs":[{"internalType":"address","name":"newOwner","type":"address"}],"name":"transferOwnership","outputs":[],"stateMutability":"nonpayable","type":"function"},{"inputs":[{"internalType":"address","name":"to","type":"address"},{"internalType":"uint256","name":"amount","type":"uint256"}],"name":"withdrawFees","outputs":[],"stateMutability":"nonpayable","type":"function"}],"evm":{"bytecode":{"linkReferences":{},"object":"60a06040523480156200001157600080fd5b5060405162003631380380620036318339818101604052810190620000379190620002a2565b80600073ffffffffffffffffffffffffffffffffffffffff168173ffffffffffffffffffffffffffffffffffffffff1603620000ad5760006040517f1e4fbdf7000000000000000000000000000000000000000000000000000000008152600401620000a49190620002fa565b60405180910390fd5b620000be816200017460201b60201c565b5060018081905550600073ffffffffffffffffffffffffffffffffffffffff168273ffffffffffffffffffffffffffffffffffffffff160362000138576040517f08c379a00000000000000000000000000000000000000000000000000000000081526004016200012f9062000378565b60405180910390fd5b8173ffffffffffffffffffffffffffffffffffffffff1660808173ffffffffffffffffffffffffffffffffffffffff168152505050506200039a565b60008060009054906101000a900473ffffffffffffffffffffffffffffffffffffffff169050816000806101000a81548173ffffffffffffffffffffffffffffffffffffffff021916908373ffffffffffffffffffffffffffffffffffffffff1602179055508173ffffffffffffffffffffffffffffffffffffffff168173ffffffffffffffffffffffffffffffffffffffff167f8be0079c531659141344cd1fd0a4f28419497f9722a3daafe3b4186f6b6457e060405160405180910390a35050565b600080fd5b600073ffffffffffffffffffffffffffffffffffffffff82169050919050565b60006200026a826200023d565b9050919050565b6200027c816200025d565b81146200028857600080fd5b50565b6000815190506200029c8162000271565b92915050565b60008060408385031215620002bc57620002bb62000238565b5b6000620002cc858286016200028b565b9250506020620002df858286016200028b565b9150509250929050565b620002f4816200025d565b82525050565b6000602082019050620003116000830184620002e9565b92915050565b600082825260208201905092915050565b7f7a65726f20636f6c6c61746572616c0000000000000000000000000000000000600082015250565b600062000360600f8362000317565b91506200036d8262000328565b602082019050919050565b60006020820190508181036000830152620003938162000351565b9050919050565b60805161325f620003d26000396000818161087a01528181611022015281816119e201528181611be40152611e36015261325f6000f3fe608060405234801561001057600080fd5b506004361061018e5760003560e01c8063715018a6116100de5780639cbe5efd11610097578063c2ccddec11610071578063c2ccddec1461047a578063c3c95c7b14610498578063d8dfeb45146104c9578063f2fde38b146104e75761018e565b80639cbe5efd14610424578063ad3b1b4714610442578063b9fb99221461045e5761018e565b8063715018a6146103545780637564912b1461035e5780638b3e04761461038f5780638c65c81f146103ad5780638da5cb5b146103e857806390cc9a11146104065761018e565b8063379607f51161014b578063478222c211610125578063478222c2146102cd5780635a1e6ca1146102eb57806365c0084c146103075780636e04ff0d146103235761018e565b8063379607f514610264578063442cd555146102805780634585e33b146102b15761018e565b80630939fc8314610193578063120aa877146101c4578063174a5d32146101f457806322a18d4214610210578063278ecde11461022c5780633740488514610248575b600080fd5b6101ad60048036038101906101a891906125d5565b610503565b6040516101bb929190612624565b60405180910390f35b6101de60048036038101906101d991906125d5565b610534565b6040516101eb9190612668565b60405180910390f35b61020e60048036038101906102099190612683565b610563565b005b61022a60048036038101906102259190612683565b610583565b005b610246600480360381019061024191906126c3565b6105a3565b005b610262600480360381019061025d9190612726565b61091c565b005b61027e600480360381019061027991906126c3565b610cf9565b005b61029a600480360381019061029591906125d5565b6110c6565b6040516102a8929190612624565b60405180910390f35b6102cb60048036038101906102c691906127b8565b6110f7565b005b6102d5611118565b6040516102e29190612805565b60405180910390f35b610305600480360381019061030091906126c3565b61111e565b005b610321600480360381019061031c9190612820565b6114e0565b005b61033d600480360381019061033891906127b8565b61163e565b60405161034b9291906128f0565b60405180910390f35b61035c6117a4565b005b61037860048036038101906103739190612726565b6117b8565b60405161038692919061297f565b60405180910390f35b610397611809565b6040516103a491906129cb565b60405180910390f35b6103c760048036038101906103c291906126c3565b61180e565b6040516103df9c9b9a99989796959493929190612a0e565b60405180910390f35b6103f06118ca565b6040516103fd9190612ad7565b60405180910390f35b61040e6118f3565b60405161041b9190612b0f565b60405180910390f35b61042c6118f8565b6040516104399190612805565b60405180910390f35b61045c60048036038101906104579190612b2a565b6118fe565b005b61047860048036038101906104739190612b96565b611a80565b005b610482611b82565b60405161048f91906129cb565b60405180910390f35b6104b260048036038101906104ad9190612726565b611b87565b6040516104c0929190612bd6565b60405180910390f35b6104d1611be2565b6040516104de9190612c20565b60405180910390f35b61050160048036038101906104fc9190612c3b565b611c06565b005b6005602052816000526040600020602052806000526040600020600091509150508060000154908060010154905082565b60076020528160005260406000206020528060005260406000206000915091509054906101000a900460ff1681565b61056b611c8c565b61057782826001611cd2565b61057f61204d565b5050565b61058b611c8c565b61059782826000611cd2565b61059f61204d565b5050565b6105ab611c8c565b60006004600083815260200190815260200160002090508060000160119054906101000a900460ff1661060a576040517f1599198500000000000000000000000000000000000000000000000000000000815260040160405180910390fd5b8060000160139054906101000a900460ff16610652576040517f5f1aa4c900000000000000000000000000000000000000000000000000000000815260040160405180910390fd5b6007600083815260200190815260200160002060003373ffffffffffffffffffffffffffffffffffffffff1673ffffffffffffffffffffffffffffffffffffffff16815260200190815260200160002060009054906101000a900460ff16156106e7576040517fe4f5bd5900000000000000000000000000000000000000000000000000000000815260040160405180910390fd5b60006005600084815260200190815260200160002060003373ffffffffffffffffffffffffffffffffffffffff1673ffffffffffffffffffffffffffffffffffffffff168152602001908152602001600020905060006006600085815260200190815260200160002060003373ffffffffffffffffffffffffffffffffffffffff1673ffffffffffffffffffffffffffffffffffffffff1681526020019081526020016000209050600082600001549050600081036107a857816000015490505b600081036107e2576040517f95e3a2c300000000000000000000000000000000000000000000000000000000815260040160405180910390fd5b6000836000018190555060008360010181905550600082600001819055506000826001018190555060016007600087815260200190815260200160002060003373ffffffffffffffffffffffffffffffffffffffff1673ffffffffffffffffffffffffffffffffffffffff16815260200190815260200160002060006101000a81548160ff0219169083151502179055506108be33827f000000000000000000000000000000000000000000000000000000000000000073ffffffffffffffffffffffffffffffffffffffff166120569092919063ffffffff16565b843373ffffffffffffffffffffffffffffffffffffffff167f2dc8e290002f06fc0085bbca9dfb8b415cf4d1178950c72ff9ee8f4d8878ee66836040516109059190612805565b60405180910390a35050505061091961204d565b50565b6109246120d5565b60006002600083815260200190815260200160002090508060000160149054906101000a900460ff1615806109a95750600073ffffffffffffffffffffffffffffffffffffffff168160000160009054906101000a900473ffffffffffffffffffffffffffffffffffffffff1673ffffffffffffffffffffffffffffffffffffffff16145b156109e0576040517f6b7cd6e900000000000000000000000000000000000000000000000000000000815260040160405180910390fd5b600060035414610a7b57600060046000600354815260200190815260200160002090508060000160109054906101000a900460ff168015610a4257508060000160089054906101000a900467ffffffffffffffff1667ffffffffffffffff1642105b15610a79576040517fe45e13fe00000000000000000000000000000000000000000000000000000000815260040160405180910390fd5b505b6000610a868361215c565b905060006001600354610a999190612c97565b9050806003819055506040518061018001604052804267ffffffffffffffff168152602001606467ffffffffffffffff1642610ad59190612c97565b67ffffffffffffffff16815260200160011515815260200160001515815260200160001515815260200160001515815260200160008152602001600081526020016000815260200185815260200183815260200160008152506004600083815260200190815260200160002060008201518160000160006101000a81548167ffffffffffffffff021916908367ffffffffffffffff16021790555060208201518160000160086101000a81548167ffffffffffffffff021916908367ffffffffffffffff16021790555060408201518160000160106101000a81548160ff02191690831515021790555060608201518160000160116101000a81548160ff02191690831515021790555060808201518160000160126101000a81548160ff02191690831515021790555060a08201518160000160136101000a81548160ff02191690831515021790555060c0820151816001015560e08201518160020155610100820151816003015561012082015181600401556101408201518160050155610160820151816006015590505083817f08842ea7ddcd5a123dc6980f1aa29a46b976f8c389e0aafcde65e57fea46ee9b6004600085815260200190815260200160002060000160009054906101000a900467ffffffffffffffff166004600086815260200190815260200160002060000160089054906101000a900467ffffffffffffffff1686604051610ceb93929190612ccb565b60405180910390a350505050565b610d01611c8c565b60006004600083815260200190815260200160002090508060000160119054906101000a900460ff16610d60576040517f1599198500000000000000000000000000000000000000000000000000000000815260040160405180910390fd5b8060000160139054906101000a900460ff1615610da9576040517f5f1aa4c900000000000000000000000000000000000000000000000000000000815260040160405180910390fd5b6007600083815260200190815260200160002060003373ffffffffffffffffffffffffffffffffffffffff1673ffffffffffffffffffffffffffffffffffffffff16815260200190815260200160002060009054906101000a900460ff1615610e3e576040517fe4f5bd5900000000000000000000000000000000000000000000000000000000815260040160405180910390fd5b60008160000160129054906101000a900460ff16610eab576006600084815260200190815260200160002060003373ffffffffffffffffffffffffffffffffffffffff1673ffffffffffffffffffffffffffffffffffffffff168152602001908152602001600020610efc565b6005600084815260200190815260200160002060003373ffffffffffffffffffffffffffffffffffffffff1673ffffffffffffffffffffffffffffffffffffffff1681526020019081526020016000205b905060008160010154905060008103610f41576040517f95e3a2c300000000000000000000000000000000000000000000000000000000815260040160405180910390fd5b60008360000160129054906101000a900460ff16610f63578360020154610f69565b83600101545b9050600084600201548560010154610f819190612c97565b9050600084600101819055506000846000018190555060016007600088815260200190815260200160002060003373ffffffffffffffffffffffffffffffffffffffff1673ffffffffffffffffffffffffffffffffffffffff16815260200190815260200160002060006101000a81548160ff021916908315150217905550600082848361100f9190612d02565b6110199190612d73565b905061106633827f000000000000000000000000000000000000000000000000000000000000000073ffffffffffffffffffffffffffffffffffffffff166120569092919063ffffffff16565b863373ffffffffffffffffffffffffffffffffffffffff167f987d620f307ff6b94d58743cb7a7509f24071586a77759b77c2d4e29f75a2f9a836040516110ad9190612805565b60405180910390a35050505050506110c361204d565b50565b6006602052816000526040600020602052806000526040600020600091509150508060000154908060010154905082565b6000828281019061110891906126c3565b90506111138161111e565b505050565b60085481565b600081148061112e575060035481115b15611165576040517f5f1aa4c900000000000000000000000000000000000000000000000000000000815260040160405180910390fd5b60006004600083815260200190815260200160002090508060000160109054906101000a900460ff166111c4576040517f4a33385d00000000000000000000000000000000000000000000000000000000815260040160405180910390fd5b8060000160119054906101000a900460ff161561120d576040517f5f1aa4c900000000000000000000000000000000000000000000000000000000815260040160405180910390fd5b600080826001015411905060008083600201541190506000603c8460000160009054906101000a900467ffffffffffffffff1661124a9190612da4565b90508280156112565750815b156113b8578360000160089054906101000a900467ffffffffffffffff1667ffffffffffffffff164210156112b7576040517ff6b24b3c00000000000000000000000000000000000000000000000000000000815260040160405180910390fd5b60006112c6856004015461215c565b905080856006018190555060008560000160106101000a81548160ff02191690831515021790555060018560000160116101000a81548160ff021916908315150217905550846005015481036113555760018560000160136101000a81548160ff02191690831515021790555060008560000160126101000a81548160ff0219169083151502179055506113b2565b60008560000160136101000a81548160ff021916908315150217905550846005015481138560000160126101000a81548160ff0219169083151502179055508460030154600860008282546113aa9190612c97565b925050819055505b50611471565b8067ffffffffffffffff164210156113fc576040517ff6b24b3c00000000000000000000000000000000000000000000000000000000815260040160405180910390fd5b60008460000160106101000a81548160ff02191690831515021790555060018460000160116101000a81548160ff02191690831515021790555060018460000160136101000a81548160ff02191690831515021790555060008460000160126101000a81548160ff0219169083151502179055505b847f69331d80f7b8f74feffba6031b46632ada6cd5297fa1ffd2afbfd350394510ff8560000160139054906101000a900460ff168660000160129054906101000a900460ff16876005015488600601546040516114d19493929190612de0565b60405180910390a25050505050565b6114e86120d5565b600073ffffffffffffffffffffffffffffffffffffffff168173ffffffffffffffffffffffffffffffffffffffff1603611557576040517f08c379a000000000000000000000000000000000000000000000000000000000815260040161154e90612e82565b60405180910390fd5b60405180604001604052808273ffffffffffffffffffffffffffffffffffffffff168152602001600115158152506002600084815260200190815260200160002060008201518160000160006101000a81548173ffffffffffffffffffffffffffffffffffffffff021916908373ffffffffffffffffffffffffffffffffffffffff16021790555060208201518160000160146101000a81548160ff021916908315150217905550905050817f3ca3906a1acc14aee692a58b74ea4d433d5b33625fc29e6f1cfbac4df9ee7f1e826040516116329190612ad7565b60405180910390a25050565b60006060600060035490506000810361166d57600060405180602001604052806000815250925092505061179d565b60006004600083815260200190815260200160002090508060000160109054906101000a900460ff1615806116b057508060000160119054906101000a900460ff165b156116d25760006040518060200160405280600081525093509350505061179d565b600080826001015411905060008083600201541190506000603c8460000160009054906101000a900467ffffffffffffffff1661170f9190612da4565b9050600083801561171d5750825b6117275781611741565b8460000160089054906101000a900467ffffffffffffffff165b90508067ffffffffffffffff16421061177f5760019750856040516020016117699190612805565b6040516020818303038152906040529650611796565b600097506040518060200160405280600081525096505b5050505050505b9250929050565b6117ac6120d5565b6117b66000612347565b565b60026020528060005260406000206000915090508060000160009054906101000a900473ffffffffffffffffffffffffffffffffffffffff16908060000160149054906101000a900460ff16905082565b606481565b60046020528060005260406000206000915090508060000160009054906101000a900467ffffffffffffffff16908060000160089054906101000a900467ffffffffffffffff16908060000160109054906101000a900460ff16908060000160119054906101000a900460ff16908060000160129054906101000a900460ff16908060000160139054906101000a900460ff1690806001015490806002015490806003015490806004015490806005015490806006015490508c565b60008060009054906101000a900473ffffffffffffffffffffffffffffffffffffffff16905090565b60c881565b60035481565b6119066120d5565b61190e611c8c565b600073ffffffffffffffffffffffffffffffffffffffff168273ffffffffffffffffffffffffffffffffffffffff160361197d576040517f08c379a000000000000000000000000000000000000000000000000000000000815260040161197490612eee565b60405180910390fd5b6008548111156119c2576040517f08c379a00000000000000000000000000000000000000000000000000000000081526004016119b990612f5a565b60405180910390fd5b80600860008282546119d49190612f7a565b92505081905550611a2682827f000000000000000000000000000000000000000000000000000000000000000073ffffffffffffffffffffffffffffffffffffffff166120569092919063ffffffff16565b8173ffffffffffffffffffffffffffffffffffffffff167fc0819c13be868895eb93e40eaceb96de976442fa1d404e5c55f14bb65a8c489a82604051611a6c9190612805565b60405180910390a2611a7c61204d565b5050565b611a886120d5565b6000600260008481526020019081526020016000209050600073ffffffffffffffffffffffffffffffffffffffff168160000160009054906101000a900473ffffffffffffffffffffffffffffffffffffffff1673ffffffffffffffffffffffffffffffffffffffff1603611b29576040517f6b7cd6e900000000000000000000000000000000000000000000000000000000815260040160405180910390fd5b818160000160146101000a81548160ff021916908315150217905550827ff74802a5f03ef3b60653fc5ef30996c42340c6f63ad2a625f0f7d4f996b28f3583604051611b759190612668565b60405180910390a2505050565b603c81565b60008060006002600085815260200190815260200160002090508060000160009054906101000a900473ffffffffffffffffffffffffffffffffffffffff168160000160149054906101000a900460ff169250925050915091565b7f000000000000000000000000000000000000000000000000000000000000000081565b611c0e6120d5565b600073ffffffffffffffffffffffffffffffffffffffff168173ffffffffffffffffffffffffffffffffffffffff1603611c805760006040517f1e4fbdf7000000000000000000000000000000000000000000000000000000008152600401611c779190612ad7565b60405180910390fd5b611c8981612347565b50565b600260015403611cc8576040517f3ee5aeb500000000000000000000000000000000000000000000000000000000815260040160405180910390fd5b6002600181905550565b60008203611d0c576040517fc5a7fa0600000000000000000000000000000000000000000000000000000000815260040160405180910390fd5b60006004600085815260200190815260200160002090508060000160109054906101000a900460ff16611d6b576040517f4a33385d00000000000000000000000000000000000000000000000000000000815260040160405180910390fd5b8060000160089054906101000a900467ffffffffffffffff1667ffffffffffffffff164210611dc6576040517f32d93bde00000000000000000000000000000000000000000000000000000000815260040160405180910390fd5b603c8160000160009054906101000a900467ffffffffffffffff16611deb9190612da4565b67ffffffffffffffff16421115611e2e576040517f32d93bde00000000000000000000000000000000000000000000000000000000815260040160405180910390fd5b611e7b3330857f000000000000000000000000000000000000000000000000000000000000000073ffffffffffffffffffffffffffffffffffffffff1661240b909392919063ffffffff16565b600061271060c861ffff1685611e919190612d02565b611e9b9190612d73565b905060008185611eab9190612f7a565b905081836003016000828254611ec19190612c97565b92505081905550600084611f24576006600088815260200190815260200160002060003373ffffffffffffffffffffffffffffffffffffffff1673ffffffffffffffffffffffffffffffffffffffff168152602001908152602001600020611f75565b6005600088815260200190815260200160002060003373ffffffffffffffffffffffffffffffffffffffff1673ffffffffffffffffffffffffffffffffffffffff1681526020019081526020016000205b905085816000016000828254611f8b9190612c97565b9250508190555081816001016000828254611fa69190612c97565b925050819055508415611fd35781846001016000828254611fc79190612c97565b92505081905550611fef565b81846002016000828254611fe79190612c97565b925050819055505b863373ffffffffffffffffffffffffffffffffffffffff167f7c142620a415bccf516d2845693ba87d21ac09a7fd5b596fc96e46c917d034ac8789868860405161203c9493929190612fae565b60405180910390a350505050505050565b60018081905550565b6120d0838473ffffffffffffffffffffffffffffffffffffffff1663a9059cbb8585604051602401612089929190612ff3565b604051602081830303815290604052915060e01b6020820180517bffffffffffffffffffffffffffffffffffffffffffffffffffffffff838183161783525050505061248d565b505050565b6120dd61252f565b73ffffffffffffffffffffffffffffffffffffffff166120fb6118ca565b73ffffffffffffffffffffffffffffffffffffffff161461215a5761211e61252f565b6040517f118cdaa70000000000000000000000000000000000000000000000000000000081526004016121519190612ad7565b60405180910390fd5b565b6000806002600084815260200190815260200160002090508060000160149054906101000a900460ff1615806121e25750600073ffffffffffffffffffffffffffffffffffffffff168160000160009054906101000a900473ffffffffffffffffffffffffffffffffffffffff1673ffffffffffffffffffffffffffffffffffffffff16145b15612219576040517f6b7cd6e900000000000000000000000000000000000000000000000000000000815260040160405180910390fd5b6000808260000160009054906101000a900473ffffffffffffffffffffffffffffffffffffffff1673ffffffffffffffffffffffffffffffffffffffff1663feaf968c6040518163ffffffff1660e01b815260040160a060405180830381865afa15801561228b573d6000803e3d6000fd5b505050506040513d601f19601f820116820180604052508101906122af919061309f565b50935050925050600082136122f9576040517f08c379a00000000000000000000000000000000000000000000000000000000081526004016122f090613166565b60405180910390fd5b6000810361233c576040517f08c379a0000000000000000000000000000000000000000000000000000000008152600401612333906131d2565b60405180910390fd5b819350505050919050565b60008060009054906101000a900473ffffffffffffffffffffffffffffffffffffffff169050816000806101000a81548173ffffffffffffffffffffffffffffffffffffffff021916908373ffffffffffffffffffffffffffffffffffffffff1602179055508173ffffffffffffffffffffffffffffffffffffffff168173ffffffffffffffffffffffffffffffffffffffff167f8be0079c531659141344cd1fd0a4f28419497f9722a3daafe3b4186f6b6457e060405160405180910390a35050565b612487848573ffffffffffffffffffffffffffffffffffffffff166323b872dd868686604051602401612440939291906131f2565b604051602081830303815290604052915060e01b6020820180517bffffffffffffffffffffffffffffffffffffffffffffffffffffffff838183161783525050505061248d565b50505050565b600080602060008451602086016000885af1806124b0576040513d6000823e3d81fd5b3d9250600051915050600082146124cb5760018114156124e7565b60008473ffffffffffffffffffffffffffffffffffffffff163b145b1561252957836040517f5274afe70000000000000000000000000000000000000000000000000000000081526004016125209190612ad7565b60405180910390fd5b50505050565b600033905090565b600080fd5b600080fd5b6000819050919050565b61255481612541565b811461255f57600080fd5b50565b6000813590506125718161254b565b92915050565b600073ffffffffffffffffffffffffffffffffffffffff82169050919050565b60006125a282612577565b9050919050565b6125b281612597565b81146125bd57600080fd5b50565b6000813590506125cf816125a9565b92915050565b600080604083850312156125ec576125eb612537565b5b60006125fa85828601612562565b925050602061260b858286016125c0565b9150509250929050565b61261e81612541565b82525050565b60006040820190506126396000830185612615565b6126466020830184612615565b9392505050565b60008115159050919050565b6126628161264d565b82525050565b600060208201905061267d6000830184612659565b92915050565b6000806040838503121561269a57612699612537565b5b60006126a885828601612562565b92505060206126b985828601612562565b9150509250929050565b6000602082840312156126d9576126d8612537565b5b60006126e784828501612562565b91505092915050565b6000819050919050565b612703816126f0565b811461270e57600080fd5b50565b600081359050612720816126fa565b92915050565b60006020828403121561273c5761273b612537565b5b600061274a84828501612711565b91505092915050565b600080fd5b600080fd5b600080fd5b60008083601f84011261277857612777612753565b5b8235905067ffffffffffffffff81111561279557612794612758565b5b6020830191508360018202830111156127b1576127b061275d565b5b9250929050565b600080602083850312156127cf576127ce612537565b5b600083013567ffffffffffffffff8111156127ed576127ec61253c565b5b6127f985828601612762565b92509250509250929050565b600060208201905061281a6000830184612615565b92915050565b6000806040838503121561283757612836612537565b5b600061284585828601612711565b9250506020612856858286016125c0565b9150509250929050565b600081519050919050565b600082825260208201905092915050565b60005b8381101561289a57808201518184015260208101905061287f565b60008484015250505050565b6000601f19601f8301169050919050565b60006128c282612860565b6128cc818561286b565b93506128dc81856020860161287c565b6128e5816128a6565b840191505092915050565b60006040820190506129056000830185612659565b818103602083015261291781846128b7565b90509392505050565b6000819050919050565b600061294561294061293b84612577565b612920565b612577565b9050919050565b60006129578261292a565b9050919050565b60006129698261294c565b9050919050565b6129798161295e565b82525050565b60006040820190506129946000830185612970565b6129a16020830184612659565b9392505050565b600067ffffffffffffffff82169050919050565b6129c5816129a8565b82525050565b60006020820190506129e060008301846129bc565b92915050565b6129ef816126f0565b82525050565b6000819050919050565b612a08816129f5565b82525050565b600061018082019050612a24600083018f6129bc565b612a31602083018e6129bc565b612a3e604083018d612659565b612a4b606083018c612659565b612a58608083018b612659565b612a6560a083018a612659565b612a7260c0830189612615565b612a7f60e0830188612615565b612a8d610100830187612615565b612a9b6101208301866129e6565b612aa96101408301856129ff565b612ab76101608301846129ff565b9d9c50505050505050505050505050565b612ad181612597565b82525050565b6000602082019050612aec6000830184612ac8565b92915050565b600061ffff82169050919050565b612b0981612af2565b82525050565b6000602082019050612b246000830184612b00565b92915050565b60008060408385031215612b4157612b40612537565b5b6000612b4f858286016125c0565b9250506020612b6085828601612562565b9150509250929050565b612b738161264d565b8114612b7e57600080fd5b50565b600081359050612b9081612b6a565b92915050565b60008060408385031215612bad57612bac612537565b5b6000612bbb85828601612711565b9250506020612bcc85828601612b81565b9150509250929050565b6000604082019050612beb6000830185612ac8565b612bf86020830184612659565b9392505050565b6000612c0a8261294c565b9050919050565b612c1a81612bff565b82525050565b6000602082019050612c356000830184612c11565b92915050565b600060208284031215612c5157612c50612537565b5b6000612c5f848285016125c0565b91505092915050565b7f4e487b7100000000000000000000000000000000000000000000000000000000600052601160045260246000fd5b6000612ca282612541565b9150612cad83612541565b9250828201905080821115612cc557612cc4612c68565b5b92915050565b6000606082019050612ce060008301866129bc565b612ced60208301856129bc565b612cfa60408301846129ff565b949350505050565b6000612d0d82612541565b9150612d1883612541565b9250828202612d2681612541565b91508282048414831517612d3d57612d3c612c68565b5b5092915050565b7f4e487b7100000000000000000000000000000000000000000000000000000000600052601260045260246000fd5b6000612d7e82612541565b9150612d8983612541565b925082612d9957612d98612d44565b5b828204905092915050565b6000612daf826129a8565b9150612dba836129a8565b9250828201905067ffffffffffffffff811115612dda57612dd9612c68565b5b92915050565b6000608082019050612df56000830187612659565b612e026020830186612659565b612e0f60408301856129ff565b612e1c60608301846129ff565b95945050505050565b600082825260208201905092915050565b7f7a65726f20666565640000000000000000000000000000000000000000000000600082015250565b6000612e6c600983612e25565b9150612e7782612e36565b602082019050919050565b60006020820190508181036000830152612e9b81612e5f565b9050919050565b7f62616420746f0000000000000000000000000000000000000000000000000000600082015250565b6000612ed8600683612e25565b9150612ee382612ea2565b602082019050919050565b60006020820190508181036000830152612f0781612ecb565b9050919050565b7f65786365656473207661756c7400000000000000000000000000000000000000600082015250565b6000612f44600d83612e25565b9150612f4f82612f0e565b602082019050919050565b60006020820190508181036000830152612f7381612f37565b9050919050565b6000612f8582612541565b9150612f9083612541565b9250828203905081811115612fa857612fa7612c68565b5b92915050565b6000608082019050612fc36000830187612659565b612fd06020830186612615565b612fdd6040830185612615565b612fea6060830184612615565b95945050505050565b60006040820190506130086000830185612ac8565b6130156020830184612615565b9392505050565b600069ffffffffffffffffffff82169050919050565b61303b8161301c565b811461304657600080fd5b50565b60008151905061305881613032565b92915050565b613067816129f5565b811461307257600080fd5b50565b6000815190506130848161305e565b92915050565b6000815190506130998161254b565b92915050565b600080600080600060a086880312156130bb576130ba612537565b5b60006130c988828901613049565b95505060206130da88828901613075565b94505060406130eb8882890161308a565b93505060606130fc8882890161308a565b925050608061310d88828901613049565b9150509295509295909350565b7f696e76616c696420707269636500000000000000000000000000000000000000600082015250565b6000613150600d83612e25565b915061315b8261311a565b602082019050919050565b6000602082019050818103600083015261317f81613143565b9050919050565b7f7374616c65207072696365000000000000000000000000000000000000000000600082015250565b60006131bc600b83612e25565b91506131c782613186565b602082019050919050565b600060208201905081810360008301526131eb816131af565b9050919050565b60006060820190506132076000830186612ac8565b6132146020830185612ac8565b6132216040830184612615565b94935050505056fea26469706673582212201e8209121458a8727f7aa3e55cca56cc32aae2cc3360632ee206aa3eeebc426764736f6c63430008180033","opcodes":"PUSH1 0xA0 PUSH1 0x40 MSTORE CALLVALUE DUP1 ISZERO PUSH3 0x11 JUMPI PUSH1 0x0 DUP1 REVERT JUMPDEST POP PUSH1 0x40 MLOAD PUSH3 0x3631 CODESIZE SUB DUP1 PUSH3 0x3631 DUP4 CODECOPY DUP2 DUP2 ADD PUSH1 0x40 MSTORE DUP2 ADD SWAP1 PUSH3 0x37 SWAP2 SWAP1 PUSH3 0x2A2 JUMP JUMPDEST DUP1 PUSH1 0x0 PUSH20 0xFFFFFFFFFFFFFFFFFFFFFFFFFFFFFFFFFFFFFFFF AND DUP2 PUSH20 0xFFFFFFFFFFFFFFFFFFFFFFFFFFFFFFFFFFFFFFFF AND SUB PUSH3 0xAD JUMPI PUSH1 0x0 PUSH1 0x40 MLOAD PUSH32 0x1E4FBDF700000000000000000000000000000000000000000000000000000000 DUP2 MSTORE PUSH1 0x4 ADD PUSH3 0xA4 SWAP2 SWAP1 PUSH3 0x2FA JUMP JUMPDEST PUSH1 0x40 MLOAD DUP1 SWAP2 SUB SWAP1 REVERT JUMPDEST PUSH3 0xBE DUP2 PUSH3 0x174 PUSH1 0x20 SHL PUSH1 0x20 SHR JUMP JUMPDEST POP PUSH1 0x1 DUP1 DUP2 SWAP1 SSTORE POP PUSH1 0x0 PUSH20 0xFFFFFFFFFFFFFFFFFFFFFFFFFFFFFFFFFFFFFFFF AND DUP3 PUSH20 0xFFFFFFFFFFFFFFFFFFFFFFFFFFFFFFFFFFFFFFFF AND SUB PUSH3 0x138 JUMPI PUSH1 0x40 MLOAD PUSH32 0x8C379A000000000000000000000000000000000000000000000000000000000 DUP2 MSTORE PUSH1 0x4 ADD PUSH3 0x12F SWAP1 PUSH3 0x378 JUMP JUMPDEST PUSH1 0x40 MLOAD DUP1 SWAP2 SUB SWAP1 REVERT JUMPDEST DUP2 PUSH20 0xFFFFFFFFFFFFFFFFFFFFFFFFFFFFFFFFFFFFFFFF AND PUSH1 0x80 DUP2 PUSH20 0xFFFFFFFFFFFFFFFFFFFFFFFFFFFFFFFFFFFFFFFF AND DUP2 MSTORE POP POP POP POP PUSH3 0x39A JUMP JUMPDEST PUSH1 0x0 DUP1 PUSH1 0x0 SWAP1 SLOAD SWAP1 PUSH2 0x100 EXP SWAP1 DIV PUSH20 0xFFFFFFFFFFFFFFFFFFFFFFFFFFFFFFFFFFFFFFFF AND SWAP1 POP DUP2 PUSH1 0x0 DUP1 PUSH2 0x100 EXP DUP2 SLOAD DUP2 PUSH20 0xFFFFFFFFFFFFFFFFFFFFFFFFFFFFFFFFFFFFFFFF MUL NOT AND SWAP1 DUP4 PUSH20 0xFFFFFFFFFFFFFFFFFFFFFFFFFFFFFFFFFFFFFFFF AND MUL OR SWAP1 SSTORE POP DUP2 PUSH20 0xFFFFFFFFFFFFFFFFFFFFFFFFFFFFFFFFFFFFFFFF AND DUP2 PUSH20 0xFFFFFFFFFFFFFFFFFFFFFFFFFFFFFFFFFFFFFFFF AND PUSH32 0x8BE0079C531659141344CD1FD0A4F28419497F9722A3DAAFE3B4186F6B6457E0 PUSH1 0x40 MLOAD PUSH1 0x40 MLOAD DUP1 SWAP2 SUB SWAP1 LOG3 POP POP JUMP JUMPDEST PUSH1 0x0 DUP1 REVERT JUMPDEST PUSH1 0x0 PUSH20 0xFFFFFFFFFFFFFFFFFFFFFFFFFFFFFFFFFFFFFFFF DUP3 AND SWAP1 POP SWAP2 SWAP1 POP JUMP JUMPDEST PUSH1 0x0 PUSH3 0x26A DUP3 PUSH3 0x23D JUMP JUMPDEST SWAP1 POP SWAP2 SWAP1 POP JUMP JUMPDEST PUSH3 0x27C DUP2 PUSH3 0x25D JUMP JUMPDEST DUP2 EQ PUSH3 0x288 JUMPI PUSH1 0x0 DUP1 REVERT JUMPDEST POP JUMP JUMPDEST PUSH1 0x0 DUP2 MLOAD SWAP1 POP PUSH3 0x29C DUP2 PUSH3 0x271 JUMP JUMPDEST SWAP3 SWAP2 POP POP JUMP JUMPDEST PUSH1 0x0 DUP1 PUSH1 0x40 DUP4 DUP6 SUB SLT ISZERO PUSH3 0x2BC JUMPI PUSH3 0x2BB PUSH3 0x238 JUMP JUMPDEST JUMPDEST PUSH1 0x0 PUSH3 0x2CC DUP6 DUP3 DUP7 ADD PUSH3 0x28B JUMP JUMPDEST SWAP3 POP POP PUSH1 0x20 PUSH3 0x2DF DUP6 DUP3 DUP7 ADD PUSH3 0x28B JUMP JUMPDEST SWAP2 POP POP SWAP3 POP SWAP3 SWAP1 POP JUMP JUMPDEST PUSH3 0x2F4 DUP2 PUSH3 0x25D JUMP JUMPDEST DUP3 MSTORE POP POP JUMP JUMPDEST PUSH1 0x0 PUSH1 0x20 DUP3 ADD SWAP1 POP PUSH3 0x311 PUSH1 0x0 DUP4 ADD DUP5 PUSH3 0x2E9 JUMP JUMPDEST SWAP3 SWAP2 POP POP JUMP JUMPDEST PUSH1 0x0 DUP3 DUP3 MSTORE PUSH1 0x20 DUP3 ADD SWAP1 POP SWAP3 SWAP2 POP POP JUMP JUMPDEST PUSH32 0x7A65726F20636F6C6C61746572616C0000000000000000000000000000000000 PUSH1 0x0 DUP3 ADD MSTORE POP JUMP JUMPDEST PUSH1 0x0 PUSH3 0x360 PUSH1 0xF DUP4 PUSH3 0x317 JUMP JUMPDEST SWAP2 POP PUSH3 0x36D DUP3 PUSH3 0x328 JUMP JUMPDEST PUSH1 0x20 DUP3 ADD SWAP1 POP SWAP2 SWAP1 POP JUMP JUMPDEST PUSH1 0x0 PUSH1 0x20 DUP3 ADD SWAP1 POP DUP2 DUP2 SUB PUSH1 0x0 DUP4 ADD MSTORE PUSH3 0x393 DUP2 PUSH3 0x351 JUMP JUMPDEST SWAP1 POP SWAP2 SWAP1 POP JUMP JUMPDEST PUSH1 0x80 MLOAD PUSH2 0x325F PUSH3 0x3D2 PUSH1 0x0 CODECOPY PUSH1 0x0 DUP2 DUP2 PUSH2 0x87A ADD MSTORE DUP2 DUP2 PUSH2 0x1022 ADD MSTORE DUP2 DUP2 PUSH2 0x19E2 ADD MSTORE DUP2 DUP2 PUSH2 0x1BE4 ADD MSTORE PUSH2 0x1E36 ADD MSTORE PUSH2 0x325F PUSH1 0x0 RETURN INVALID PUSH1 0x80 PUSH1 0x40 MSTORE CALLVALUE DUP1 ISZERO PUSH2 0x10 JUMPI PUSH1 0x0 DUP1 REVERT JUMPDEST POP PUSH1 0x4 CALLDATASIZE LT PUSH2 0x18E JUMPI PUSH1 0x0 CALLDATALOAD PUSH1 0xE0 SHR DUP1 PUSH4 0x715018A6 GT PUSH2 0xDE JUMPI DUP1 PUSH4 0x9CBE5EFD GT PUSH2 0x97 JUMPI DUP1 PUSH4 0xC2CCDDEC GT PUSH2 0x71 JUMPI DUP1 PUSH4 0xC2CCDDEC EQ PUSH2 0x47A JUMPI DUP1 PUSH4 0xC3C95C7B EQ PUSH2 0x498 JUMPI DUP1 PUSH4 0xD8DFEB45 EQ PUSH2 0x4C9 JUMPI DUP1 PUSH4 0xF2FDE38B EQ PUSH2 0x4E7 JUMPI PUSH2 0x18E JUMP JUMPDEST DUP1 PUSH4 0x9CBE5EFD EQ PUSH2 0x424 JUMPI DUP1 PUSH4 0xAD3B1B47 EQ PUSH2 0x442 JUMPI DUP1 PUSH4 0xB9FB9922 EQ PUSH2 0x45E JUMPI PUSH2 0x18E JUMP JUMPDEST DUP1 PUSH4 0x715018A6 EQ PUSH2 0x354 JUMPI DUP1 PUSH4 0x7564912B EQ PUSH2 0x35E JUMPI DUP1 PUSH4 0x8B3E0476 EQ PUSH2 0x38F JUMPI DUP1 PUSH4 0x8C65C81F EQ PUSH2 0x3AD JUMPI DUP1 PUSH4 0x8DA5CB5B EQ PUSH2 0x3E8 JUMPI DUP1 PUSH4 0x90CC9A11 EQ PUSH2 0x406 JUMPI PUSH2 0x18E JUMP JUMPDEST DUP1 PUSH4 0x379607F5 GT PUSH2 0x14B JUMPI DUP1 PUSH4 0x478222C2 GT PUSH2 0x125 JUMPI DUP1 PUSH4 0x478222C2 EQ PUSH2 0x2CD JUMPI DUP1 PUSH4 0x5A1E6CA1 EQ PUSH2 0x2EB JUMPI DUP1 PUSH4 0x65C0084C EQ PUSH2 0x307 JUMPI DUP1 PUSH4 0x6E04FF0D EQ PUSH2 0x323 JUMPI PUSH2 0x18E JUMP JUMPDEST DUP1 PUSH4 0x379607F5 EQ PUSH2 0x264 JUMPI DUP1 PUSH4 0x442CD555 EQ PUSH2 0x280 JUMPI DUP1 PUSH4 0x4585E33B EQ PUSH2 0x2B1 JUMPI PUSH2 0x18E JUMP JUMPDEST DUP1 PUSH4 0x939FC83 EQ PUSH2 0x193 JUMPI DUP1 PUSH4 0x120AA877 EQ PUSH2 0x1C4 JUMPI DUP1 PUSH4 0x174A5D32 EQ PUSH2 0x1F4 JUMPI DUP1 PUSH4 0x22A18D42 EQ PUSH2 0x210 JUMPI DUP1 PUSH4 0x278ECDE1 EQ PUSH2 0x22C JUMPI DUP1 PUSH4 0x37404885 EQ PUSH2 0x248 JUMPI JUMPDEST PUSH1 0x0 DUP1 REVERT JUMPDEST PUSH2 0x1AD PUSH1 0x4 DUP1 CALLDATASIZE SUB DUP2 ADD SWAP1 PUSH2 0x1A8 SWAP2 SWAP1 PUSH2 0x25D5 JUMP JUMPDEST PUSH2 0x503 JUMP JUMPDEST PUSH1 0x40 MLOAD PUSH2 0x1BB SWAP3 SWAP2 SWAP1 PUSH2 0x2624 JUMP JUMPDEST PUSH1 0x40 MLOAD DUP1 SWAP2 SUB SWAP1 RETURN JUMPDEST PUSH2 0x1DE PUSH1 0x4 DUP1 CALLDATASIZE SUB DUP2 ADD SWAP1 PUSH2 0x1D9 SWAP2 SWAP1 PUSH2 0x25D5 JUMP JUMPDEST PUSH2 0x534 JUMP JUMPDEST PUSH1 0x40 MLOAD PUSH2 0x1EB SWAP2 SWAP1 PUSH2 0x2668 JUMP JUMPDEST PUSH1 0x40 MLOAD DUP1 SWAP2 SUB SWAP1 RETURN JUMPDEST PUSH2 0x20E PUSH1 0x4 DUP1 CALLDATASIZE SUB DUP2 ADD SWAP1 PUSH2 0x209 SWAP2 SWAP1 PUSH2 0x2683 JUMP JUMPDEST PUSH2 0x563 JUMP JUMPDEST STOP JUMPDEST PUSH2 0x22A PUSH1 0x4 DUP1 CALLDATASIZE SUB DUP2 ADD SWAP1 PUSH2 0x225 SWAP2 SWAP1 PUSH2 0x2683 JUMP JUMPDEST PUSH2 0x583 JUMP JUMPDEST STOP JUMPDEST PUSH2 0x246 PUSH1 0x4 DUP1 CALLDATASIZE SUB DUP2 ADD SWAP1 PUSH2 0x241 SWAP2 SWAP1 PUSH2 0x26C3 JUMP JUMPDEST PUSH2 0x5A3 JUMP JUMPDEST STOP JUMPDEST PUSH2 0x262 PUSH1 0x4 DUP1 CALLDATASIZE SUB DUP2 ADD SWAP1 PUSH2 0x25D SWAP2 SWAP1 PUSH2 0x2726 JUMP JUMPDEST PUSH2 0x91C JUMP JUMPDEST STOP JUMPDEST PUSH2 0x27E PUSH1 0x4 DUP1 CALLDATASIZE SUB DUP2 ADD SWAP1 PUSH2 0x279 SWAP2 SWAP1 PUSH2 0x26C3 JUMP JUMPDEST PUSH2 0xCF9 JUMP JUMPDEST STOP JUMPDEST PUSH2 0x29A PUSH1 0x4 DUP1 CALLDATASIZE SUB DUP2 ADD SWAP1 PUSH2 0x295 SWAP2 SWAP1 PUSH2 0x25D5 JUMP JUMPDEST PUSH2 0x10C6 JUMP JUMPDEST PUSH1 0x40 MLOAD PUSH2 0x2A8 SWAP3 SWAP2 SWAP1 PUSH2 0x2624 JUMP JUMPDEST PUSH1 0x40 MLOAD DUP1 SWAP2 SUB SWAP1 RETURN JUMPDEST PUSH2 0x2CB PUSH1 0x4 DUP1 CALLDATASIZE SUB DUP2 ADD SWAP1 PUSH2 0x2C6 SWAP2 SWAP1 PUSH2 0x27B8 JUMP JUMPDEST PUSH2 0x10F7 JUMP JUMPDEST STOP JUMPDEST PUSH2 0x2D5 PUSH2 0x1118 JUMP JUMPDEST PUSH1 0x40 MLOAD PUSH2 0x2E2 SWAP2 SWAP1 PUSH2 0x2805 JUMP JUMPDEST PUSH1 0x40 MLOAD DUP1 SWAP2 SUB SWAP1 RETURN JUMPDEST PUSH2 0x305 PUSH1 0x4 DUP1 CALLDATASIZE SUB DUP2 ADD SWAP1 PUSH2 0x300 SWAP2 SWAP1 PUSH2 0x26C3 JUMP JUMPDEST PUSH2 0x111E JUMP JUMPDEST STOP JUMPDEST PUSH2 0x321 PUSH1 0x4 DUP1 CALLDATASIZE SUB DUP2 ADD SWAP1 PUSH2 0x31C SWAP2 SWAP1 PUSH2 0x2820 JUMP JUMPDEST PUSH2 0x14E0 JUMP JUMPDEST STOP JUMPDEST PUSH2 0x33D PUSH1 0x4 DUP1 CALLDATASIZE SUB DUP2 ADD SWAP1 PUSH2 0x338 SWAP2 SWAP1 PUSH2 0x27B8 JUMP JUMPDEST PUSH2 0x163E JUMP JUMPDEST PUSH1 0x40 MLOAD PUSH2 0x34B SWAP3 SWAP2 SWAP1 PUSH2 0x28F0 JUMP JUMPDEST PUSH1 0x40 MLOAD DUP1 SWAP2 SUB SWAP1 RETURN JUMPDEST PUSH2 0x35C PUSH2 0x17A4 JUMP JUMPDEST STOP JUMPDEST PUSH2 0x378 PUSH1 0x4 DUP1 CALLDATASIZE SUB DUP2 ADD SWAP1 PUSH2 0x373 SWAP2 SWAP1 PUSH2 0x2726 JUMP JUMPDEST PUSH2 0x17B8 JUMP JUMPDEST PUSH1 0x40 MLOAD PUSH2 0x386 SWAP3 SWAP2 SWAP1 PUSH2 0x297F JUMP JUMPDEST PUSH1 0x40 MLOAD DUP1 SWAP2 SUB SWAP1 RETURN JUMPDEST PUSH2 0x397 PUSH2 0x1809 JUMP JUMPDEST PUSH1 0x40 MLOAD PUSH2 0x3A4 SWAP2 SWAP1 PUSH2 0x29CB JUMP JUMPDEST PUSH1 0x40 MLOAD DUP1 SWAP2 SUB SWAP1 RETURN JUMPDEST PUSH2 0x3C7 PUSH1 0x4 DUP1 CALLDATASIZE SUB DUP2 ADD SWAP1 PUSH2 0x3C2 SWAP2 SWAP1 PUSH2 0x26C3 JUMP JUMPDEST PUSH2 0x180E JUMP JUMPDEST PUSH1 0x40 MLOAD PUSH2 0x3DF SWAP13 SWAP12 SWAP11 SWAP10 SWAP9 SWAP8 SWAP7 SWAP6 SWAP5 SWAP4 SWAP3 SWAP2 SWAP1 PUSH2 0x2A0E JUMP JUMPDEST PUSH1 0x40 MLOAD DUP1 SWAP2 SUB SWAP1 RETURN JUMPDEST PUSH2 0x3F0 PUSH2 0x18CA JUMP JUMPDEST PUSH1 0x40 MLOAD PUSH2 0x3FD SWAP2 SWAP1 PUSH2 0x2AD7 JUMP JUMPDEST PUSH1 0x40 MLOAD DUP1 SWAP2 SUB SWAP1 RETURN JUMPDEST PUSH2 0x40E PUSH2 0x18F3 JUMP JUMPDEST PUSH1 0x40 MLOAD PUSH2 0x41B SWAP2 SWAP1 PUSH2 0x2B0F JUMP JUMPDEST PUSH1 0x40 MLOAD DUP1 SWAP2 SUB SWAP1 RETURN JUMPDEST PUSH2 0x42C PUSH2 0x18F8 JUMP JUMPDEST PUSH1 0x40 MLOAD PUSH2 0x439 SWAP2 SWAP1 PUSH2 0x2805 JUMP JUMPDEST PUSH1 0x40 MLOAD DUP1 SWAP2 SUB SWAP1 RETURN JUMPDEST PUSH2 0x45C PUSH1 0x4 DUP1 CALLDATASIZE SUB DUP2 ADD SWAP1 PUSH2 0x457 SWAP2 SWAP1 PUSH2 0x2B2A JUMP JUMPDEST PUSH2 0x18FE JUMP JUMPDEST STOP JUMPDEST PUSH2 0x478 PUSH1 0x4 DUP1 CALLDATASIZE SUB DUP2 ADD SWAP1 PUSH2 0x473 SWAP2 SWAP1 PUSH2 0x2B96 JUMP JUMPDEST PUSH2 0x1A80 JUMP JUMPDEST STOP JUMPDEST PUSH2 0x482 PUSH2 0x1B82 JUMP JUMPDEST PUSH1 0x40 MLOAD PUSH2 0x48F SWAP2 SWAP1 PUSH2 0x29CB JUMP JUMPDEST PUSH1 0x40 MLOAD DUP1 SWAP2 SUB SWAP1 RETURN JUMPDEST PUSH2 0x4B2 PUSH1 0x4 DUP1 CALLDATASIZE SUB DUP2 ADD SWAP1 PUSH2 0x4AD SWAP2 SWAP1 PUSH2 0x2726 JUMP JUMPDEST PUSH2 0x1B87 JUMP JUMPDEST PUSH1 0x40 MLOAD PUSH2 0x4C0 SWAP3 SWAP2 SWAP1 PUSH2 0x2BD6 JUMP JUMPDEST PUSH1 0x40 MLOAD DUP1 SWAP2 SUB SWAP1 RETURN JUMPDEST PUSH2 0x4D1 PUSH2 0x1BE2 JUMP JUMPDEST PUSH1 0x40 MLOAD PUSH2 0x4DE SWAP2 SWAP1 PUSH2 0x2C20 JUMP JUMPDEST PUSH1 0x40 MLOAD DUP1 SWAP2 SUB SWAP1 RETURN JUMPDEST PUSH2 0x501 PUSH1 0x4 DUP1 CALLDATASIZE SUB DUP2 ADD SWAP1 PUSH2 0x4FC SWAP2 SWAP1 PUSH2 0x2C3B JUMP JUMPDEST PUSH2 0x1C06 JUMP JUMPDEST STOP JUMPDEST PUSH1 0x5 PUSH1 0x20 MSTORE DUP2 PUSH1 0x0 MSTORE PUSH1 0x40 PUSH1 0x0 KECCAK256 PUSH1 0x20 MSTORE DUP1 PUSH1 0x0 MSTORE PUSH1 0x40 PUSH1 0x0 KECCAK256 PUSH1 0x0 SWAP2 POP SWAP2 POP POP DUP1 PUSH1 0x0 ADD SLOAD SWAP1 DUP1 PUSH1 0x1 ADD SLOAD SWAP1 POP DUP3 JUMP JUMPDEST PUSH1 0x7 PUSH1 0x20 MSTORE DUP2 PUSH1 0x0 MSTORE PUSH1 0x40 PUSH1 0x0 KECCAK256 PUSH1 0x20 MSTORE DUP1 PUSH1 0x0 MSTORE PUSH1 0x40 PUSH1 0x0 KECCAK256 PUSH1 0x0 SWAP2 POP SWAP2 POP SWAP1 SLOAD SWAP1 PUSH2 0x100 EXP SWAP1 DIV PUSH1 0xFF AND DUP2 JUMP JUMPDEST PUSH2 0x56B PUSH2 0x1C8C JUMP JUMPDEST PUSH2 0x577 DUP3 DUP3 PUSH1 0x1 PUSH2 0x1CD2 JUMP JUMPDEST PUSH2 0x57F PUSH2 0x204D JUMP JUMPDEST POP POP JUMP JUMPDEST PUSH2 0x58B PUSH2 0x1C8C JUMP JUMPDEST PUSH2 0x597 DUP3 DUP3 PUSH1 0x0 PUSH2 0x1CD2 JUMP JUMPDEST PUSH2 0x59F PUSH2 0x204D JUMP JUMPDEST POP POP JUMP JUMPDEST PUSH2 0x5AB PUSH2 0x1C8C JUMP JUMPDEST PUSH1 0x0 PUSH1 0x4 PUSH1 0x0 DUP4 DUP2 MSTORE PUSH1 0x20 ADD SWAP1 DUP2 MSTORE PUSH1 0x20 ADD PUSH1 0x0 KECCAK256 SWAP1 POP DUP1 PUSH1 0x0 ADD PUSH1 0x11 SWAP1 SLOAD SWAP1 PUSH2 0x100 EXP SWAP1 DIV PUSH1 0xFF AND PUSH2 0x60A JUMPI PUSH1 0x40 MLOAD PUSH32 0x1599198500000000000000000000000000000000000000000000000000000000 DUP2 MSTORE PUSH1 0x4 ADD PUSH1 0x40 MLOAD DUP1 SWAP2 SUB SWAP1 REVERT JUMPDEST DUP1 PUSH1 0x0 ADD PUSH1 0x13 SWAP1 SLOAD SWAP1 PUSH2 0x100 EXP SWAP1 DIV PUSH1 0xFF AND PUSH2 0x652 JUMPI PUSH1 0x40 MLOAD PUSH32 0x5F1AA4C900000000000000000000000000000000000000000000000000000000 DUP2 MSTORE PUSH1 0x4 ADD PUSH1 0x40 MLOAD DUP1 SWAP2 SUB SWAP1 REVERT JUMPDEST PUSH1 0x7 PUSH1 0x0 DUP4 DUP2 MSTORE PUSH1 0x20 ADD SWAP1 DUP2 MSTORE PUSH1 0x20 ADD PUSH1 0x0 KECCAK256 PUSH1 0x0 CALLER PUSH20 0xFFFFFFFFFFFFFFFFFFFFFFFFFFFFFFFFFFFFFFFF AND PUSH20 0xFFFFFFFFFFFFFFFFFFFFFFFFFFFFFFFFFFFFFFFF AND DUP2 MSTORE PUSH1 0x20 ADD SWAP1 DUP2 MSTORE PUSH1 0x20 ADD PUSH1 0x0 KECCAK256 PUSH1 0x0 SWAP1 SLOAD SWAP1 PUSH2 0x100 EXP SWAP1 DIV PUSH1 0xFF AND ISZERO PUSH2 0x6E7 JUMPI PUSH1 0x40 MLOAD PUSH32 0xE4F5BD5900000000000000000000000000000000000000000000000000000000 DUP2 MSTORE PUSH1 0x4 ADD PUSH1 0x40 MLOAD DUP1 SWAP2 SUB SWAP1 REVERT JUMPDEST PUSH1 0x0 PUSH1 0x5 PUSH1 0x0 DUP5 DUP2 MSTORE PUSH1 0x20 ADD SWAP1 DUP2 MSTORE PUSH1 0x20 ADD PUSH1 0x0 KECCAK256 PUSH1 0x0 CALLER PUSH20 0xFFFFFFFFFFFFFFFFFFFFFFFFFFFFFFFFFFFFFFFF AND PUSH20 0xFFFFFFFFFFFFFFFFFFFFFFFFFFFFFFFFFFFFFFFF AND DUP2 MSTORE PUSH1 0x20 ADD SWAP1 DUP2 MSTORE PUSH1 0x20 ADD PUSH1 0x0 KECCAK256 SWAP1 POP PUSH1 0x0 PUSH1 0x6 PUSH1 0x0 DUP6 DUP2 MSTORE PUSH1 0x20 ADD SWAP1 DUP2 MSTORE PUSH1 0x20 ADD PUSH1 0x0 KECCAK256 PUSH1 0x0 CALLER PUSH20 0xFFFFFFFFFFFFFFFFFFFFFFFFFFFFFFFFFFFFFFFF AND PUSH20 0xFFFFFFFFFFFFFFFFFFFFFFFFFFFFFFFFFFFFFFFF AND DUP2 MSTORE PUSH1 0x20 ADD SWAP1 DUP2 MSTORE PUSH1 0x20 ADD PUSH1 0x0 KECCAK256 SWAP1 POP PUSH1 0x0 DUP3 PUSH1 0x0 ADD SLOAD SWAP1 POP PUSH1 0x0 DUP2 SUB PUSH2 0x7A8 JUMPI DUP2 PUSH1 0x0 ADD SLOAD SWAP1 POP JUMPDEST PUSH1 0x0 DUP2 SUB PUSH2 0x7E2 JUMPI PUSH1 0x40 MLOAD PUSH32 0x95E3A2C300000000000000000000000000000000000000000000000000000000 DUP2 MSTORE PUSH1 0x4 ADD PUSH1 0x40 MLOAD DUP1 SWAP2 SUB SWAP1 REVERT JUMPDEST PUSH1 0x0 DUP4 PUSH1 0x0 ADD DUP2 SWAP1 SSTORE POP PUSH1 0x0 DUP4 PUSH1 0x1 ADD DUP2 SWAP1 SSTORE POP PUSH1 0x0 DUP3 PUSH1 0x0 ADD DUP2 SWAP1 SSTORE POP PUSH1 0x0 DUP3 PUSH1 0x1 ADD DUP2 SWAP1 SSTORE POP PUSH1 0x1 PUSH1 0x7 PUSH1 0x0 DUP8 DUP2 MSTORE PUSH1 0x20 ADD SWAP1 DUP2 MSTORE PUSH1 0x20 ADD PUSH1 0x0 KECCAK256 PUSH1 0x0 CALLER PUSH20 0xFFFFFFFFFFFFFFFFFFFFFFFFFFFFFFFFFFFFFFFF AND PUSH20 0xFFFFFFFFFFFFFFFFFFFFFFFFFFFFFFFFFFFFFFFF AND DUP2 MSTORE PUSH1 0x20 ADD SWAP1 DUP2 MSTORE PUSH1 0x20 ADD PUSH1 0x0 KECCAK256 PUSH1 0x0 PUSH2 0x100 EXP DUP2 SLOAD DUP2 PUSH1 0xFF MUL NOT AND SWAP1 DUP4 ISZERO ISZERO MUL OR SWAP1 SSTORE POP PUSH2 0x8BE CALLER DUP3 PUSH32 0x0 PUSH20 0xFFFFFFFFFFFFFFFFFFFFFFFFFFFFFFFFFFFFFFFF AND PUSH2 0x2056 SWAP1 SWAP3 SWAP2 SWAP1 PUSH4 0xFFFFFFFF AND JUMP JUMPDEST DUP5 CALLER PUSH20 0xFFFFFFFFFFFFFFFFFFFFFFFFFFFFFFFFFFFFFFFF AND PUSH32 0x2DC8E290002F06FC0085BBCA9DFB8B415CF4D1178950C72FF9EE8F4D8878EE66 DUP4 PUSH1 0x40 MLOAD PUSH2 0x905 SWAP2 SWAP1 PUSH2 0x2805 JUMP JUMPDEST PUSH1 0x40 MLOAD DUP1 SWAP2 SUB SWAP1 LOG3 POP POP POP POP PUSH2 0x919 PUSH2 0x204D JUMP JUMPDEST POP JUMP JUMPDEST PUSH2 0x924 PUSH2 0x20D5 JUMP JUMPDEST PUSH1 0x0 PUSH1 0x2 PUSH1 0x0 DUP4 DUP2 MSTORE PUSH1 0x20 ADD SWAP1 DUP2 MSTORE PUSH1 0x20 ADD PUSH1 0x0 KECCAK256 SWAP1 POP DUP1 PUSH1 0x0 ADD PUSH1 0x14 SWAP1 SLOAD SWAP1 PUSH2 0x100 EXP SWAP1 DIV PUSH1 0xFF AND ISZERO DUP1 PUSH2 0x9A9 JUMPI POP PUSH1 0x0 PUSH20 0xFFFFFFFFFFFFFFFFFFFFFFFFFFFFFFFFFFFFFFFF AND DUP2 PUSH1 0x0 ADD PUSH1 0x0 SWAP1 SLOAD SWAP1 PUSH2 0x100 EXP SWAP1 DIV PUSH20 0xFFFFFFFFFFFFFFFFFFFFFFFFFFFFFFFFFFFFFFFF AND PUSH20 0xFFFFFFFFFFFFFFFFFFFFFFFFFFFFFFFFFFFFFFFF AND EQ JUMPDEST ISZERO PUSH2 0x9E0 JUMPI PUSH1 0x40 MLOAD PUSH32 0x6B7CD6E900000000000000000000000000000000000000000000000000000000 DUP2 MSTORE PUSH1 0x4 ADD PUSH1 0x40 MLOAD DUP1 SWAP2 SUB SWAP1 REVERT JUMPDEST PUSH1 0x0 PUSH1 0x3 SLOAD EQ PUSH2 0xA7B JUMPI PUSH1 0x0 PUSH1 0x4 PUSH1 0x0 PUSH1 0x3 SLOAD DUP2 MSTORE PUSH1 0x20 ADD SWAP1 DUP2 MSTORE PUSH1 0x20 ADD PUSH1 0x0 KECCAK256 SWAP1 POP DUP1 PUSH1 0x0 ADD PUSH1 0x10 SWAP1 SLOAD SWAP1 PUSH2 0x100 EXP SWAP1 DIV PUSH1 0xFF AND DUP1 ISZERO PUSH2 0xA42 JUMPI POP DUP1 PUSH1 0x0 ADD PUSH1 0x8 SWAP1 SLOAD SWAP1 PUSH2 0x100 EXP SWAP1 DIV PUSH8 0xFFFFFFFFFFFFFFFF AND PUSH8 0xFFFFFFFFFFFFFFFF AND TIMESTAMP LT JUMPDEST ISZERO PUSH2 0xA79 JUMPI PUSH1 0x40 MLOAD PUSH32 0xE45E13FE00000000000000000000000000000000000000000000000000000000 DUP2 MSTORE PUSH1 0x4 ADD PUSH1 0x40 MLOAD DUP1 SWAP2 SUB SWAP1 REVERT JUMPDEST POP JUMPDEST PUSH1 0x0 PUSH2 0xA86 DUP4 PUSH2 0x215C JUMP JUMPDEST SWAP1 POP PUSH1 0x0 PUSH1 0x1 PUSH1 0x3 SLOAD PUSH2 0xA99 SWAP2 SWAP1 PUSH2 0x2C97 JUMP JUMPDEST SWAP1 POP DUP1 PUSH1 0x3 DUP2 SWAP1 SSTORE POP PUSH1 0x40 MLOAD DUP1 PUSH2 0x180 ADD PUSH1 0x40 MSTORE DUP1 TIMESTAMP PUSH8 0xFFFFFFFFFFFFFFFF AND DUP2 MSTORE PUSH1 0x20 ADD PUSH1 0x64 PUSH8 0xFFFFFFFFFFFFFFFF AND TIMESTAMP PUSH2 0xAD5 SWAP2 SWAP1 PUSH2 0x2C97 JUMP JUMPDEST PUSH8 0xFFFFFFFFFFFFFFFF AND DUP2 MSTORE PUSH1 0x20 ADD PUSH1 0x1 ISZERO ISZERO DUP2 MSTORE PUSH1 0x20 ADD PUSH1 0x0 ISZERO ISZERO DUP2 MSTORE PUSH1 0x20 ADD PUSH1 0x0 ISZERO ISZERO DUP2 MSTORE PUSH1 0x20 ADD PUSH1 0x0 ISZERO ISZERO DUP2 MSTORE PUSH1 0x20 ADD PUSH1 0x0 DUP2 MSTORE PUSH1 0x20 ADD PUSH1 0x0 DUP2 MSTORE PUSH1 0x20 ADD PUSH1 0x0 DUP2 MSTORE PUSH1 0x20 ADD DUP6 DUP2 MSTORE PUSH1 0x20 ADD DUP4 DUP2 MSTORE PUSH1 0x20 ADD PUSH1 0x0 DUP2 MSTORE POP PUSH1 0x4 PUSH1 0x0 DUP4 DUP2 MSTORE PUSH1 0x20 ADD SWAP1 DUP2 MSTORE PUSH1 0x20 ADD PUSH1 0x0 KECCAK256 PUSH1 0x0 DUP3 ADD MLOAD DUP2 PUSH1 0x0 ADD PUSH1 0x0 PUSH2 0x100 EXP DUP2 SLOAD DUP2 PUSH8 0xFFFFFFFFFFFFFFFF MUL NOT AND SWAP1 DUP4 PUSH8 0xFFFFFFFFFFFFFFFF AND MUL OR SWAP1 SSTORE POP PUSH1 0x20 DUP3 ADD MLOAD DUP2 PUSH1 0x0 ADD PUSH1 0x8 PUSH2 0x100 EXP DUP2 SLOAD DUP2 PUSH8 0xFFFFFFFFFFFFFFFF MUL NOT AND SWAP1 DUP4 PUSH8 0xFFFFFFFFFFFFFFFF AND MUL OR SWAP1 SSTORE POP PUSH1 0x40 DUP3 ADD MLOAD DUP2 PUSH1 0x0 ADD PUSH1 0x10 PUSH2 0x100 EXP DUP2 SLOAD DUP2 PUSH1 0xFF MUL NOT AND SWAP1 DUP4 ISZERO ISZERO MUL OR SWAP1 SSTORE POP PUSH1 0x60 DUP3 ADD MLOAD DUP2 PUSH1 0x0 ADD PUSH1 0x11 PUSH2 0x100 EXP DUP2 SLOAD DUP2 PUSH1 0xFF MUL NOT AND SWAP1 DUP4 ISZERO ISZERO MUL OR SWAP1 SSTORE POP PUSH1 0x80 DUP3 ADD MLOAD DUP2 PUSH1 0x0 ADD PUSH1 0x12 PUSH2 0x100 EXP DUP2 SLOAD DUP2 PUSH1 0xFF MUL NOT AND SWAP1 DUP4 ISZERO ISZERO MUL OR SWAP1 SSTORE POP PUSH1 0xA0 DUP3 ADD MLOAD DUP2 PUSH1 0x0 ADD PUSH1 0x13 PUSH2 0x100 EXP DUP2 SLOAD DUP2 PUSH1 0xFF MUL NOT AND SWAP1 DUP4 ISZERO ISZERO MUL OR SWAP1 SSTORE POP PUSH1 0xC0 DUP3 ADD MLOAD DUP2 PUSH1 0x1 ADD SSTORE PUSH1 0xE0 DUP3 ADD MLOAD DUP2 PUSH1 0x2 ADD SSTORE PUSH2 0x100 DUP3 ADD MLOAD DUP2 PUSH1 0x3 ADD SSTORE PUSH2 0x120 DUP3 ADD MLOAD DUP2 PUSH1 0x4 ADD SSTORE PUSH2 0x140 DUP3 ADD MLOAD DUP2 PUSH1 0x5 ADD SSTORE PUSH2 0x160 DUP3 ADD MLOAD DUP2 PUSH1 0x6 ADD SSTORE SWAP1 POP POP DUP4 DUP2 PUSH32 0x8842EA7DDCD5A123DC6980F1AA29A46B976F8C389E0AAFCDE65E57FEA46EE9B PUSH1 0x4 PUSH1 0x0 DUP6 DUP2 MSTORE PUSH1 0x20 ADD SWAP1 DUP2 MSTORE PUSH1 0x20 ADD PUSH1 0x0 KECCAK256 PUSH1 0x0 ADD PUSH1 0x0 SWAP1 SLOAD SWAP1 PUSH2 0x100 EXP SWAP1 DIV PUSH8 0xFFFFFFFFFFFFFFFF AND PUSH1 0x4 PUSH1 0x0 DUP7 DUP2 MSTORE PUSH1 0x20 ADD SWAP1 DUP2 MSTORE PUSH1 0x20 ADD PUSH1 0x0 KECCAK256 PUSH1 0x0 ADD PUSH1 0x8 SWAP1 SLOAD SWAP1 PUSH2 0x100 EXP SWAP1 DIV PUSH8 0xFFFFFFFFFFFFFFFF AND DUP7 PUSH1 0x40 MLOAD PUSH2 0xCEB SWAP4 SWAP3 SWAP2 SWAP1 PUSH2 0x2CCB JUMP JUMPDEST PUSH1 0x40 MLOAD DUP1 SWAP2 SUB SWAP1 LOG3 POP POP POP POP JUMP JUMPDEST PUSH2 0xD01 PUSH2 0x1C8C JUMP JUMPDEST PUSH1 0x0 PUSH1 0x4 PUSH1 0x0 DUP4 DUP2 MSTORE PUSH1 0x20 ADD SWAP1 DUP2 MSTORE PUSH1 0x20 ADD PUSH1 0x0 KECCAK256 SWAP1 POP DUP1 PUSH1 0x0 ADD PUSH1 0x11 SWAP1 SLOAD SWAP1 PUSH2 0x100 EXP SWAP1 DIV PUSH1 0xFF AND PUSH2 0xD60 JUMPI PUSH1 0x40 MLOAD PUSH32 0x1599198500000000000000000000000000000000000000000000000000000000 DUP2 MSTORE PUSH1 0x4 ADD PUSH1 0x40 MLOAD DUP1 SWAP2 SUB SWAP1 REVERT JUMPDEST DUP1 PUSH1 0x0 ADD PUSH1 0x13 SWAP1 SLOAD SWAP1 PUSH2 0x100 EXP SWAP1 DIV PUSH1 0xFF AND ISZERO PUSH2 0xDA9 JUMPI PUSH1 0x40 MLOAD PUSH32 0x5F1AA4C900000000000000000000000000000000000000000000000000000000 DUP2 MSTORE PUSH1 0x4 ADD PUSH1 0x40 MLOAD DUP1 SWAP2 SUB SWAP1 REVERT JUMPDEST PUSH1 0x7 PUSH1 0x0 DUP4 DUP2 MSTORE PUSH1 0x20 ADD SWAP1 DUP2 MSTORE PUSH1 0x20 ADD PUSH1 0x0 KECCAK256 PUSH1 0x0 CALLER PUSH20 0xFFFFFFFFFFFFFFFFFFFFFFFFFFFFFFFFFFFFFFFF AND PUSH20 0xFFFFFFFFFFFFFFFFFFFFFFFFFFFFFFFFFFFFFFFF AND DUP2 MSTORE PUSH1 0x20 ADD SWAP1 DUP2 MSTORE PUSH1 0x20 ADD PUSH1 0x0 KECCAK256 PUSH1 0x0 SWAP1 SLOAD SWAP1 PUSH2 0x100 EXP SWAP1 DIV PUSH1 0xFF AND ISZERO PUSH2 0xE3E JUMPI PUSH1 0x40 MLOAD PUSH32 0xE4F5BD5900000000000000000000000000000000000000000000000000000000 DUP2 MSTORE PUSH1 0x4 ADD PUSH1 0x40 MLOAD DUP1 SWAP2 SUB SWAP1 REVERT JUMPDEST PUSH1 0x0 DUP2 PUSH1 0x0 ADD PUSH1 0x12 SWAP1 SLOAD SWAP1 PUSH2 0x100 EXP SWAP1 DIV PUSH1 0xFF AND PUSH2 0xEAB JUMPI PUSH1 0x6 PUSH1 0x0 DUP5 DUP2 MSTORE PUSH1 0x20 ADD SWAP1 DUP2 MSTORE PUSH1 0x20 ADD PUSH1 0x0 KECCAK256 PUSH1 0x0 CALLER PUSH20 0xFFFFFFFFFFFFFFFFFFFFFFFFFFFFFFFFFFFFFFFF AND PUSH20 0xFFFFFFFFFFFFFFFFFFFFFFFFFFFFFFFFFFFFFFFF AND DUP2 MSTORE PUSH1 0x20 ADD SWAP1 DUP2 MSTORE PUSH1 0x20 ADD PUSH1 0x0 KECCAK256 PUSH2 0xEFC JUMP JUMPDEST PUSH1 0x5 PUSH1 0x0 DUP5 DUP2 MSTORE PUSH1 0x20 ADD SWAP1 DUP2 MSTORE PUSH1 0x20 ADD PUSH1 0x0 KECCAK256 PUSH1 0x0 CALLER PUSH20 0xFFFFFFFFFFFFFFFFFFFFFFFFFFFFFFFFFFFFFFFF AND PUSH20 0xFFFFFFFFFFFFFFFFFFFFFFFFFFFFFFFFFFFFFFFF AND DUP2 MSTORE PUSH1 0x20 ADD SWAP1 DUP2 MSTORE PUSH1 0x20 ADD PUSH1 0x0 KECCAK256 JUMPDEST SWAP1 POP PUSH1 0x0 DUP2 PUSH1 0x1 ADD SLOAD SWAP1 POP PUSH1 0x0 DUP2 SUB PUSH2 0xF41 JUMPI PUSH1 0x40 MLOAD PUSH32 0x95E3A2C300000000000000000000000000000000000000000000000000000000 DUP2 MSTORE PUSH1 0x4 ADD PUSH1 0x40 MLOAD DUP1 SWAP2 SUB SWAP1 REVERT JUMPDEST PUSH1 0x0 DUP4 PUSH1 0x0 ADD PUSH1 0x12 SWAP1 SLOAD SWAP1 PUSH2 0x100 EXP SWAP1 DIV PUSH1 0xFF AND PUSH2 0xF63 JUMPI DUP4 PUSH1 0x2 ADD SLOAD PUSH2 0xF69 JUMP JUMPDEST DUP4 PUSH1 0x1 ADD SLOAD JUMPDEST SWAP1 POP PUSH1 0x0 DUP5 PUSH1 0x2 ADD SLOAD DUP6 PUSH1 0x1 ADD SLOAD PUSH2 0xF81 SWAP2 SWAP1 PUSH2 0x2C97 JUMP JUMPDEST SWAP1 POP PUSH1 0x0 DUP5 PUSH1 0x1 ADD DUP2 SWAP1 SSTORE POP PUSH1 0x0 DUP5 PUSH1 0x0 ADD DUP2 SWAP1 SSTORE POP PUSH1 0x1 PUSH1 0x7 PUSH1 0x0 DUP9 DUP2 MSTORE PUSH1 0x20 ADD SWAP1 DUP2 MSTORE PUSH1 0x20 ADD PUSH1 0x0 KECCAK256 PUSH1 0x0 CALLER PUSH20 0xFFFFFFFFFFFFFFFFFFFFFFFFFFFFFFFFFFFFFFFF AND PUSH20 0xFFFFFFFFFFFFFFFFFFFFFFFFFFFFFFFFFFFFFFFF AND DUP2 MSTORE PUSH1 0x20 ADD SWAP1 DUP2 MSTORE PUSH1 0x20 ADD PUSH1 0x0 KECCAK256 PUSH1 0x0 PUSH2 0x100 EXP DUP2 SLOAD DUP2 PUSH1 0xFF MUL NOT AND SWAP1 DUP4 ISZERO ISZERO MUL OR SWAP1 SSTORE POP PUSH1 0x0 DUP3 DUP5 DUP4 PUSH2 0x100F SWAP2 SWAP1 PUSH2 0x2D02 JUMP JUMPDEST PUSH2 0x1019 SWAP2 SWAP1 PUSH2 0x2D73 JUMP JUMPDEST SWAP1 POP PUSH2 0x1066 CALLER DUP3 PUSH32 0x0 PUSH20 0xFFFFFFFFFFFFFFFFFFFFFFFFFFFFFFFFFFFFFFFF AND PUSH2 0x2056 SWAP1 SWAP3 SWAP2 SWAP1 PUSH4 0xFFFFFFFF AND JUMP JUMPDEST DUP7 CALLER PUSH20 0xFFFFFFFFFFFFFFFFFFFFFFFFFFFFFFFFFFFFFFFF AND PUSH32 0x987D620F307FF6B94D58743CB7A7509F24071586A77759B77C2D4E29F75A2F9A DUP4 PUSH1 0x40 MLOAD PUSH2 0x10AD SWAP2 SWAP1 PUSH2 0x2805 JUMP JUMPDEST PUSH1 0x40 MLOAD DUP1 SWAP2 SUB SWAP1 LOG3 POP POP POP POP POP POP PUSH2 0x10C3 PUSH2 0x204D JUMP JUMPDEST POP JUMP JUMPDEST PUSH1 0x6 PUSH1 0x20 MSTORE DUP2 PUSH1 0x0 MSTORE PUSH1 0x40 PUSH1 0x0 KECCAK256 PUSH1 0x20 MSTORE DUP1 PUSH1 0x0 MSTORE PUSH1 0x40 PUSH1 0x0 KECCAK256 PUSH1 0x0 SWAP2 POP SWAP2 POP POP DUP1 PUSH1 0x0 ADD SLOAD SWAP1 DUP1 PUSH1 0x1 ADD SLOAD SWAP1 POP DUP3 JUMP JUMPDEST PUSH1 0x0 DUP3 DUP3 DUP2 ADD SWAP1 PUSH2 0x1108 SWAP2 SWAP1 PUSH2 0x26C3 JUMP JUMPDEST SWAP1 POP PUSH2 0x1113 DUP2 PUSH2 0x111E JUMP JUMPDEST POP POP POP JUMP JUMPDEST PUSH1 0x8 SLOAD DUP2 JUMP JUMPDEST PUSH1 0x0 DUP2 EQ DUP1 PUSH2 0x112E JUMPI POP PUSH1 0x3 SLOAD DUP2 GT JUMPDEST ISZERO PUSH2 0x1165 JUMPI PUSH1 0x40 MLOAD PUSH32 0x5F1AA4C900000000000000000000000000000000000000000000000000000000 DUP2 MSTORE PUSH1 0x4 ADD PUSH1 0x40 MLOAD DUP1 SWAP2 SUB SWAP1 REVERT JUMPDEST PUSH1 0x0 PUSH1 0x4 PUSH1 0x0 DUP4 DUP2 MSTORE PUSH1 0x20 ADD SWAP1 DUP2 MSTORE PUSH1 0x20 ADD PUSH1 0x0 KECCAK256 SWAP1 POP DUP1 PUSH1 0x0 ADD PUSH1 0x10 SWAP1 SLOAD SWAP1 PUSH2 0x100 EXP SWAP1 DIV PUSH1 0xFF AND PUSH2 0x11C4 JUMPI PUSH1 0x40 MLOAD PUSH32 0x4A33385D00000000000000000000000000000000000000000000000000000000 DUP2 MSTORE PUSH1 0x4 ADD PUSH1 0x40 MLOAD DUP1 SWAP2 SUB SWAP1 REVERT JUMPDEST DUP1 PUSH1 0x0 ADD PUSH1 0x11 SWAP1 SLOAD SWAP1 PUSH2 0x100 EXP SWAP1 DIV PUSH1 0xFF AND ISZERO PUSH2 0x120D JUMPI PUSH1 0x40 MLOAD PUSH32 0x5F1AA4C900000000000000000000000000000000000000000000000000000000 DUP2 MSTORE PUSH1 0x4 ADD PUSH1 0x40 MLOAD DUP1 SWAP2 SUB SWAP1 REVERT JUMPDEST PUSH1 0x0 DUP1 DUP3 PUSH1 0x1 ADD SLOAD GT SWAP1 POP PUSH1 0x0 DUP1 DUP4 PUSH1 0x2 ADD SLOAD GT SWAP1 POP PUSH1 0x0 PUSH1 0x3C DUP5 PUSH1 0x0 ADD PUSH1 0x0 SWAP1 SLOAD SWAP1 PUSH2 0x100 EXP SWAP1 DIV PUSH8 0xFFFFFFFFFFFFFFFF AND PUSH2 0x124A SWAP2 SWAP1 PUSH2 0x2DA4 JUMP JUMPDEST SWAP1 POP DUP3 DUP1 ISZERO PUSH2 0x1256 JUMPI POP DUP2 JUMPDEST ISZERO PUSH2 0x13B8 JUMPI DUP4 PUSH1 0x0 ADD PUSH1 0x8 SWAP1 SLOAD SWAP1 PUSH2 0x100 EXP SWAP1 DIV PUSH8 0xFFFFFFFFFFFFFFFF AND PUSH8 0xFFFFFFFFFFFFFFFF AND TIMESTAMP LT ISZERO PUSH2 0x12B7 JUMPI PUSH1 0x40 MLOAD PUSH32 0xF6B24B3C00000000000000000000000000000000000000000000000000000000 DUP2 MSTORE PUSH1 0x4 ADD PUSH1 0x40 MLOAD DUP1 SWAP2 SUB SWAP1 REVERT JUMPDEST PUSH1 0x0 PUSH2 0x12C6 DUP6 PUSH1 0x4 ADD SLOAD PUSH2 0x215C JUMP JUMPDEST SWAP1 POP DUP1 DUP6 PUSH1 0x6 ADD DUP2 SWAP1 SSTORE POP PUSH1 0x0 DUP6 PUSH1 0x0 ADD PUSH1 0x10 PUSH2 0x100 EXP DUP2 SLOAD DUP2 PUSH1 0xFF MUL NOT AND SWAP1 DUP4 ISZERO ISZERO MUL OR SWAP1 SSTORE POP PUSH1 0x1 DUP6 PUSH1 0x0 ADD PUSH1 0x11 PUSH2 0x100 EXP DUP2 SLOAD DUP2 PUSH1 0xFF MUL NOT AND SWAP1 DUP4 ISZERO ISZERO MUL OR SWAP1 SSTORE POP DUP5 PUSH1 0x5 ADD SLOAD DUP2 SUB PUSH2 0x1355 JUMPI PUSH1 0x1 DUP6 PUSH1 0x0 ADD PUSH1 0x13 PUSH2 0x100 EXP DUP2 SLOAD DUP2 PUSH1 0xFF MUL NOT AND SWAP1 DUP4 ISZERO ISZERO MUL OR SWAP1 SSTORE POP PUSH1 0x0 DUP6 PUSH1 0x0 ADD PUSH1 0x12 PUSH2 0x100 EXP DUP2 SLOAD DUP2 PUSH1 0xFF MUL NOT AND SWAP1 DUP4 ISZERO ISZERO MUL OR SWAP1 SSTORE POP PUSH2 0x13B2 JUMP JUMPDEST PUSH1 0x0 DUP6 PUSH1 0x0 ADD PUSH1 0x13 PUSH2 0x100 EXP DUP2 SLOAD DUP2 PUSH1 0xFF MUL NOT AND SWAP1 DUP4 ISZERO ISZERO MUL OR SWAP1 SSTORE POP DUP5 PUSH1 0x5 ADD SLOAD DUP2 SGT DUP6 PUSH1 0x0 ADD PUSH1 0x12 PUSH2 0x100 EXP DUP2 SLOAD DUP2 PUSH1 0xFF MUL NOT AND SWAP1 DUP4 ISZERO ISZERO MUL OR SWAP1 SSTORE POP DUP5 PUSH1 0x3 ADD SLOAD PUSH1 0x8 PUSH1 0x0 DUP3 DUP3 SLOAD PUSH2 0x13AA SWAP2 SWAP1 PUSH2 0x2C97 JUMP JUMPDEST SWAP3 POP POP DUP2 SWAP1 SSTORE POP JUMPDEST POP PUSH2 0x1471 JUMP JUMPDEST DUP1 PUSH8 0xFFFFFFFFFFFFFFFF AND TIMESTAMP LT ISZERO PUSH2 0x13FC JUMPI PUSH1 0x40 MLOAD PUSH32 0xF6B24B3C00000000000000000000000000000000000000000000000000000000 DUP2 MSTORE PUSH1 0x4 ADD PUSH1 0x40 MLOAD DUP1 SWAP2 SUB SWAP1 REVERT JUMPDEST PUSH1 0x0 DUP5 PUSH1 0x0 ADD PUSH1 0x10 PUSH2 0x100 EXP DUP2 SLOAD DUP2 PUSH1 0xFF MUL NOT AND SWAP1 DUP4 ISZERO ISZERO MUL OR SWAP1 SSTORE POP PUSH1 0x1 DUP5 PUSH1 0x0 ADD PUSH1 0x11 PUSH2 0x100 EXP DUP2 SLOAD DUP2 PUSH1 0xFF MUL NOT AND SWAP1 DUP4 ISZERO ISZERO MUL OR SWAP1 SSTORE POP PUSH1 0x1 DUP5 PUSH1 0x0 ADD PUSH1 0x13 PUSH2 0x100 EXP DUP2 SLOAD DUP2 PUSH1 0xFF MUL NOT AND SWAP1 DUP4 ISZERO ISZERO MUL OR SWAP1 SSTORE POP PUSH1 0x0 DUP5 PUSH1 0x0 ADD PUSH1 0x12 PUSH2 0x100 EXP DUP2 SLOAD DUP2 PUSH1 0xFF MUL NOT AND SWAP1 DUP4 ISZERO ISZERO MUL OR SWAP1 SSTORE POP JUMPDEST DUP5 PUSH32 0x69331D80F7B8F74FEFFBA6031B46632ADA6CD5297FA1FFD2AFBFD350394510FF DUP6 PUSH1 0x0 ADD PUSH1 0x13 SWAP1 SLOAD SWAP1 PUSH2 0x100 EXP SWAP1 DIV PUSH1 0xFF AND DUP7 PUSH1 0x0 ADD PUSH1 0x12 SWAP1 SLOAD SWAP1 PUSH2 0x100 EXP SWAP1 DIV PUSH1 0xFF AND DUP8 PUSH1 0x5 ADD SLOAD DUP9 PUSH1 0x6 ADD SLOAD PUSH1 0x40 MLOAD PUSH2 0x14D1 SWAP5 SWAP4 SWAP3 SWAP2 SWAP1 PUSH2 0x2DE0 JUMP JUMPDEST PUSH1 0x40 MLOAD DUP1 SWAP2 SUB SWAP1 LOG2 POP POP POP POP POP JUMP JUMPDEST PUSH2 0x14E8 PUSH2 0x20D5 JUMP JUMPDEST PUSH1 0x0 PUSH20 0xFFFFFFFFFFFFFFFFFFFFFFFFFFFFFFFFFFFFFFFF AND DUP2 PUSH20 0xFFFFFFFFFFFFFFFFFFFFFFFFFFFFFFFFFFFFFFFF AND SUB PUSH2 0x1557 JUMPI PUSH1 0x40 MLOAD PUSH32 0x8C379A000000000000000000000000000000000000000000000000000000000 DUP2 MSTORE PUSH1 0x4 ADD PUSH2 0x154E SWAP1 PUSH2 0x2E82 JUMP JUMPDEST PUSH1 0x40 MLOAD DUP1 SWAP2 SUB SWAP1 REVERT JUMPDEST PUSH1 0x40 MLOAD DUP1 PUSH1 0x40 ADD PUSH1 0x40 MSTORE DUP1 DUP3 PUSH20 0xFFFFFFFFFFFFFFFFFFFFFFFFFFFFFFFFFFFFFFFF AND DUP2 MSTORE PUSH1 0x20 ADD PUSH1 0x1 ISZERO ISZERO DUP2 MSTORE POP PUSH1 0x2 PUSH1 0x0 DUP5 DUP2 MSTORE PUSH1 0x20 ADD SWAP1 DUP2 MSTORE PUSH1 0x20 ADD PUSH1 0x0 KECCAK256 PUSH1 0x0 DUP3 ADD MLOAD DUP2 PUSH1 0x0 ADD PUSH1 0x0 PUSH2 0x100 EXP DUP2 SLOAD DUP2 PUSH20 0xFFFFFFFFFFFFFFFFFFFFFFFFFFFFFFFFFFFFFFFF MUL NOT AND SWAP1 DUP4 PUSH20 0xFFFFFFFFFFFFFFFFFFFFFFFFFFFFFFFFFFFFFFFF AND MUL OR SWAP1 SSTORE POP PUSH1 0x20 DUP3 ADD MLOAD DUP2 PUSH1 0x0 ADD PUSH1 0x14 PUSH2 0x100 EXP DUP2 SLOAD DUP2 PUSH1 0xFF MUL NOT AND SWAP1 DUP4 ISZERO ISZERO MUL OR SWAP1 SSTORE POP SWAP1 POP POP DUP2 PUSH32 0x3CA3906A1ACC14AEE692A58B74EA4D433D5B33625FC29E6F1CFBAC4DF9EE7F1E DUP3 PUSH1 0x40 MLOAD PUSH2 0x1632 SWAP2 SWAP1 PUSH2 0x2AD7 JUMP JUMPDEST PUSH1 0x40 MLOAD DUP1 SWAP2 SUB SWAP1 LOG2 POP POP JUMP JUMPDEST PUSH1 0x0 PUSH1 0x60 PUSH1 0x0 PUSH1 0x3 SLOAD SWAP1 POP PUSH1 0x0 DUP2 SUB PUSH2 0x166D JUMPI PUSH1 0x0 PUSH1 0x40 MLOAD DUP1 PUSH1 0x20 ADD PUSH1 0x40 MSTORE DUP1 PUSH1 0x0 DUP2 MSTORE POP SWAP3 POP SWAP3 POP POP PUSH2 0x179D JUMP JUMPDEST PUSH1 0x0 PUSH1 0x4 PUSH1 0x0 DUP4 DUP2 MSTORE PUSH1 0x20 ADD SWAP1 DUP2 MSTORE PUSH1 0x20 ADD PUSH1 0x0 KECCAK256 SWAP1 POP DUP1 PUSH1 0x0 ADD PUSH1 0x10 SWAP1 SLOAD SWAP1 PUSH2 0x100 EXP SWAP1 DIV PUSH1 0xFF AND ISZERO DUP1 PUSH2 0x16B0 JUMPI POP DUP1 PUSH1 0x0 ADD PUSH1 0x11 SWAP1 SLOAD SWAP1 PUSH2 0x100 EXP SWAP1 DIV PUSH1 0xFF AND JUMPDEST ISZERO PUSH2 0x16D2 JUMPI PUSH1 0x0 PUSH1 0x40 MLOAD DUP1 PUSH1 0x20 ADD PUSH1 0x40 MSTORE DUP1 PUSH1 0x0 DUP2 MSTORE POP SWAP4 POP SWAP4 POP POP POP PUSH2 0x179D JUMP JUMPDEST PUSH1 0x0 DUP1 DUP3 PUSH1 0x1 ADD SLOAD GT SWAP1 POP PUSH1 0x0 DUP1 DUP4 PUSH1 0x2 ADD SLOAD GT SWAP1 POP PUSH1 0x0 PUSH1 0x3C DUP5 PUSH1 0x0 ADD PUSH1 0x0 SWAP1 SLOAD SWAP1 PUSH2 0x100 EXP SWAP1 DIV PUSH8 0xFFFFFFFFFFFFFFFF AND PUSH2 0x170F SWAP2 SWAP1 PUSH2 0x2DA4 JUMP JUMPDEST SWAP1 POP PUSH1 0x0 DUP4 DUP1 ISZERO PUSH2 0x171D JUMPI POP DUP3 JUMPDEST PUSH2 0x1727 JUMPI DUP2 PUSH2 0x1741 JUMP JUMPDEST DUP5 PUSH1 0x0 ADD PUSH1 0x8 SWAP1 SLOAD SWAP1 PUSH2 0x100 EXP SWAP1 DIV PUSH8 0xFFFFFFFFFFFFFFFF AND JUMPDEST SWAP1 POP DUP1 PUSH8 0xFFFFFFFFFFFFFFFF AND TIMESTAMP LT PUSH2 0x177F JUMPI PUSH1 0x1 SWAP8 POP DUP6 PUSH1 0x40 MLOAD PUSH1 0x20 ADD PUSH2 0x1769 SWAP2 SWAP1 PUSH2 0x2805 JUMP JUMPDEST PUSH1 0x40 MLOAD PUSH1 0x20 DUP2 DUP4 SUB SUB DUP2 MSTORE SWAP1 PUSH1 0x40 MSTORE SWAP7 POP PUSH2 0x1796 JUMP JUMPDEST PUSH1 0x0 SWAP8 POP PUSH1 0x40 MLOAD DUP1 PUSH1 0x20 ADD PUSH1 0x40 MSTORE DUP1 PUSH1 0x0 DUP2 MSTORE POP SWAP7 POP JUMPDEST POP POP POP POP POP POP JUMPDEST SWAP3 POP SWAP3 SWAP1 POP JUMP JUMPDEST PUSH2 0x17AC PUSH2 0x20D5 JUMP JUMPDEST PUSH2 0x17B6 PUSH1 0x0 PUSH2 0x2347 JUMP JUMPDEST JUMP JUMPDEST PUSH1 0x2 PUSH1 0x20 MSTORE DUP1 PUSH1 0x0 MSTORE PUSH1 0x40 PUSH1 0x0 KECCAK256 PUSH1 0x0 SWAP2 POP SWAP1 POP DUP1 PUSH1 0x0 ADD PUSH1 0x0 SWAP1 SLOAD SWAP1 PUSH2 0x100 EXP SWAP1 DIV PUSH20 0xFFFFFFFFFFFFFFFFFFFFFFFFFFFFFFFFFFFFFFFF AND SWAP1 DUP1 PUSH1 0x0 ADD PUSH1 0x14 SWAP1 SLOAD SWAP1 PUSH2 0x100 EXP SWAP1 DIV PUSH1 0xFF AND SWAP1 POP DUP3 JUMP JUMPDEST PUSH1 0x64 DUP2 JUMP JUMPDEST PUSH1 0x4 PUSH1 0x20 MSTORE DUP1 PUSH1 0x0 MSTORE PUSH1 0x40 PUSH1 0x0 KECCAK256 PUSH1 0x0 SWAP2 POP SWAP1 POP DUP1 PUSH1 0x0 ADD PUSH1 0x0 SWAP1 SLOAD SWAP1 PUSH2 0x100 EXP SWAP1 DIV PUSH8 0xFFFFFFFFFFFFFFFF AND SWAP1 DUP1 PUSH1 0x0 ADD PUSH1 0x8 SWAP1 SLOAD SWAP1 PUSH2 0x100 EXP SWAP1 DIV PUSH8 0xFFFFFFFFFFFFFFFF AND SWAP1 DUP1 PUSH1 0x0 ADD PUSH1 0x10 SWAP1 SLOAD SWAP1 PUSH2 0x100 EXP SWAP1 DIV PUSH1 0xFF AND SWAP1 DUP1 PUSH1 0x0 ADD PUSH1 0x11 SWAP1 SLOAD SWAP1 PUSH2 0x100 EXP SWAP1 DIV PUSH1 0xFF AND SWAP1 DUP1 PUSH1 0x0 ADD PUSH1 0x12 SWAP1 SLOAD SWAP1 PUSH2 0x100 EXP SWAP1 DIV PUSH1 0xFF AND SWAP1 DUP1 PUSH1 0x0 ADD PUSH1 0x13 SWAP1 SLOAD SWAP1 PUSH2 0x100 EXP SWAP1 DIV PUSH1 0xFF AND SWAP1 DUP1 PUSH1 0x1 ADD SLOAD SWAP1 DUP1 PUSH1 0x2 ADD SLOAD SWAP1 DUP1 PUSH1 0x3 ADD SLOAD SWAP1 DUP1 PUSH1 0x4 ADD SLOAD SWAP1 DUP1 PUSH1 0x5 ADD SLOAD SWAP1 DUP1 PUSH1 0x6 ADD SLOAD SWAP1 POP DUP13 JUMP JUMPDEST PUSH1 0x0 DUP1 PUSH1 0x0 SWAP1 SLOAD SWAP1 PUSH2 0x100 EXP SWAP1 DIV PUSH20 0xFFFFFFFFFFFFFFFFFFFFFFFFFFFFFFFFFFFFFFFF AND SWAP1 POP SWAP1 JUMP JUMPDEST PUSH1 0xC8 DUP2 JUMP JUMPDEST PUSH1 0x3 SLOAD DUP2 JUMP JUMPDEST PUSH2 0x1906 PUSH2 0x20D5 JUMP JUMPDEST PUSH2 0x190E PUSH2 0x1C8C JUMP JUMPDEST PUSH1 0x0 PUSH20 0xFFFFFFFFFFFFFFFFFFFFFFFFFFFFFFFFFFFFFFFF AND DUP3 PUSH20 0xFFFFFFFFFFFFFFFFFFFFFFFFFFFFFFFFFFFFFFFF AND SUB PUSH2 0x197D JUMPI PUSH1 0x40 MLOAD PUSH32 0x8C379A000000000000000000000000000000000000000000000000000000000 DUP2 MSTORE PUSH1 0x4 ADD PUSH2 0x1974 SWAP1 PUSH2 0x2EEE JUMP JUMPDEST PUSH1 0x40 MLOAD DUP1 SWAP2 SUB SWAP1 REVERT JUMPDEST PUSH1 0x8 SLOAD DUP2 GT ISZERO PUSH2 0x19C2 JUMPI PUSH1 0x40 MLOAD PUSH32 0x8C379A000000000000000000000000000000000000000000000000000000000 DUP2 MSTORE PUSH1 0x4 ADD PUSH2 0x19B9 SWAP1 PUSH2 0x2F5A JUMP JUMPDEST PUSH1 0x40 MLOAD DUP1 SWAP2 SUB SWAP1 REVERT JUMPDEST DUP1 PUSH1 0x8 PUSH1 0x0 DUP3 DUP3 SLOAD PUSH2 0x19D4 SWAP2 SWAP1 PUSH2 0x2F7A JUMP JUMPDEST SWAP3 POP POP DUP2 SWAP1 SSTORE POP PUSH2 0x1A26 DUP3 DUP3 PUSH32 0x0 PUSH20 0xFFFFFFFFFFFFFFFFFFFFFFFFFFFFFFFFFFFFFFFF AND PUSH2 0x2056 SWAP1 SWAP3 SWAP2 SWAP1 PUSH4 0xFFFFFFFF AND JUMP JUMPDEST DUP2 PUSH20 0xFFFFFFFFFFFFFFFFFFFFFFFFFFFFFFFFFFFFFFFF AND PUSH32 0xC0819C13BE868895EB93E40EACEB96DE976442FA1D404E5C55F14BB65A8C489A DUP3 PUSH1 0x40 MLOAD PUSH2 0x1A6C SWAP2 SWAP1 PUSH2 0x2805 JUMP JUMPDEST PUSH1 0x40 MLOAD DUP1 SWAP2 SUB SWAP1 LOG2 PUSH2 0x1A7C PUSH2 0x204D JUMP JUMPDEST POP POP JUMP JUMPDEST PUSH2 0x1A88 PUSH2 0x20D5 JUMP JUMPDEST PUSH1 0x0 PUSH1 0x2 PUSH1 0x0 DUP5 DUP2 MSTORE PUSH1 0x20 ADD SWAP1 DUP2 MSTORE PUSH1 0x20 ADD PUSH1 0x0 KECCAK256 SWAP1 POP PUSH1 0x0 PUSH20 0xFFFFFFFFFFFFFFFFFFFFFFFFFFFFFFFFFFFFFFFF AND DUP2 PUSH1 0x0 ADD PUSH1 0x0 SWAP1 SLOAD SWAP1 PUSH2 0x100 EXP SWAP1 DIV PUSH20 0xFFFFFFFFFFFFFFFFFFFFFFFFFFFFFFFFFFFFFFFF AND PUSH20 0xFFFFFFFFFFFFFFFFFFFFFFFFFFFFFFFFFFFFFFFF AND SUB PUSH2 0x1B29 JUMPI PUSH1 0x40 MLOAD PUSH32 0x6B7CD6E900000000000000000000000000000000000000000000000000000000 DUP2 MSTORE PUSH1 0x4 ADD PUSH1 0x40 MLOAD DUP1 SWAP2 SUB SWAP1 REVERT JUMPDEST DUP2 DUP2 PUSH1 0x0 ADD PUSH1 0x14 PUSH2 0x100 EXP DUP2 SLOAD DUP2 PUSH1 0xFF MUL NOT AND SWAP1 DUP4 ISZERO ISZERO MUL OR SWAP1 SSTORE POP DUP3 PUSH32 0xF74802A5F03EF3B60653FC5EF30996C42340C6F63AD2A625F0F7D4F996B28F35 DUP4 PUSH1 0x40 MLOAD PUSH2 0x1B75 SWAP2 SWAP1 PUSH2 0x2668 JUMP JUMPDEST PUSH1 0x40 MLOAD DUP1 SWAP2 SUB SWAP1 LOG2 POP POP POP JUMP JUMPDEST PUSH1 0x3C DUP2 JUMP JUMPDEST PUSH1 0x0 DUP1 PUSH1 0x0 PUSH1 0x2 PUSH1 0x0 DUP6 DUP2 MSTORE PUSH1 0x20 ADD SWAP1 DUP2 MSTORE PUSH1 0x20 ADD PUSH1 0x0 KECCAK256 SWAP1 POP DUP1 PUSH1 0x0 ADD PUSH1 0x0 SWAP1 SLOAD SWAP1 PUSH2 0x100 EXP SWAP1 DIV PUSH20 0xFFFFFFFFFFFFFFFFFFFFFFFFFFFFFFFFFFFFFFFF AND DUP2 PUSH1 0x0 ADD PUSH1 0x14 SWAP1 SLOAD SWAP1 PUSH2 0x100 EXP SWAP1 DIV PUSH1 0xFF AND SWAP3 POP SWAP3 POP POP SWAP2 POP SWAP2 JUMP JUMPDEST PUSH32 0x0 DUP2 JUMP JUMPDEST PUSH2 0x1C0E PUSH2 0x20D5 JUMP JUMPDEST PUSH1 0x0 PUSH20 0xFFFFFFFFFFFFFFFFFFFFFFFFFFFFFFFFFFFFFFFF AND DUP2 PUSH20 0xFFFFFFFFFFFFFFFFFFFFFFFFFFFFFFFFFFFFFFFF AND SUB PUSH2 0x1C80 JUMPI PUSH1 0x0 PUSH1 0x40 MLOAD PUSH32 0x1E4FBDF700000000000000000000000000000000000000000000000000000000 DUP2 MSTORE PUSH1 0x4 ADD PUSH2 0x1C77 SWAP2 SWAP1 PUSH2 0x2AD7 JUMP JUMPDEST PUSH1 0x40 MLOAD DUP1 SWAP2 SUB SWAP1 REVERT JUMPDEST PUSH2 0x1C89 DUP2 PUSH2 0x2347 JUMP JUMPDEST POP JUMP JUMPDEST PUSH1 0x2 PUSH1 0x1 SLOAD SUB PUSH2 0x1CC8 JUMPI PUSH1 0x40 MLOAD PUSH32 0x3EE5AEB500000000000000000000000000000000000000000000000000000000 DUP2 MSTORE PUSH1 0x4 ADD PUSH1 0x40 MLOAD DUP1 SWAP2 SUB SWAP1 REVERT JUMPDEST PUSH1 0x2 PUSH1 0x1 DUP2 SWAP1 SSTORE POP JUMP JUMPDEST PUSH1 0x0 DUP3 SUB PUSH2 0x1D0C JUMPI PUSH1 0x40 MLOAD PUSH32 0xC5A7FA0600000000000000000000000000000000000000000000000000000000 DUP2 MSTORE PUSH1 0x4 ADD PUSH1 0x40 MLOAD DUP1 SWAP2 SUB SWAP1 REVERT JUMPDEST PUSH1 0x0 PUSH1 0x4 PUSH1 0x0 DUP6 DUP2 MSTORE PUSH1 0x20 ADD SWAP1 DUP2 MSTORE PUSH1 0x20 ADD PUSH1 0x0 KECCAK256 SWAP1 POP DUP1 PUSH1 0x0 ADD PUSH1 0x10 SWAP1 SLOAD SWAP1 PUSH2 0x100 EXP SWAP1 DIV PUSH1 0xFF AND PUSH2 0x1D6B JUMPI PUSH1 0x40 MLOAD PUSH32 0x4A33385D00000000000000000000000000000000000000000000000000000000 DUP2 MSTORE PUSH1 0x4 ADD PUSH1 0x40 MLOAD DUP1 SWAP2 SUB SWAP1 REVERT JUMPDEST DUP1 PUSH1 0x0 ADD PUSH1 0x8 SWAP1 SLOAD SWAP1 PUSH2 0x100 EXP SWAP1 DIV PUSH8 0xFFFFFFFFFFFFFFFF AND PUSH8 0xFFFFFFFFFFFFFFFF AND TIMESTAMP LT PUSH2 0x1DC6 JUMPI PUSH1 0x40 MLOAD PUSH32 0x32D93BDE00000000000000000000000000000000000000000000000000000000 DUP2 MSTORE PUSH1 0x4 ADD PUSH1 0x40 MLOAD DUP1 SWAP2 SUB SWAP1 REVERT JUMPDEST PUSH1 0x3C DUP2 PUSH1 0x0 ADD PUSH1 0x0 SWAP1 SLOAD SWAP1 PUSH2 0x100 EXP SWAP1 DIV PUSH8 0xFFFFFFFFFFFFFFFF AND PUSH2 0x1DEB SWAP2 SWAP1 PUSH2 0x2DA4 JUMP JUMPDEST PUSH8 0xFFFFFFFFFFFFFFFF AND TIMESTAMP GT ISZERO PUSH2 0x1E2E JUMPI PUSH1 0x40 MLOAD PUSH32 0x32D93BDE00000000000000000000000000000000000000000000000000000000 DUP2 MSTORE PUSH1 0x4 ADD PUSH1 0x40 MLOAD DUP1 SWAP2 SUB SWAP1 REVERT JUMPDEST PUSH2 0x1E7B CALLER ADDRESS DUP6 PUSH32 0x0 PUSH20 0xFFFFFFFFFFFFFFFFFFFFFFFFFFFFFFFFFFFFFFFF AND PUSH2 0x240B SWAP1 SWAP4 SWAP3 SWAP2 SWAP1 PUSH4 0xFFFFFFFF AND JUMP JUMPDEST PUSH1 0x0 PUSH2 0x2710 PUSH1 0xC8 PUSH2 0xFFFF AND DUP6 PUSH2 0x1E91 SWAP2 SWAP1 PUSH2 0x2D02 JUMP JUMPDEST PUSH2 0x1E9B SWAP2 SWAP1 PUSH2 0x2D73 JUMP JUMPDEST SWAP1 POP PUSH1 0x0 DUP2 DUP6 PUSH2 0x1EAB SWAP2 SWAP1 PUSH2 0x2F7A JUMP JUMPDEST SWAP1 POP DUP2 DUP4 PUSH1 0x3 ADD PUSH1 0x0 DUP3 DUP3 SLOAD PUSH2 0x1EC1 SWAP2 SWAP1 PUSH2 0x2C97 JUMP JUMPDEST SWAP3 POP POP DUP2 SWAP1 SSTORE POP PUSH1 0x0 DUP5 PUSH2 0x1F24 JUMPI PUSH1 0x6 PUSH1 0x0 DUP9 DUP2 MSTORE PUSH1 0x20 ADD SWAP1 DUP2 MSTORE PUSH1 0x20 ADD PUSH1 0x0 KECCAK256 PUSH1 0x0 CALLER PUSH20 0xFFFFFFFFFFFFFFFFFFFFFFFFFFFFFFFFFFFFFFFF AND PUSH20 0xFFFFFFFFFFFFFFFFFFFFFFFFFFFFFFFFFFFFFFFF AND DUP2 MSTORE PUSH1 0x20 ADD SWAP1 DUP2 MSTORE PUSH1 0x20 ADD PUSH1 0x0 KECCAK256 PUSH2 0x1F75 JUMP JUMPDEST PUSH1 0x5 PUSH1 0x0 DUP9 DUP2 MSTORE PUSH1 0x20 ADD SWAP1 DUP2 MSTORE PUSH1 0x20 ADD PUSH1 0x0 KECCAK256 PUSH1 0x0 CALLER PUSH20 0xFFFFFFFFFFFFFFFFFFFFFFFFFFFFFFFFFFFFFFFF AND PUSH20 0xFFFFFFFFFFFFFFFFFFFFFFFFFFFFFFFFFFFFFFFF AND DUP2 MSTORE PUSH1 0x20 ADD SWAP1 DUP2 MSTORE PUSH1 0x20 ADD PUSH1 0x0 KECCAK256 JUMPDEST SWAP1 POP DUP6 DUP2 PUSH1 0x0 ADD PUSH1 0x0 DUP3 DUP3 SLOAD PUSH2 0x1F8B SWAP2 SWAP1 PUSH2 0x2C97 JUMP JUMPDEST SWAP3 POP POP DUP2 SWAP1 SSTORE POP DUP2 DUP2 PUSH1 0x1 ADD PUSH1 0x0 DUP3 DUP3 SLOAD PUSH2 0x1FA6 SWAP2 SWAP1 PUSH2 0x2C97 JUMP JUMPDEST SWAP3 POP POP DUP2 SWAP1 SSTORE POP DUP5 ISZERO PUSH2 0x1FD3 JUMPI DUP2 DUP5 PUSH1 0x1 ADD PUSH1 0x0 DUP3 DUP3 SLOAD PUSH2 0x1FC7 SWAP2 SWAP1 PUSH2 0x2C97 JUMP JUMPDEST SWAP3 POP POP DUP2 SWAP1 SSTORE POP PUSH2 0x1FEF JUMP JUMPDEST DUP2 DUP5 PUSH1 0x2 ADD PUSH1 0x0 DUP3 DUP3 SLOAD PUSH2 0x1FE7 SWAP2 SWAP1 PUSH2 0x2C97 JUMP JUMPDEST SWAP3 POP POP DUP2 SWAP1 SSTORE POP JUMPDEST DUP7 CALLER PUSH20 0xFFFFFFFFFFFFFFFFFFFFFFFFFFFFFFFFFFFFFFFF AND PUSH32 0x7C142620A415BCCF516D2845693BA87D21AC09A7FD5B596FC96E46C917D034AC DUP8 DUP10 DUP7 DUP9 PUSH1 0x40 MLOAD PUSH2 0x203C SWAP5 SWAP4 SWAP3 SWAP2 SWAP1 PUSH2 0x2FAE JUMP JUMPDEST PUSH1 0x40 MLOAD DUP1 SWAP2 SUB SWAP1 LOG3 POP POP POP POP POP POP POP JUMP JUMPDEST PUSH1 0x1 DUP1 DUP2 SWAP1 SSTORE POP JUMP JUMPDEST PUSH2 0x20D0 DUP4 DUP5 PUSH20 0xFFFFFFFFFFFFFFFFFFFFFFFFFFFFFFFFFFFFFFFF AND PUSH4 0xA9059CBB DUP6 DUP6 PUSH1 0x40 MLOAD PUSH1 0x24 ADD PUSH2 0x2089 SWAP3 SWAP2 SWAP1 PUSH2 0x2FF3 JUMP JUMPDEST PUSH1 0x40 MLOAD PUSH1 0x20 DUP2 DUP4 SUB SUB DUP2 MSTORE SWAP1 PUSH1 0x40 MSTORE SWAP2 POP PUSH1 0xE0 SHL PUSH1 0x20 DUP3 ADD DUP1 MLOAD PUSH28 0xFFFFFFFFFFFFFFFFFFFFFFFFFFFFFFFFFFFFFFFFFFFFFFFFFFFFFFFF DUP4 DUP2 DUP4 AND OR DUP4 MSTORE POP POP POP POP PUSH2 0x248D JUMP JUMPDEST POP POP POP JUMP JUMPDEST PUSH2 0x20DD PUSH2 0x252F JUMP JUMPDEST PUSH20 0xFFFFFFFFFFFFFFFFFFFFFFFFFFFFFFFFFFFFFFFF AND PUSH2 0x20FB PUSH2 0x18CA JUMP JUMPDEST PUSH20 0xFFFFFFFFFFFFFFFFFFFFFFFFFFFFFFFFFFFFFFFF AND EQ PUSH2 0x215A JUMPI PUSH2 0x211E PUSH2 0x252F JUMP JUMPDEST PUSH1 0x40 MLOAD PUSH32 0x118CDAA700000000000000000000000000000000000000000000000000000000 DUP2 MSTORE PUSH1 0x4 ADD PUSH2 0x2151 SWAP2 SWAP1 PUSH2 0x2AD7 JUMP JUMPDEST PUSH1 0x40 MLOAD DUP1 SWAP2 SUB SWAP1 REVERT JUMPDEST JUMP JUMPDEST PUSH1 0x0 DUP1 PUSH1 0x2 PUSH1 0x0 DUP5 DUP2 MSTORE PUSH1 0x20 ADD SWAP1 DUP2 MSTORE PUSH1 0x20 ADD PUSH1 0x0 KECCAK256 SWAP1 POP DUP1 PUSH1 0x0 ADD PUSH1 0x14 SWAP1 SLOAD SWAP1 PUSH2 0x100 EXP SWAP1 DIV PUSH1 0xFF AND ISZERO DUP1 PUSH2 0x21E2 JUMPI POP PUSH1 0x0 PUSH20 0xFFFFFFFFFFFFFFFFFFFFFFFFFFFFFFFFFFFFFFFF AND DUP2 PUSH1 0x0 ADD PUSH1 0x0 SWAP1 SLOAD SWAP1 PUSH2 0x100 EXP SWAP1 DIV PUSH20 0xFFFFFFFFFFFFFFFFFFFFFFFFFFFFFFFFFFFFFFFF AND PUSH20 0xFFFFFFFFFFFFFFFFFFFFFFFFFFFFFFFFFFFFFFFF AND EQ JUMPDEST ISZERO PUSH2 0x2219 JUMPI PUSH1 0x40 MLOAD PUSH32 0x6B7CD6E900000000000000000000000000000000000000000000000000000000 DUP2 MSTORE PUSH1 0x4 ADD PUSH1 0x40 MLOAD DUP1 SWAP2 SUB SWAP1 REVERT JUMPDEST PUSH1 0x0 DUP1 DUP3 PUSH1 0x0 ADD PUSH1 0x0 SWAP1 SLOAD SWAP1 PUSH2 0x100 EXP SWAP1 DIV PUSH20 0xFFFFFFFFFFFFFFFFFFFFFFFFFFFFFFFFFFFFFFFF AND PUSH20 0xFFFFFFFFFFFFFFFFFFFFFFFFFFFFFFFFFFFFFFFF AND PUSH4 0xFEAF968C PUSH1 0x40 MLOAD DUP2 PUSH4 0xFFFFFFFF AND PUSH1 0xE0 SHL DUP2 MSTORE PUSH1 0x4 ADD PUSH1 0xA0 PUSH1 0x40 MLOAD DUP1 DUP4 SUB DUP2 DUP7 GAS STATICCALL ISZERO DUP1 ISZERO PUSH2 0x228B JUMPI RETURNDATASIZE PUSH1 0x0 DUP1 RETURNDATACOPY RETURNDATASIZE PUSH1 0x0 REVERT JUMPDEST POP POP POP POP PUSH1 0x40 MLOAD RETURNDATASIZE PUSH1 0x1F NOT PUSH1 0x1F DUP3 ADD AND DUP3 ADD DUP1 PUSH1 0x40 MSTORE POP DUP2 ADD SWAP1 PUSH2 0x22AF SWAP2 SWAP1 PUSH2 0x309F JUMP JUMPDEST POP SWAP4 POP POP SWAP3 POP POP PUSH1 0x0 DUP3 SGT PUSH2 0x22F9 JUMPI PUSH1 0x40 MLOAD PUSH32 0x8C379A000000000000000000000000000000000000000000000000000000000 DUP2 MSTORE PUSH1 0x4 ADD PUSH2 0x22F0 SWAP1 PUSH2 0x3166 JUMP JUMPDEST PUSH1 0x40 MLOAD DUP1 SWAP2 SUB SWAP1 REVERT JUMPDEST PUSH1 0x0 DUP2 SUB PUSH2 0x233C JUMPI PUSH1 0x40 MLOAD PUSH32 0x8C379A000000000000000000000000000000000000000000000000000000000 DUP2 MSTORE PUSH1 0x4 ADD PUSH2 0x2333 SWAP1 PUSH2 0x31D2 JUMP JUMPDEST PUSH1 0x40 MLOAD DUP1 SWAP2 SUB SWAP1 REVERT JUMPDEST DUP2 SWAP4 POP POP POP POP SWAP2 SWAP1 POP JUMP JUMPDEST PUSH1 0x0 DUP1 PUSH1 0x0 SWAP1 SLOAD SWAP1 PUSH2 0x100 EXP SWAP1 DIV PUSH20 0xFFFFFFFFFFFFFFFFFFFFFFFFFFFFFFFFFFFFFFFF AND SWAP1 POP DUP2 PUSH1 0x0 DUP1 PUSH2 0x100 EXP DUP2 SLOAD DUP2 PUSH20 0xFFFFFFFFFFFFFFFFFFFFFFFFFFFFFFFFFFFFFFFF MUL NOT AND SWAP1 DUP4 PUSH20 0xFFFFFFFFFFFFFFFFFFFFFFFFFFFFFFFFFFFFFFFF AND MUL OR SWAP1 SSTORE POP DUP2 PUSH20 0xFFFFFFFFFFFFFFFFFFFFFFFFFFFFFFFFFFFFFFFF AND DUP2 PUSH20 0xFFFFFFFFFFFFFFFFFFFFFFFFFFFFFFFFFFFFFFFF AND PUSH32 0x8BE0079C531659141344CD1FD0A4F28419497F9722A3DAAFE3B4186F6B6457E0 PUSH1 0x40 MLOAD PUSH1 0x40 MLOAD DUP1 SWAP2 SUB SWAP1 LOG3 POP POP JUMP JUMPDEST PUSH2 0x2487 DUP5 DUP6 PUSH20 0xFFFFFFFFFFFFFFFFFFFFFFFFFFFFFFFFFFFFFFFF AND PUSH4 0x23B872DD DUP7 DUP7 DUP7 PUSH1 0x40 MLOAD PUSH1 0x24 ADD PUSH2 0x2440 SWAP4 SWAP3 SWAP2 SWAP1 PUSH2 0x31F2 JUMP JUMPDEST PUSH1 0x40 MLOAD PUSH1 0x20 DUP2 DUP4 SUB SUB DUP2 MSTORE SWAP1 PUSH1 0x40 MSTORE SWAP2 POP PUSH1 0xE0 SHL PUSH1 0x20 DUP3 ADD DUP1 MLOAD PUSH28 0xFFFFFFFFFFFFFFFFFFFFFFFFFFFFFFFFFFFFFFFFFFFFFFFFFFFFFFFF DUP4 DUP2 DUP4 AND OR DUP4 MSTORE POP POP POP POP PUSH2 0x248D JUMP JUMPDEST POP POP POP POP JUMP JUMPDEST PUSH1 0x0 DUP1 PUSH1 0x20 PUSH1 0x0 DUP5 MLOAD PUSH1 0x20 DUP7 ADD PUSH1 0x0 DUP9 GAS CALL DUP1 PUSH2 0x24B0 JUMPI PUSH1 0x40 MLOAD RETURNDATASIZE PUSH1 0x0 DUP3 RETURNDATACOPY RETURNDATASIZE DUP2 REVERT JUMPDEST RETURNDATASIZE SWAP3 POP PUSH1 0x0 MLOAD SWAP2 POP POP PUSH1 0x0 DUP3 EQ PUSH2 0x24CB JUMPI PUSH1 0x1 DUP2 EQ ISZERO PUSH2 0x24E7 JUMP JUMPDEST PUSH1 0x0 DUP5 PUSH20 0xFFFFFFFFFFFFFFFFFFFFFFFFFFFFFFFFFFFFFFFF AND EXTCODESIZE EQ JUMPDEST ISZERO PUSH2 0x2529 JUMPI DUP4 PUSH1 0x40 MLOAD PUSH32 0x5274AFE700000000000000000000000000000000000000000000000000000000 DUP2 MSTORE PUSH1 0x4 ADD PUSH2 0x2520 SWAP2 SWAP1 PUSH2 0x2AD7 JUMP JUMPDEST PUSH1 0x40 MLOAD DUP1 SWAP2 SUB SWAP1 REVERT JUMPDEST POP POP POP POP JUMP JUMPDEST PUSH1 0x0 CALLER SWAP1 POP SWAP1 JUMP JUMPDEST PUSH1 0x0 DUP1 REVERT JUMPDEST PUSH1 0x0 DUP1 REVERT JUMPDEST PUSH1 0x0 DUP2 SWAP1 POP SWAP2 SWAP1 POP JUMP JUMPDEST PUSH2 0x2554 DUP2 PUSH2 0x2541 JUMP JUMPDEST DUP2 EQ PUSH2 0x255F JUMPI PUSH1 0x0 DUP1 REVERT JUMPDEST POP JUMP JUMPDEST PUSH1 0x0 DUP2 CALLDATALOAD SWAP1 POP PUSH2 0x2571 DUP2 PUSH2 0x254B JUMP JUMPDEST SWAP3 SWAP2 POP POP JUMP JUMPDEST PUSH1 0x0 PUSH20 0xFFFFFFFFFFFFFFFFFFFFFFFFFFFFFFFFFFFFFFFF DUP3 AND SWAP1 POP SWAP2 SWAP1 POP JUMP JUMPDEST PUSH1 0x0 PUSH2 0x25A2 DUP3 PUSH2 0x2577 JUMP JUMPDEST SWAP1 POP SWAP2 SWAP1 POP JUMP JUMPDEST PUSH2 0x25B2 DUP2 PUSH2 0x2597 JUMP JUMPDEST DUP2 EQ PUSH2 0x25BD JUMPI PUSH1 0x0 DUP1 REVERT JUMPDEST POP JUMP JUMPDEST PUSH1 0x0 DUP2 CALLDATALOAD SWAP1 POP PUSH2 0x25CF DUP2 PUSH2 0x25A9 JUMP JUMPDEST SWAP3 SWAP2 POP POP JUMP JUMPDEST PUSH1 0x0 DUP1 PUSH1 0x40 DUP4 DUP6 SUB SLT ISZERO PUSH2 0x25EC JUMPI PUSH2 0x25EB PUSH2 0x2537 JUMP JUMPDEST JUMPDEST PUSH1 0x0 PUSH2 0x25FA DUP6 DUP3 DUP7 ADD PUSH2 0x2562 JUMP JUMPDEST SWAP3 POP POP PUSH1 0x20 PUSH2 0x260B DUP6 DUP3 DUP7 ADD PUSH2 0x25C0 JUMP JUMPDEST SWAP2 POP POP SWAP3 POP SWAP3 SWAP1 POP JUMP JUMPDEST PUSH2 0x261E DUP2 PUSH2 0x2541 JUMP JUMPDEST DUP3 MSTORE POP POP JUMP JUMPDEST PUSH1 0x0 PUSH1 0x40 DUP3 ADD SWAP1 POP PUSH2 0x2639 PUSH1 0x0 DUP4 ADD DUP6 PUSH2 0x2615 JUMP JUMPDEST PUSH2 0x2646 PUSH1 0x20 DUP4 ADD DUP5 PUSH2 0x2615 JUMP JUMPDEST SWAP4 SWAP3 POP POP POP JUMP JUMPDEST PUSH1 0x0 DUP2 ISZERO ISZERO SWAP1 POP SWAP2 SWAP1 POP JUMP JUMPDEST PUSH2 0x2662 DUP2 PUSH2 0x264D JUMP JUMPDEST DUP3 MSTORE POP POP JUMP JUMPDEST PUSH1 0x0 PUSH1 0x20 DUP3 ADD SWAP1 POP PUSH2 0x267D PUSH1 0x0 DUP4 ADD DUP5 PUSH2 0x2659 JUMP JUMPDEST SWAP3 SWAP2 POP POP JUMP JUMPDEST PUSH1 0x0 DUP1 PUSH1 0x40 DUP4 DUP6 SUB SLT ISZERO PUSH2 0x269A JUMPI PUSH2 0x2699 PUSH2 0x2537 JUMP JUMPDEST JUMPDEST PUSH1 0x0 PUSH2 0x26A8 DUP6 DUP3 DUP7 ADD PUSH2 0x2562 JUMP JUMPDEST SWAP3 POP POP PUSH1 0x20 PUSH2 0x26B9 DUP6 DUP3 DUP7 ADD PUSH2 0x2562 JUMP JUMPDEST SWAP2 POP POP SWAP3 POP SWAP3 SWAP1 POP JUMP JUMPDEST PUSH1 0x0 PUSH1 0x20 DUP3 DUP5 SUB SLT ISZERO PUSH2 0x26D9 JUMPI PUSH2 0x26D8 PUSH2 0x2537 JUMP JUMPDEST JUMPDEST PUSH1 0x0 PUSH2 0x26E7 DUP5 DUP3 DUP6 ADD PUSH2 0x2562 JUMP JUMPDEST SWAP2 POP POP SWAP3 SWAP2 POP POP JUMP JUMPDEST PUSH1 0x0 DUP2 SWAP1 POP SWAP2 SWAP1 POP JUMP JUMPDEST PUSH2 0x2703 DUP2 PUSH2 0x26F0 JUMP JUMPDEST DUP2 EQ PUSH2 0x270E JUMPI PUSH1 0x0 DUP1 REVERT JUMPDEST POP JUMP JUMPDEST PUSH1 0x0 DUP2 CALLDATALOAD SWAP1 POP PUSH2 0x2720 DUP2 PUSH2 0x26FA JUMP JUMPDEST SWAP3 SWAP2 POP POP JUMP JUMPDEST PUSH1 0x0 PUSH1 0x20 DUP3 DUP5 SUB SLT ISZERO PUSH2 0x273C JUMPI PUSH2 0x273B PUSH2 0x2537 JUMP JUMPDEST JUMPDEST PUSH1 0x0 PUSH2 0x274A DUP5 DUP3 DUP6 ADD PUSH2 0x2711 JUMP JUMPDEST SWAP2 POP POP SWAP3 SWAP2 POP POP JUMP JUMPDEST PUSH1 0x0 DUP1 REVERT JUMPDEST PUSH1 0x0 DUP1 REVERT JUMPDEST PUSH1 0x0 DUP1 REVERT JUMPDEST PUSH1 0x0 DUP1 DUP4 PUSH1 0x1F DUP5 ADD SLT PUSH2 0x2778 JUMPI PUSH2 0x2777 PUSH2 0x2753 JUMP JUMPDEST JUMPDEST DUP3 CALLDATALOAD SWAP1 POP PUSH8 0xFFFFFFFFFFFFFFFF DUP2 GT ISZERO PUSH2 0x2795 JUMPI PUSH2 0x2794 PUSH2 0x2758 JUMP JUMPDEST JUMPDEST PUSH1 0x20 DUP4 ADD SWAP2 POP DUP4 PUSH1 0x1 DUP3 MUL DUP4 ADD GT ISZERO PUSH2 0x27B1 JUMPI PUSH2 0x27B0 PUSH2 0x275D JUMP JUMPDEST JUMPDEST SWAP3 POP SWAP3 SWAP1 POP JUMP JUMPDEST PUSH1 0x0 DUP1 PUSH1 0x20 DUP4 DUP6 SUB SLT ISZERO PUSH2 0x27CF JUMPI PUSH2 0x27CE PUSH2 0x2537 JUMP JUMPDEST JUMPDEST PUSH1 0x0 DUP4 ADD CALLDATALOAD PUSH8 0xFFFFFFFFFFFFFFFF DUP2 GT ISZERO PUSH2 0x27ED JUMPI PUSH2 0x27EC PUSH2 0x253C JUMP JUMPDEST JUMPDEST PUSH2 0x27F9 DUP6 DUP3 DUP7 ADD PUSH2 0x2762 JUMP JUMPDEST SWAP3 POP SWAP3 POP POP SWAP3 POP SWAP3 SWAP1 POP JUMP JUMPDEST PUSH1 0x0 PUSH1 0x20 DUP3 ADD SWAP1 POP PUSH2 0x281A PUSH1 0x0 DUP4 ADD DUP5 PUSH2 0x2615 JUMP JUMPDEST SWAP3 SWAP2 POP POP JUMP JUMPDEST PUSH1 0x0 DUP1 PUSH1 0x40 DUP4 DUP6 SUB SLT ISZERO PUSH2 0x2837 JUMPI PUSH2 0x2836 PUSH2 0x2537 JUMP JUMPDEST JUMPDEST PUSH1 0x0 PUSH2 0x2845 DUP6 DUP3 DUP7 ADD PUSH2 0x2711 JUMP JUMPDEST SWAP3 POP POP PUSH1 0x20 PUSH2 0x2856 DUP6 DUP3 DUP7 ADD PUSH2 0x25C0 JUMP JUMPDEST SWAP2 POP POP SWAP3 POP SWAP3 SWAP1 POP JUMP JUMPDEST PUSH1 0x0 DUP2 MLOAD SWAP1 POP SWAP2 SWAP1 POP JUMP JUMPDEST PUSH1 0x0 DUP3 DUP3 MSTORE PUSH1 0x20 DUP3 ADD SWAP1 POP SWAP3 SWAP2 POP POP JUMP JUMPDEST PUSH1 0x0 JUMPDEST DUP4 DUP2 LT ISZERO PUSH2 0x289A JUMPI DUP1 DUP3 ADD MLOAD DUP2 DUP5 ADD MSTORE PUSH1 0x20 DUP2 ADD SWAP1 POP PUSH2 0x287F JUMP JUMPDEST PUSH1 0x0 DUP5 DUP5 ADD MSTORE POP POP POP POP JUMP JUMPDEST PUSH1 0x0 PUSH1 0x1F NOT PUSH1 0x1F DUP4 ADD AND SWAP1 POP SWAP2 SWAP1 POP JUMP JUMPDEST PUSH1 0x0 PUSH2 0x28C2 DUP3 PUSH2 0x2860 JUMP JUMPDEST PUSH2 0x28CC DUP2 DUP6 PUSH2 0x286B JUMP JUMPDEST SWAP4 POP PUSH2 0x28DC DUP2 DUP6 PUSH1 0x20 DUP7 ADD PUSH2 0x287C JUMP JUMPDEST PUSH2 0x28E5 DUP2 PUSH2 0x28A6 JUMP JUMPDEST DUP5 ADD SWAP2 POP POP SWAP3 SWAP2 POP POP JUMP JUMPDEST PUSH1 0x0 PUSH1 0x40 DUP3 ADD SWAP1 POP PUSH2 0x2905 PUSH1 0x0 DUP4 ADD DUP6 PUSH2 0x2659 JUMP JUMPDEST DUP2 DUP2 SUB PUSH1 0x20 DUP4 ADD MSTORE PUSH2 0x2917 DUP2 DUP5 PUSH2 0x28B7 JUMP JUMPDEST SWAP1 POP SWAP4 SWAP3 POP POP POP JUMP JUMPDEST PUSH1 0x0 DUP2 SWAP1 POP SWAP2 SWAP1 POP JUMP JUMPDEST PUSH1 0x0 PUSH2 0x2945 PUSH2 0x2940 PUSH2 0x293B DUP5 PUSH2 0x2577 JUMP JUMPDEST PUSH2 0x2920 JUMP JUMPDEST PUSH2 0x2577 JUMP JUMPDEST SWAP1 POP SWAP2 SWAP1 POP JUMP JUMPDEST PUSH1 0x0 PUSH2 0x2957 DUP3 PUSH2 0x292A JUMP JUMPDEST SWAP1 POP SWAP2 SWAP1 POP JUMP JUMPDEST PUSH1 0x0 PUSH2 0x2969 DUP3 PUSH2 0x294C JUMP JUMPDEST SWAP1 POP SWAP2 SWAP1 POP JUMP JUMPDEST PUSH2 0x2979 DUP2 PUSH2 0x295E JUMP JUMPDEST DUP3 MSTORE POP POP JUMP JUMPDEST PUSH1 0x0 PUSH1 0x40 DUP3 ADD SWAP1 POP PUSH2 0x2994 PUSH1 0x0 DUP4 ADD DUP6 PUSH2 0x2970 JUMP JUMPDEST PUSH2 0x29A1 PUSH1 0x20 DUP4 ADD DUP5 PUSH2 0x2659 JUMP JUMPDEST SWAP4 SWAP3 POP POP POP JUMP JUMPDEST PUSH1 0x0 PUSH8 0xFFFFFFFFFFFFFFFF DUP3 AND SWAP1 POP SWAP2 SWAP1 POP JUMP JUMPDEST PUSH2 0x29C5 DUP2 PUSH2 0x29A8 JUMP JUMPDEST DUP3 MSTORE POP POP JUMP JUMPDEST PUSH1 0x0 PUSH1 0x20 DUP3 ADD SWAP1 POP PUSH2 0x29E0 PUSH1 0x0 DUP4 ADD DUP5 PUSH2 0x29BC JUMP JUMPDEST SWAP3 SWAP2 POP POP JUMP JUMPDEST PUSH2 0x29EF DUP2 PUSH2 0x26F0 JUMP JUMPDEST DUP3 MSTORE POP POP JUMP JUMPDEST PUSH1 0x0 DUP2 SWAP1 POP SWAP2 SWAP1 POP JUMP JUMPDEST PUSH2 0x2A08 DUP2 PUSH2 0x29F5 JUMP JUMPDEST DUP3 MSTORE POP POP JUMP JUMPDEST PUSH1 0x0 PUSH2 0x180 DUP3 ADD SWAP1 POP PUSH2 0x2A24 PUSH1 0x0 DUP4 ADD DUP16 PUSH2 0x29BC JUMP JUMPDEST PUSH2 0x2A31 PUSH1 0x20 DUP4 ADD DUP15 PUSH2 0x29BC JUMP JUMPDEST PUSH2 0x2A3E PUSH1 0x40 DUP4 ADD DUP14 PUSH2 0x2659 JUMP JUMPDEST PUSH2 0x2A4B PUSH1 0x60 DUP4 ADD DUP13 PUSH2 0x2659 JUMP JUMPDEST PUSH2 0x2A58 PUSH1 0x80 DUP4 ADD DUP12 PUSH2 0x2659 JUMP JUMPDEST PUSH2 0x2A65 PUSH1 0xA0 DUP4 ADD DUP11 PUSH2 0x2659 JUMP JUMPDEST PUSH2 0x2A72 PUSH1 0xC0 DUP4 ADD DUP10 PUSH2 0x2615 JUMP JUMPDEST PUSH2 0x2A7F PUSH1 0xE0 DUP4 ADD DUP9 PUSH2 0x2615 JUMP JUMPDEST PUSH2 0x2A8D PUSH2 0x100 DUP4 ADD DUP8 PUSH2 0x2615 JUMP JUMPDEST PUSH2 0x2A9B PUSH2 0x120 DUP4 ADD DUP7 PUSH2 0x29E6 JUMP JUMPDEST PUSH2 0x2AA9 PUSH2 0x140 DUP4 ADD DUP6 PUSH2 0x29FF JUMP JUMPDEST PUSH2 0x2AB7 PUSH2 0x160 DUP4 ADD DUP5 PUSH2 0x29FF JUMP JUMPDEST SWAP14 SWAP13 POP POP POP POP POP POP POP POP POP POP POP POP POP JUMP JUMPDEST PUSH2 0x2AD1 DUP2 PUSH2 0x2597 JUMP JUMPDEST DUP3 MSTORE POP POP JUMP JUMPDEST PUSH1 0x0 PUSH1 0x20 DUP3 ADD SWAP1 POP PUSH2 0x2AEC PUSH1 0x0 DUP4 ADD DUP5 PUSH2 0x2AC8 JUMP JUMPDEST SWAP3 SWAP2 POP POP JUMP JUMPDEST PUSH1 0x0 PUSH2 0xFFFF DUP3 AND SWAP1 POP SWAP2 SWAP1 POP JUMP JUMPDEST PUSH2 0x2B09 DUP2 PUSH2 0x2AF2 JUMP JUMPDEST DUP3 MSTORE POP POP JUMP JUMPDEST PUSH1 0x0 PUSH1 0x20 DUP3 ADD SWAP1 POP PUSH2 0x2B24 PUSH1 0x0 DUP4 ADD DUP5 PUSH2 0x2B00 JUMP JUMPDEST SWAP3 SWAP2 POP POP JUMP JUMPDEST PUSH1 0x0 DUP1 PUSH1 0x40 DUP4 DUP6 SUB SLT ISZERO PUSH2 0x2B41 JUMPI PUSH2 0x2B40 PUSH2 0x2537 JUMP JUMPDEST JUMPDEST PUSH1 0x0 PUSH2 0x2B4F DUP6 DUP3 DUP7 ADD PUSH2 0x25C0 JUMP JUMPDEST SWAP3 POP POP PUSH1 0x20 PUSH2 0x2B60 DUP6 DUP3 DUP7 ADD PUSH2 0x2562 JUMP JUMPDEST SWAP2 POP POP SWAP3 POP SWAP3 SWAP1 POP JUMP JUMPDEST PUSH2 0x2B73 DUP2 PUSH2 0x264D JUMP JUMPDEST DUP2 EQ PUSH2 0x2B7E JUMPI PUSH1 0x0 DUP1 REVERT JUMPDEST POP JUMP JUMPDEST PUSH1 0x0 DUP2 CALLDATALOAD SWAP1 POP PUSH2 0x2B90 DUP2 PUSH2 0x2B6A JUMP JUMPDEST SWAP3 SWAP2 POP POP JUMP JUMPDEST PUSH1 0x0 DUP1 PUSH1 0x40 DUP4 DUP6 SUB SLT ISZERO PUSH2 0x2BAD JUMPI PUSH2 0x2BAC PUSH2 0x2537 JUMP JUMPDEST JUMPDEST PUSH1 0x0 PUSH2 0x2BBB DUP6 DUP3 DUP7 ADD PUSH2 0x2711 JUMP JUMPDEST SWAP3 POP POP PUSH1 0x20 PUSH2 0x2BCC DUP6 DUP3 DUP7 ADD PUSH2 0x2B81 JUMP JUMPDEST SWAP2 POP POP SWAP3 POP SWAP3 SWAP1 POP JUMP JUMPDEST PUSH1 0x0 PUSH1 0x40 DUP3 ADD SWAP1 POP PUSH2 0x2BEB PUSH1 0x0 DUP4 ADD DUP6 PUSH2 0x2AC8 JUMP JUMPDEST PUSH2 0x2BF8 PUSH1 0x20 DUP4 ADD DUP5 PUSH2 0x2659 JUMP JUMPDEST SWAP4 SWAP3 POP POP POP JUMP JUMPDEST PUSH1 0x0 PUSH2 0x2C0A DUP3 PUSH2 0x294C JUMP JUMPDEST SWAP1 POP SWAP2 SWAP1 POP JUMP JUMPDEST PUSH2 0x2C1A DUP2 PUSH2 0x2BFF JUMP JUMPDEST DUP3 MSTORE POP POP JUMP JUMPDEST PUSH1 0x0 PUSH1 0x20 DUP3 ADD SWAP1 POP PUSH2 0x2C35 PUSH1 0x0 DUP4 ADD DUP5 PUSH2 0x2C11 JUMP JUMPDEST SWAP3 SWAP2 POP POP JUMP JUMPDEST PUSH1 0x0 PUSH1 0x20 DUP3 DUP5 SUB SLT ISZERO PUSH2 0x2C51 JUMPI PUSH2 0x2C50 PUSH2 0x2537 JUMP JUMPDEST JUMPDEST PUSH1 0x0 PUSH2 0x2C5F DUP5 DUP3 DUP6 ADD PUSH2 0x25C0 JUMP JUMPDEST SWAP2 POP POP SWAP3 SWAP2 POP POP JUMP JUMPDEST PUSH32 0x4E487B7100000000000000000000000000000000000000000000000000000000 PUSH1 0x0 MSTORE PUSH1 0x11 PUSH1 0x4 MSTORE PUSH1 0x24 PUSH1 0x0 REVERT JUMPDEST PUSH1 0x0 PUSH2 0x2CA2 DUP3 PUSH2 0x2541 JUMP JUMPDEST SWAP2 POP PUSH2 0x2CAD DUP4 PUSH2 0x2541 JUMP JUMPDEST SWAP3 POP DUP3 DUP3 ADD SWAP1 POP DUP1 DUP3 GT ISZERO PUSH2 0x2CC5 JUMPI PUSH2 0x2CC4 PUSH2 0x2C68 JUMP JUMPDEST JUMPDEST SWAP3 SWAP2 POP POP JUMP JUMPDEST PUSH1 0x0 PUSH1 0x60 DUP3 ADD SWAP1 POP PUSH2 0x2CE0 PUSH1 0x0 DUP4 ADD DUP7 PUSH2 0x29BC JUMP JUMPDEST PUSH2 0x2CED PUSH1 0x20 DUP4 ADD DUP6 PUSH2 0x29BC JUMP JUMPDEST PUSH2 0x2CFA PUSH1 0x40 DUP4 ADD DUP5 PUSH2 0x29FF JUMP JUMPDEST SWAP5 SWAP4 POP POP POP POP JUMP JUMPDEST PUSH1 0x0 PUSH2 0x2D0D DUP3 PUSH2 0x2541 JUMP JUMPDEST SWAP2 POP PUSH2 0x2D18 DUP4 PUSH2 0x2541 JUMP JUMPDEST SWAP3 POP DUP3 DUP3 MUL PUSH2 0x2D26 DUP2 PUSH2 0x2541 JUMP JUMPDEST SWAP2 POP DUP3 DUP3 DIV DUP5 EQ DUP4 ISZERO OR PUSH2 0x2D3D JUMPI PUSH2 0x2D3C PUSH2 0x2C68 JUMP JUMPDEST JUMPDEST POP SWAP3 SWAP2 POP POP JUMP JUMPDEST PUSH32 0x4E487B7100000000000000000000000000000000000000000000000000000000 PUSH1 0x0 MSTORE PUSH1 0x12 PUSH1 0x4 MSTORE PUSH1 0x24 PUSH1 0x0 REVERT JUMPDEST PUSH1 0x0 PUSH2 0x2D7E DUP3 PUSH2 0x2541 JUMP JUMPDEST SWAP2 POP PUSH2 0x2D89 DUP4 PUSH2 0x2541 JUMP JUMPDEST SWAP3 POP DUP3 PUSH2 0x2D99 JUMPI PUSH2 0x2D98 PUSH2 0x2D44 JUMP JUMPDEST JUMPDEST DUP3 DUP3 DIV SWAP1 POP SWAP3 SWAP2 POP POP JUMP JUMPDEST PUSH1 0x0 PUSH2 0x2DAF DUP3 PUSH2 0x29A8 JUMP JUMPDEST SWAP2 POP PUSH2 0x2DBA DUP4 PUSH2 0x29A8 JUMP JUMPDEST SWAP3 POP DUP3 DUP3 ADD SWAP1 POP PUSH8 0xFFFFFFFFFFFFFFFF DUP2 GT ISZERO PUSH2 0x2DDA JUMPI PUSH2 0x2DD9 PUSH2 0x2C68 JUMP JUMPDEST JUMPDEST SWAP3 SWAP2 POP POP JUMP JUMPDEST PUSH1 0x0 PUSH1 0x80 DUP3 ADD SWAP1 POP PUSH2 0x2DF5 PUSH1 0x0 DUP4 ADD DUP8 PUSH2 0x2659 JUMP JUMPDEST PUSH2 0x2E02 PUSH1 0x20 DUP4 ADD DUP7 PUSH2 0x2659 JUMP JUMPDEST PUSH2 0x2E0F PUSH1 0x40 DUP4 ADD DUP6 PUSH2 0x29FF JUMP JUMPDEST PUSH2 0x2E1C PUSH1 0x60 DUP4 ADD DUP5 PUSH2 0x29FF JUMP JUMPDEST SWAP6 SWAP5 POP POP POP POP POP JUMP JUMPDEST PUSH1 0x0 DUP3 DUP3 MSTORE PUSH1 0x20 DUP3 ADD SWAP1 POP SWAP3 SWAP2 POP POP JUMP JUMPDEST PUSH32 0x7A65726F20666565640000000000000000000000000000000000000000000000 PUSH1 0x0 DUP3 ADD MSTORE POP JUMP JUMPDEST PUSH1 0x0 PUSH2 0x2E6C PUSH1 0x9 DUP4 PUSH2 0x2E25 JUMP JUMPDEST SWAP2 POP PUSH2 0x2E77 DUP3 PUSH2 0x2E36 JUMP JUMPDEST PUSH1 0x20 DUP3 ADD SWAP1 POP SWAP2 SWAP1 POP JUMP JUMPDEST PUSH1 0x0 PUSH1 0x20 DUP3 ADD SWAP1 POP DUP2 DUP2 SUB PUSH1 0x0 DUP4 ADD MSTORE PUSH2 0x2E9B DUP2 PUSH2 0x2E5F JUMP JUMPDEST SWAP1 POP SWAP2 SWAP1 POP JUMP JUMPDEST PUSH32 0x62616420746F0000000000000000000000000000000000000000000000000000 PUSH1 0x0 DUP3 ADD MSTORE POP JUMP JUMPDEST PUSH1 0x0 PUSH2 0x2ED8 PUSH1 0x6 DUP4 PUSH2 0x2E25 JUMP JUMPDEST SWAP2 POP PUSH2 0x2EE3 DUP3 PUSH2 0x2EA2 JUMP JUMPDEST PUSH1 0x20 DUP3 ADD SWAP1 POP SWAP2 SWAP1 POP JUMP JUMPDEST PUSH1 0x0 PUSH1 0x20 DUP3 ADD SWAP1 POP DUP2 DUP2 SUB PUSH1 0x0 DUP4 ADD MSTORE PUSH2 0x2F07 DUP2 PUSH2 0x2ECB JUMP JUMPDEST SWAP1 POP SWAP2 SWAP1 POP JUMP JUMPDEST PUSH32 0x65786365656473207661756C7400000000000000000000000000000000000000 PUSH1 0x0 DUP3 ADD MSTORE POP JUMP JUMPDEST PUSH1 0x0 PUSH2 0x2F44 PUSH1 0xD DUP4 PUSH2 0x2E25 JUMP JUMPDEST SWAP2 POP PUSH2 0x2F4F DUP3 PUSH2 0x2F0E JUMP JUMPDEST PUSH1 0x20 DUP3 ADD SWAP1 POP SWAP2 SWAP1 POP JUMP JUMPDEST PUSH1 0x0 PUSH1 0x20 DUP3 ADD SWAP1 POP DUP2 DUP2 SUB PUSH1 0x0 DUP4 ADD MSTORE PUSH2 0x2F73 DUP2 PUSH2 0x2F37 JUMP JUMPDEST SWAP1 POP SWAP2 SWAP1 POP JUMP JUMPDEST PUSH1 0x0 PUSH2 0x2F85 DUP3 PUSH2 0x2541 JUMP JUMPDEST SWAP2 POP PUSH2 0x2F90 DUP4 PUSH2 0x2541 JUMP JUMPDEST SWAP3 POP DUP3 DUP3 SUB SWAP1 POP DUP2 DUP2 GT ISZERO PUSH2 0x2FA8 JUMPI PUSH2 0x2FA7 PUSH2 0x2C68 JUMP JUMPDEST JUMPDEST SWAP3 SWAP2 POP POP JUMP JUMPDEST PUSH1 0x0 PUSH1 0x80 DUP3 ADD SWAP1 POP PUSH2 0x2FC3 PUSH1 0x0 DUP4 ADD DUP8 PUSH2 0x2659 JUMP JUMPDEST PUSH2 0x2FD0 PUSH1 0x20 DUP4 ADD DUP7 PUSH2 0x2615 JUMP JUMPDEST PUSH2 0x2FDD PUSH1 0x40 DUP4 ADD DUP6 PUSH2 0x2615 JUMP JUMPDEST PUSH2 0x2FEA PUSH1 0x60 DUP4 ADD DUP5 PUSH2 0x2615 JUMP JUMPDEST SWAP6 SWAP5 POP POP POP POP POP JUMP JUMPDEST PUSH1 0x0 PUSH1 0x40 DUP3 ADD SWAP1 POP PUSH2 0x3008 PUSH1 0x0 DUP4 ADD DUP6 PUSH2 0x2AC8 JUMP JUMPDEST PUSH2 0x3015 PUSH1 0x20 DUP4 ADD DUP5 PUSH2 0x2615 JUMP JUMPDEST SWAP4 SWAP3 POP POP POP JUMP JUMPDEST PUSH1 0x0 PUSH10 0xFFFFFFFFFFFFFFFFFFFF DUP3 AND SWAP1 POP SWAP2 SWAP1 POP JUMP JUMPDEST PUSH2 0x303B DUP2 PUSH2 0x301C JUMP JUMPDEST DUP2 EQ PUSH2 0x3046 JUMPI PUSH1 0x0 DUP1 REVERT JUMPDEST POP JUMP JUMPDEST PUSH1 0x0 DUP2 MLOAD SWAP1 POP PUSH2 0x3058 DUP2 PUSH2 0x3032 JUMP JUMPDEST SWAP3 SWAP2 POP POP JUMP JUMPDEST PUSH2 0x3067 DUP2 PUSH2 0x29F5 JUMP JUMPDEST DUP2 EQ PUSH2 0x3072 JUMPI PUSH1 0x0 DUP1 REVERT JUMPDEST POP JUMP JUMPDEST PUSH1 0x0 DUP2 MLOAD SWAP1 POP PUSH2 0x3084 DUP2 PUSH2 0x305E JUMP JUMPDEST SWAP3 SWAP2 POP POP JUMP JUMPDEST PUSH1 0x0 DUP2 MLOAD SWAP1 POP PUSH2 0x3099 DUP2 PUSH2 0x254B JUMP JUMPDEST SWAP3 SWAP2 POP POP JUMP JUMPDEST PUSH1 0x0 DUP1 PUSH1 0x0 DUP1 PUSH1 0x0 PUSH1 0xA0 DUP7 DUP9 SUB SLT ISZERO PUSH2 0x30BB JUMPI PUSH2 0x30BA PUSH2 0x2537 JUMP JUMPDEST JUMPDEST PUSH1 0x0 PUSH2 0x30C9 DUP9 DUP3 DUP10 ADD PUSH2 0x3049 JUMP JUMPDEST SWAP6 POP POP PUSH1 0x20 PUSH2 0x30DA DUP9 DUP3 DUP10 ADD PUSH2 0x3075 JUMP JUMPDEST SWAP5 POP POP PUSH1 0x40 PUSH2 0x30EB DUP9 DUP3 DUP10 ADD PUSH2 0x308A JUMP JUMPDEST SWAP4 POP POP PUSH1 0x60 PUSH2 0x30FC DUP9 DUP3 DUP10 ADD PUSH2 0x308A JUMP JUMPDEST SWAP3 POP POP PUSH1 0x80 PUSH2 0x310D DUP9 DUP3 DUP10 ADD PUSH2 0x3049 JUMP JUMPDEST SWAP2 POP POP SWAP3 SWAP6 POP SWAP3 SWAP6 SWAP1 SWAP4 POP JUMP JUMPDEST PUSH32 0x696E76616C696420707269636500000000000000000000000000000000000000 PUSH1 0x0 DUP3 ADD MSTORE POP JUMP JUMPDEST PUSH1 0x0 PUSH2 0x3150 PUSH1 0xD DUP4 PUSH2 0x2E25 JUMP JUMPDEST SWAP2 POP PUSH2 0x315B DUP3 PUSH2 0x311A JUMP JUMPDEST PUSH1 0x20 DUP3 ADD SWAP1 POP SWAP2 SWAP1 POP JUMP JUMPDEST PUSH1 0x0 PUSH1 0x20 DUP3 ADD SWAP1 POP DUP2 DUP2 SUB PUSH1 0x0 DUP4 ADD MSTORE PUSH2 0x317F DUP2 PUSH2 0x3143 JUMP JUMPDEST SWAP1 POP SWAP2 SWAP1 POP JUMP JUMPDEST PUSH32 0x7374616C65207072696365000000000000000000000000000000000000000000 PUSH1 0x0 DUP3 ADD MSTORE POP JUMP JUMPDEST PUSH1 0x0 PUSH2 0x31BC PUSH1 0xB DUP4 PUSH2 0x2E25 JUMP JUMPDEST SWAP2 POP PUSH2 0x31C7 DUP3 PUSH2 0x3186 JUMP JUMPDEST PUSH1 0x20 DUP3 ADD SWAP1 POP SWAP2 SWAP1 POP JUMP JUMPDEST PUSH1 0x0 PUSH1 0x20 DUP3 ADD SWAP1 POP DUP2 DUP2 SUB PUSH1 0x0 DUP4 ADD MSTORE PUSH2 0x31EB DUP2 PUSH2 0x31AF JUMP JUMPDEST SWAP1 POP SWAP2 SWAP1 POP JUMP JUMPDEST PUSH1 0x0 PUSH1 0x60 DUP3 ADD SWAP1 POP PUSH2 0x3207 PUSH1 0x0 DUP4 ADD DUP7 PUSH2 0x2AC8 JUMP JUMPDEST PUSH2 0x3214 PUSH1 0x20 DUP4 ADD DUP6 PUSH2 0x2AC8 JUMP JUMPDEST PUSH2 0x3221 PUSH1 0x40 DUP4 ADD DUP5 PUSH2 0x2615 JUMP JUMPDEST SWAP5 SWAP4 POP POP POP POP JUMP INVALID LOG2 PUSH5 0x6970667358 0x22 SLT KECCAK256 0x1E DUP3 MULMOD SLT EQ PC 0xA8 PUSH19 0x7F7AA3E55CCA56CC32AAE2CC3360632EE206AA RETURNDATACOPY 0xEE 0xBC TIMESTAMP PUSH8 0x64736F6C63430008 XOR STOP CALLER "},"methodIdentifiers":{"BET_WINDOW_SECONDS()":"c2ccddec","FEE_BET_BPS()":"90cc9a11","ROUND_SECONDS()":"8b3e0476","addMarket(bytes32,address)":"65c0084c","betNo(uint256,uint256)":"22a18d42","betYes(uint256,uint256)":"174a5d32","betsNo(uint256,address)":"442cd555","betsYes(uint256,address)":"0939fc83","checkUpkeep(bytes)":"6e04ff0d","claim(uint256)":"379607f5","claimed(uint256,address)":"120aa877","collateral()":"d8dfeb45","currentRoundId()":"9cbe5efd","endRound(uint256)":"5a1e6ca1","feeVault()":"478222c2","getMarket(bytes32)":"c3c95c7b","markets(bytes32)":"7564912b","owner()":"8da5cb5b","performUpkeep(bytes)":"4585e33b","refund(uint256)":"278ecde1","renounceOwnership()":"715018a6","rounds(uint256)":"8c65c81f","setMarketEnabled(bytes32,bool)":"b9fb9922","startRound(bytes32)":"37404885","transferOwnership(address)":"f2fde38b","withdrawFees(address,uint256)":"ad3b1b47"}}}}}